{"contracts/MockFeedDec8.sol":{"MockFeedDec8":{"abi":[{"inputs":[],"name":"decimals","outputs":[{"internalType":"uint8","name":"","type":"uint8"}],"stateMutability":"pure","type":"function"},{"inputs":[],"name":"latestAnswer","outputs":[{"internalType":"int256","name":"","type":"int256"}],"stateMutability":"view","type":"function"},{"inputs":[],"name":"latestRoundData","outputs":[{"internalType":"uint80","name":"","type":"uint80"},{"internalType":"int256","name":"","type":"int256"},{"internalType":"uint256","name":"","type":"uint256"},{"internalType":"uint256","name":"","type":"uint256"},{"internalType":"uint80","name":"","type":"uint80"}],"stateMutability":"view","type":"function"},{"inputs":[{"internalType":"int256","name":"answer","type":"int256"}],"name":"setLatestAnswer","outputs":[],"stateMutability":"nonpayable","type":"function"}],"evm":{"bytecode":{"linkReferences":{},"object":"608060405234801561001057600080fd5b50610102806100206000396000f3fe6080604052348015600f57600080fd5b506004361060465760003560e01c806304ea97b014604b578063313ce56714605d57806350d25bcd146071578063feaf968c146086575b600080fd5b605b605636600460b4565b600055565b005b604051600881526020015b60405180910390f35b607960005481565b6040519081526020016068565b60008054604080518381526020810192909252429082018190526060820152608081019190915260a0016068565b60006020828403121560c557600080fd5b503591905056fea264697066735822122011c21935a8e182a396bd94b9ee07b489de559744a18865d42454f8e811b5816e64736f6c63430008140033","opcodes":"PUSH1 0x80 PUSH1 0x40 MSTORE CALLVALUE DUP1 ISZERO PUSH2 0x10 JUMPI PUSH1 0x0 DUP1 REVERT JUMPDEST POP PUSH2 0x102 DUP1 PUSH2 0x20 PUSH1 0x0 CODECOPY PUSH1 0x0 RETURN INVALID PUSH1 0x80 PUSH1 0x40 MSTORE CALLVALUE DUP1 ISZERO PUSH1 0xF JUMPI PUSH1 0x0 DUP1 REVERT JUMPDEST POP PUSH1 0x4 CALLDATASIZE LT PUSH1 0x46 JUMPI PUSH1 0x0 CALLDATALOAD PUSH1 0xE0 SHR DUP1 PUSH4 0x4EA97B0 EQ PUSH1 0x4B JUMPI DUP1 PUSH4 0x313CE567 EQ PUSH1 0x5D JUMPI DUP1 PUSH4 0x50D25BCD EQ PUSH1 0x71 JUMPI DUP1 PUSH4 0xFEAF968C EQ PUSH1 0x86 JUMPI JUMPDEST PUSH1 0x0 DUP1 REVERT JUMPDEST PUSH1 0x5B PUSH1 0x56 CALLDATASIZE PUSH1 0x4 PUSH1 0xB4 JUMP JUMPDEST PUSH1 0x0 SSTORE JUMP JUMPDEST STOP JUMPDEST PUSH1 0x40 MLOAD PUSH1 0x8 DUP2 MSTORE PUSH1 0x20 ADD JUMPDEST PUSH1 0x40 MLOAD DUP1 SWAP2 SUB SWAP1 RETURN JUMPDEST PUSH1 0x79 PUSH1 0x0 SLOAD DUP2 JUMP JUMPDEST PUSH1 0x40 MLOAD SWAP1 DUP2 MSTORE PUSH1 0x20 ADD PUSH1 0x68 JUMP JUMPDEST PUSH1 0x0 DUP1 SLOAD PUSH1 0x40 DUP1 MLOAD DUP4 DUP2 MSTORE PUSH1 0x20 DUP2 ADD SWAP3 SWAP1 SWAP3 MSTORE TIMESTAMP SWAP1 DUP3 ADD DUP2 SWAP1 MSTORE PUSH1 0x60 DUP3 ADD MSTORE PUSH1 0x80 DUP2 ADD SWAP2 SWAP1 SWAP2 MSTORE PUSH1 0xA0 ADD PUSH1 0x68 JUMP JUMPDEST PUSH1 0x0 PUSH1 0x20 DUP3 DUP5 SUB SLT ISZERO PUSH1 0xC5 JUMPI PUSH1 0x0 DUP1 REVERT JUMPDEST POP CALLDATALOAD SWAP2 SWAP1 POP JUMP INVALID LOG2 PUSH5 0x6970667358 0x22 SLT KECCAK256 GT 0xC2 NOT CALLDATALOAD 0xA8 0xE1 DUP3 LOG3 SWAP7 0xBD SWAP5 0xB9 0xEE SMOD 0xB4 DUP10 0xDE SSTORE SWAP8 PREVRANDAO LOG1 DUP9 PUSH6 0xD42454F8E811 0xB5 DUP2 PUSH15 0x64736F6C6343000814003300000000 "},"methodIdentifiers":{"decimals()":"313ce567","latestAnswer()":"50d25bcd","latestRoundData()":"feaf968c","setLatestAnswer(int256)":"04ea97b0"}}}}}