{
  "_format": "hh-sol-artifact-1",
  "contractName": "Comet",
  "sourceName": "contracts/Comet.sol",
  "abi": [
    {
      "inputs": [
        {
          "components": [
            {
              "internalType": "address",
              "name": "governor",
              "type": "address"
            },
            {
              "internalType": "address",
              "name": "pauseGuardian",
              "type": "address"
            },
            {
              "internalType": "address",
              "name": "baseToken",
              "type": "address"
            },
            {
              "internalType": "address",
              "name": "baseTokenPriceFeed",
              "type": "address"
            },
            {
              "internalType": "address",
              "name": "extensionDelegate",
              "type": "address"
            },
            {
              "internalType": "uint64",
              "name": "supplyKink",
              "type": "uint64"
            },
            {
              "internalType": "uint64",
              "name": "supplyPerYearInterestRateSlopeLow",
              "type": "uint64"
            },
            {
              "internalType": "uint64",
              "name": "supplyPerYearInterestRateSlopeHigh",
              "type": "uint64"
            },
            {
              "internalType": "uint64",
              "name": "supplyPerYearInterestRateBase",
              "type": "uint64"
            },
            {
              "internalType": "uint64",
              "name": "borrowKink",
              "type": "uint64"
            },
            {
              "internalType": "uint64",
              "name": "borrowPerYearInterestRateSlopeLow",
              "type": "uint64"
            },
            {
              "internalType": "uint64",
              "name": "borrowPerYearInterestRateSlopeHigh",
              "type": "uint64"
            },
            {
              "internalType": "uint64",
              "name": "borrowPerYearInterestRateBase",
              "type": "uint64"
            },
            {
              "internalType": "uint64",
              "name": "storeFrontPriceFactor",
              "type": "uint64"
            },
            {
              "internalType": "uint64",
              "name": "trackingIndexScale",
              "type": "uint64"
            },
            {
              "internalType": "uint64",
              "name": "baseTrackingSupplySpeed",
              "type": "uint64"
            },
            {
              "internalType": "uint64",
              "name": "baseTrackingBorrowSpeed",
              "type": "uint64"
            },
            {
              "internalType": "uint104",
              "name": "baseMinForRewards",
              "type": "uint104"
            },
            {
              "internalType": "uint104",
              "name": "baseBorrowMin",
              "type": "uint104"
            },
            {
              "internalType": "uint104",
              "name": "targetReserves",
              "type": "uint104"
            },
            {
              "components": [
                {
                  "internalType": "address",
                  "name": "asset",
                  "type": "address"
                },
                {
                  "internalType": "address",
                  "name": "priceFeed",
                  "type": "address"
                },
                {
                  "internalType": "uint8",
                  "name": "decimals",
                  "type": "uint8"
                },
                {
                  "internalType": "uint64",
                  "name": "borrowCollateralFactor",
                  "type": "uint64"
                },
                {
                  "internalType": "uint64",
                  "name": "liquidateCollateralFactor",
                  "type": "uint64"
                },
                {
                  "internalType": "uint64",
                  "name": "liquidationFactor",
                  "type": "uint64"
                },
                {
                  "internalType": "uint128",
                  "name": "supplyCap",
                  "type": "uint128"
                }
              ],
              "internalType": "struct CometConfiguration.AssetConfig[]",
              "name": "assetConfigs",
              "type": "tuple[]"
            }
          ],
          "internalType": "struct CometConfiguration.Configuration",
          "name": "config",
          "type": "tuple"
        }
      ],
      "stateMutability": "nonpayable",
      "type": "constructor"
    },
    {
      "inputs": [],
      "name": "Absurd",
      "type": "error"
    },
    {
      "inputs": [],
      "name": "AlreadyInitialized",
      "type": "error"
    },
    {
      "inputs": [],
      "name": "BadAsset",
      "type": "error"
    },
    {
      "inputs": [],
      "name": "BadDecimals",
      "type": "error"
    },
    {
      "inputs": [],
      "name": "BadDiscount",
      "type": "error"
    },
    {
      "inputs": [],
      "name": "BadMinimum",
      "type": "error"
    },
    {
      "inputs": [],
      "name": "BadPrice",
      "type": "error"
    },
    {
      "inputs": [],
      "name": "BorrowCFTooLarge",
      "type": "error"
    },
    {
      "inputs": [],
      "name": "BorrowTooSmall",
      "type": "error"
    },
    {
      "inputs": [],
      "name": "InsufficientReserves",
      "type": "error"
    },
    {
      "inputs": [],
      "name": "InvalidInt104",
      "type": "error"
    },
    {
      "inputs": [],
      "name": "InvalidInt256",
      "type": "error"
    },
    {
      "inputs": [],
      "name": "InvalidUInt104",
      "type": "error"
    },
    {
      "inputs": [],
      "name": "InvalidUInt128",
      "type": "error"
    },
    {
      "inputs": [],
      "name": "InvalidUInt64",
      "type": "error"
    },
    {
      "inputs": [],
      "name": "LiquidateCFTooLarge",
      "type": "error"
    },
    {
      "inputs": [],
      "name": "NegativeNumber",
      "type": "error"
    },
    {
      "inputs": [],
      "name": "NoSelfTransfer",
      "type": "error"
    },
    {
      "inputs": [],
      "name": "NotCollateralized",
      "type": "error"
    },
    {
      "inputs": [],
      "name": "NotForSale",
      "type": "error"
    },
    {
      "inputs": [],
      "name": "NotLiquidatable",
      "type": "error"
    },
    {
      "inputs": [],
      "name": "Paused",
      "type": "error"
    },
    {
      "inputs": [],
      "name": "ReentrantCallBlocked",
      "type": "error"
    },
    {
      "inputs": [],
      "name": "SupplyCapExceeded",
      "type": "error"
    },
    {
      "inputs": [],
      "name": "TimestampTooLarge",
      "type": "error"
    },
    {
      "inputs": [],
      "name": "TooManyAssets",
      "type": "error"
    },
    {
      "inputs": [],
      "name": "TooMuchSlippage",
      "type": "error"
    },
    {
      "inputs": [],
      "name": "TransferInFailed",
      "type": "error"
    },
    {
      "inputs": [],
      "name": "TransferOutFailed",
      "type": "error"
    },
    {
      "inputs": [],
      "name": "Unauthorized",
      "type": "error"
    },
    {
      "anonymous": false,
      "inputs": [
        {
          "indexed": true,
          "internalType": "address",
          "name": "absorber",
          "type": "address"
        },
        {
          "indexed": true,
          "internalType": "address",
          "name": "borrower",
          "type": "address"
        },
        {
          "indexed": true,
          "internalType": "address",
          "name": "asset",
          "type": "address"
        },
        {
          "indexed": false,
          "internalType": "uint256",
          "name": "collateralAbsorbed",
          "type": "uint256"
        },
        {
          "indexed": false,
          "internalType": "uint256",
          "name": "usdValue",
          "type": "uint256"
        }
      ],
      "name": "AbsorbCollateral",
      "type": "event"
    },
    {
      "anonymous": false,
      "inputs": [
        {
          "indexed": true,
          "internalType": "address",
          "name": "absorber",
          "type": "address"
        },
        {
          "indexed": true,
          "internalType": "address",
          "name": "borrower",
          "type": "address"
        },
        {
          "indexed": false,
          "internalType": "uint256",
          "name": "basePaidOut",
          "type": "uint256"
        },
        {
          "indexed": false,
          "internalType": "uint256",
          "name": "usdValue",
          "type": "uint256"
        }
      ],
      "name": "AbsorbDebt",
      "type": "event"
    },
    {
      "anonymous": false,
      "inputs": [
        {
          "indexed": true,
          "internalType": "address",
          "name": "buyer",
          "type": "address"
        },
        {
          "indexed": true,
          "internalType": "address",
          "name": "asset",
          "type": "address"
        },
        {
          "indexed": false,
          "internalType": "uint256",
          "name": "baseAmount",
          "type": "uint256"
        },
        {
          "indexed": false,
          "internalType": "uint256",
          "name": "collateralAmount",
          "type": "uint256"
        }
      ],
      "name": "BuyCollateral",
      "type": "event"
    },
    {
      "anonymous": false,
      "inputs": [
        {
          "indexed": false,
          "internalType": "bool",
          "name": "supplyPaused",
          "type": "bool"
        },
        {
          "indexed": false,
          "internalType": "bool",
          "name": "transferPaused",
          "type": "bool"
        },
        {
          "indexed": false,
          "internalType": "bool",
          "name": "withdrawPaused",
          "type": "bool"
        },
        {
          "indexed": false,
          "internalType": "bool",
          "name": "absorbPaused",
          "type": "bool"
        },
        {
          "indexed": false,
          "internalType": "bool",
          "name": "buyPaused",
          "type": "bool"
        }
      ],
      "name": "PauseAction",
      "type": "event"
    },
    {
      "anonymous": false,
      "inputs": [
        {
          "indexed": true,
          "internalType": "address",
          "name": "from",
          "type": "address"
        },
        {
          "indexed": true,
          "internalType": "address",
          "name": "dst",
          "type": "address"
        },
        {
          "indexed": false,
          "internalType": "uint256",
          "name": "amount",
          "type": "uint256"
        }
      ],
      "name": "Supply",
      "type": "event"
    },
    {
      "anonymous": false,
      "inputs": [
        {
          "indexed": true,
          "internalType": "address",
          "name": "from",
          "type": "address"
        },
        {
          "indexed": true,
          "internalType": "address",
          "name": "dst",
          "type": "address"
        },
        {
          "indexed": true,
          "internalType": "address",
          "name": "asset",
          "type": "address"
        },
        {
          "indexed": false,
          "internalType": "uint256",
          "name": "amount",
          "type": "uint256"
        }
      ],
      "name": "SupplyCollateral",
      "type": "event"
    },
    {
      "anonymous": false,
      "inputs": [
        {
          "indexed": true,
          "internalType": "address",
          "name": "from",
          "type": "address"
        },
        {
          "indexed": true,
          "internalType": "address",
          "name": "to",
          "type": "address"
        },
        {
          "indexed": false,
          "internalType": "uint256",
          "name": "amount",
          "type": "uint256"
        }
      ],
      "name": "Transfer",
      "type": "event"
    },
    {
      "anonymous": false,
      "inputs": [
        {
          "indexed": true,
          "internalType": "address",
          "name": "from",
          "type": "address"
        },
        {
          "indexed": true,
          "internalType": "address",
          "name": "to",
          "type": "address"
        },
        {
          "indexed": true,
          "internalType": "address",
          "name": "asset",
          "type": "address"
        },
        {
          "indexed": false,
          "internalType": "uint256",
          "name": "amount",
          "type": "uint256"
        }
      ],
      "name": "TransferCollateral",
      "type": "event"
    },
    {
      "anonymous": false,
      "inputs": [
        {
          "indexed": true,
          "internalType": "address",
          "name": "src",
          "type": "address"
        },
        {
          "indexed": true,
          "internalType": "address",
          "name": "to",
          "type": "address"
        },
        {
          "indexed": false,
          "internalType": "uint256",
          "name": "amount",
          "type": "uint256"
        }
      ],
      "name": "Withdraw",
      "type": "event"
    },
    {
      "anonymous": false,
      "inputs": [
        {
          "indexed": true,
          "internalType": "address",
          "name": "src",
          "type": "address"
        },
        {
          "indexed": true,
          "internalType": "address",
          "name": "to",
          "type": "address"
        },
        {
          "indexed": true,
          "internalType": "address",
          "name": "asset",
          "type": "address"
        },
        {
          "indexed": false,
          "internalType": "uint256",
          "name": "amount",
          "type": "uint256"
        }
      ],
      "name": "WithdrawCollateral",
      "type": "event"
    },
    {
      "anonymous": false,
      "inputs": [
        {
          "indexed": true,
          "internalType": "address",
          "name": "to",
          "type": "address"
        },
        {
          "indexed": false,
          "internalType": "uint256",
          "name": "amount",
          "type": "uint256"
        }
      ],
      "name": "WithdrawReserves",
      "type": "event"
    },
    {
      "stateMutability": "payable",
      "type": "fallback"
    },
    {
      "inputs": [
        {
          "internalType": "address",
          "name": "absorber",
          "type": "address"
        },
        {
          "internalType": "address[]",
          "name": "accounts",
          "type": "address[]"
        }
      ],
      "name": "absorb",
      "outputs": [],
      "stateMutability": "nonpayable",
      "type": "function"
    },
    {
      "inputs": [
        {
          "internalType": "address",
          "name": "account",
          "type": "address"
        }
      ],
      "name": "accrueAccount",
      "outputs": [],
      "stateMutability": "nonpayable",
      "type": "function"
    },
    {
      "inputs": [
        {
          "internalType": "address",
          "name": "manager",
          "type": "address"
        },
        {
          "internalType": "address",
          "name": "asset",
          "type": "address"
        },
        {
          "internalType": "uint256",
          "name": "amount",
          "type": "uint256"
        }
      ],
      "name": "approveThis",
      "outputs": [],
      "stateMutability": "nonpayable",
      "type": "function"
    },
    {
      "inputs": [
        {
          "internalType": "address",
          "name": "account",
          "type": "address"
        }
      ],
      "name": "balanceOf",
      "outputs": [
        {
          "internalType": "uint256",
          "name": "",
          "type": "uint256"
        }
      ],
      "stateMutability": "view",
      "type": "function"
    },
    {
      "inputs": [],
      "name": "baseBorrowMin",
      "outputs": [
        {
          "internalType": "uint256",
          "name": "",
          "type": "uint256"
        }
      ],
      "stateMutability": "view",
      "type": "function"
    },
    {
      "inputs": [],
      "name": "baseMinForRewards",
      "outputs": [
        {
          "internalType": "uint256",
          "name": "",
          "type": "uint256"
        }
      ],
      "stateMutability": "view",
      "type": "function"
    },
    {
      "inputs": [],
      "name": "baseScale",
      "outputs": [
        {
          "internalType": "uint256",
          "name": "",
          "type": "uint256"
        }
      ],
      "stateMutability": "view",
      "type": "function"
    },
    {
      "inputs": [],
      "name": "baseToken",
      "outputs": [
        {
          "internalType": "address",
          "name": "",
          "type": "address"
        }
      ],
      "stateMutability": "view",
      "type": "function"
    },
    {
      "inputs": [],
      "name": "baseTokenPriceFeed",
      "outputs": [
        {
          "internalType": "address",
          "name": "",
          "type": "address"
        }
      ],
      "stateMutability": "view",
      "type": "function"
    },
    {
      "inputs": [],
      "name": "baseTrackingBorrowSpeed",
      "outputs": [
        {
          "internalType": "uint256",
          "name": "",
          "type": "uint256"
        }
      ],
      "stateMutability": "view",
      "type": "function"
    },
    {
      "inputs": [],
      "name": "baseTrackingSupplySpeed",
      "outputs": [
        {
          "internalType": "uint256",
          "name": "",
          "type": "uint256"
        }
      ],
      "stateMutability": "view",
      "type": "function"
    },
    {
      "inputs": [
        {
          "internalType": "address",
          "name": "account",
          "type": "address"
        }
      ],
      "name": "borrowBalanceOf",
      "outputs": [
        {
          "internalType": "uint256",
          "name": "",
          "type": "uint256"
        }
      ],
      "stateMutability": "view",
      "type": "function"
    },
    {
      "inputs": [],
      "name": "borrowKink",
      "outputs": [
        {
          "internalType": "uint256",
          "name": "",
          "type": "uint256"
        }
      ],
      "stateMutability": "view",
      "type": "function"
    },
    {
      "inputs": [],
      "name": "borrowPerSecondInterestRateBase",
      "outputs": [
        {
          "internalType": "uint256",
          "name": "",
          "type": "uint256"
        }
      ],
      "stateMutability": "view",
      "type": "function"
    },
    {
      "inputs": [],
      "name": "borrowPerSecondInterestRateSlopeHigh",
      "outputs": [
        {
          "internalType": "uint256",
          "name": "",
          "type": "uint256"
        }
      ],
      "stateMutability": "view",
      "type": "function"
    },
    {
      "inputs": [],
      "name": "borrowPerSecondInterestRateSlopeLow",
      "outputs": [
        {
          "internalType": "uint256",
          "name": "",
          "type": "uint256"
        }
      ],
      "stateMutability": "view",
      "type": "function"
    },
    {
      "inputs": [
        {
          "internalType": "address",
          "name": "asset",
          "type": "address"
        },
        {
          "internalType": "uint256",
          "name": "minAmount",
          "type": "uint256"
        },
        {
          "internalType": "uint256",
          "name": "baseAmount",
          "type": "uint256"
        },
        {
          "internalType": "address",
          "name": "recipient",
          "type": "address"
        }
      ],
      "name": "buyCollateral",
      "outputs": [],
      "stateMutability": "nonpayable",
      "type": "function"
    },
    {
      "inputs": [],
      "name": "decimals",
      "outputs": [
        {
          "internalType": "uint8",
          "name": "",
          "type": "uint8"
        }
      ],
      "stateMutability": "view",
      "type": "function"
    },
    {
      "inputs": [],
      "name": "extensionDelegate",
      "outputs": [
        {
          "internalType": "address",
          "name": "",
          "type": "address"
        }
      ],
      "stateMutability": "view",
      "type": "function"
    },
    {
      "inputs": [
        {
          "internalType": "uint8",
          "name": "i",
          "type": "uint8"
        }
      ],
      "name": "getAssetInfo",
      "outputs": [
        {
          "components": [
            {
              "internalType": "uint8",
              "name": "offset",
              "type": "uint8"
            },
            {
              "internalType": "address",
              "name": "asset",
              "type": "address"
            },
            {
              "internalType": "address",
              "name": "priceFeed",
              "type": "address"
            },
            {
              "internalType": "uint64",
              "name": "scale",
              "type": "uint64"
            },
            {
              "internalType": "uint64",
              "name": "borrowCollateralFactor",
              "type": "uint64"
            },
            {
              "internalType": "uint64",
              "name": "liquidateCollateralFactor",
              "type": "uint64"
            },
            {
              "internalType": "uint64",
              "name": "liquidationFactor",
              "type": "uint64"
            },
            {
              "internalType": "uint128",
              "name": "supplyCap",
              "type": "uint128"
            }
          ],
          "internalType": "struct CometCore.AssetInfo",
          "name": "",
          "type": "tuple"
        }
      ],
      "stateMutability": "view",
      "type": "function"
    },
    {
      "inputs": [
        {
          "internalType": "address",
          "name": "asset",
          "type": "address"
        }
      ],
      "name": "getAssetInfoByAddress",
      "outputs": [
        {
          "components": [
            {
              "internalType": "uint8",
              "name": "offset",
              "type": "uint8"
            },
            {
              "internalType": "address",
              "name": "asset",
              "type": "address"
            },
            {
              "internalType": "address",
              "name": "priceFeed",
              "type": "address"
            },
            {
              "internalType": "uint64",
              "name": "scale",
              "type": "uint64"
            },
            {
              "internalType": "uint64",
              "name": "borrowCollateralFactor",
              "type": "uint64"
            },
            {
              "internalType": "uint64",
              "name": "liquidateCollateralFactor",
              "type": "uint64"
            },
            {
              "internalType": "uint64",
              "name": "liquidationFactor",
              "type": "uint64"
            },
            {
              "internalType": "uint128",
              "name": "supplyCap",
              "type": "uint128"
            }
          ],
          "internalType": "struct CometCore.AssetInfo",
          "name": "",
          "type": "tuple"
        }
      ],
      "stateMutability": "view",
      "type": "function"
    },
    {
      "inputs": [
        {
          "internalType": "uint256",
          "name": "utilization",
          "type": "uint256"
        }
      ],
      "name": "getBorrowRate",
      "outputs": [
        {
          "internalType": "uint64",
          "name": "",
          "type": "uint64"
        }
      ],
      "stateMutability": "view",
      "type": "function"
    },
    {
      "inputs": [
        {
          "internalType": "address",
          "name": "asset",
          "type": "address"
        }
      ],
      "name": "getCollateralReserves",
      "outputs": [
        {
          "internalType": "uint256",
          "name": "",
          "type": "uint256"
        }
      ],
      "stateMutability": "view",
      "type": "function"
    },
    {
      "inputs": [
        {
          "internalType": "address",
          "name": "priceFeed",
          "type": "address"
        }
      ],
      "name": "getPrice",
      "outputs": [
        {
          "internalType": "uint256",
          "name": "",
          "type": "uint256"
        }
      ],
      "stateMutability": "view",
      "type": "function"
    },
    {
      "inputs": [],
      "name": "getReserves",
      "outputs": [
        {
          "internalType": "int256",
          "name": "",
          "type": "int256"
        }
      ],
      "stateMutability": "view",
      "type": "function"
    },
    {
      "inputs": [
        {
          "internalType": "uint256",
          "name": "utilization",
          "type": "uint256"
        }
      ],
      "name": "getSupplyRate",
      "outputs": [
        {
          "internalType": "uint64",
          "name": "",
          "type": "uint64"
        }
      ],
      "stateMutability": "view",
      "type": "function"
    },
    {
      "inputs": [],
      "name": "getUtilization",
      "outputs": [
        {
          "internalType": "uint256",
          "name": "",
          "type": "uint256"
        }
      ],
      "stateMutability": "view",
      "type": "function"
    },
    {
      "inputs": [],
      "name": "governor",
      "outputs": [
        {
          "internalType": "address",
          "name": "",
          "type": "address"
        }
      ],
      "stateMutability": "view",
      "type": "function"
    },
    {
      "inputs": [
        {
          "internalType": "address",
          "name": "owner",
          "type": "address"
        },
        {
          "internalType": "address",
          "name": "manager",
          "type": "address"
        }
      ],
      "name": "hasPermission",
      "outputs": [
        {
          "internalType": "bool",
          "name": "",
          "type": "bool"
        }
      ],
      "stateMutability": "view",
      "type": "function"
    },
    {
      "inputs": [],
      "name": "initializeStorage",
      "outputs": [],
      "stateMutability": "nonpayable",
      "type": "function"
    },
    {
      "inputs": [],
      "name": "isAbsorbPaused",
      "outputs": [
        {
          "internalType": "bool",
          "name": "",
          "type": "bool"
        }
      ],
      "stateMutability": "view",
      "type": "function"
    },
    {
      "inputs": [
        {
          "internalType": "address",
          "name": "",
          "type": "address"
        },
        {
          "internalType": "address",
          "name": "",
          "type": "address"
        }
      ],
      "name": "isAllowed",
      "outputs": [
        {
          "internalType": "bool",
          "name": "",
          "type": "bool"
        }
      ],
      "stateMutability": "view",
      "type": "function"
    },
    {
      "inputs": [
        {
          "internalType": "address",
          "name": "account",
          "type": "address"
        }
      ],
      "name": "isBorrowCollateralized",
      "outputs": [
        {
          "internalType": "bool",
          "name": "",
          "type": "bool"
        }
      ],
      "stateMutability": "view",
      "type": "function"
    },
    {
      "inputs": [],
      "name": "isBuyPaused",
      "outputs": [
        {
          "internalType": "bool",
          "name": "",
          "type": "bool"
        }
      ],
      "stateMutability": "view",
      "type": "function"
    },
    {
      "inputs": [
        {
          "internalType": "address",
          "name": "account",
          "type": "address"
        }
      ],
      "name": "isLiquidatable",
      "outputs": [
        {
          "internalType": "bool",
          "name": "",
          "type": "bool"
        }
      ],
      "stateMutability": "view",
      "type": "function"
    },
    {
      "inputs": [],
      "name": "isSupplyPaused",
      "outputs": [
        {
          "internalType": "bool",
          "name": "",
          "type": "bool"
        }
      ],
      "stateMutability": "view",
      "type": "function"
    },
    {
      "inputs": [],
      "name": "isTransferPaused",
      "outputs": [
        {
          "internalType": "bool",
          "name": "",
          "type": "bool"
        }
      ],
      "stateMutability": "view",
      "type": "function"
    },
    {
      "inputs": [],
      "name": "isWithdrawPaused",
      "outputs": [
        {
          "internalType": "bool",
          "name": "",
          "type": "bool"
        }
      ],
      "stateMutability": "view",
      "type": "function"
    },
    {
      "inputs": [
        {
          "internalType": "address",
          "name": "",
          "type": "address"
        }
      ],
      "name": "liquidatorPoints",
      "outputs": [
        {
          "internalType": "uint32",
          "name": "numAbsorbs",
          "type": "uint32"
        },
        {
          "internalType": "uint64",
          "name": "numAbsorbed",
          "type": "uint64"
        },
        {
          "internalType": "uint128",
          "name": "approxSpend",
          "type": "uint128"
        },
        {
          "internalType": "uint32",
          "name": "_reserved",
          "type": "uint32"
        }
      ],
      "stateMutability": "view",
      "type": "function"
    },
    {
      "inputs": [],
      "name": "numAssets",
      "outputs": [
        {
          "internalType": "uint8",
          "name": "",
          "type": "uint8"
        }
      ],
      "stateMutability": "view",
      "type": "function"
    },
    {
      "inputs": [
        {
          "internalType": "bool",
          "name": "supplyPaused",
          "type": "bool"
        },
        {
          "internalType": "bool",
          "name": "transferPaused",
          "type": "bool"
        },
        {
          "internalType": "bool",
          "name": "withdrawPaused",
          "type": "bool"
        },
        {
          "internalType": "bool",
          "name": "absorbPaused",
          "type": "bool"
        },
        {
          "internalType": "bool",
          "name": "buyPaused",
          "type": "bool"
        }
      ],
      "name": "pause",
      "outputs": [],
      "stateMutability": "nonpayable",
      "type": "function"
    },
    {
      "inputs": [],
      "name": "pauseGuardian",
      "outputs": [
        {
          "internalType": "address",
          "name": "",
          "type": "address"
        }
      ],
      "stateMutability": "view",
      "type": "function"
    },
    {
      "inputs": [
        {
          "internalType": "address",
          "name": "asset",
          "type": "address"
        },
        {
          "internalType": "uint256",
          "name": "baseAmount",
          "type": "uint256"
        }
      ],
      "name": "quoteCollateral",
      "outputs": [
        {
          "internalType": "uint256",
          "name": "",
          "type": "uint256"
        }
      ],
      "stateMutability": "view",
      "type": "function"
    },
    {
      "inputs": [],
      "name": "storeFrontPriceFactor",
      "outputs": [
        {
          "internalType": "uint256",
          "name": "",
          "type": "uint256"
        }
      ],
      "stateMutability": "view",
      "type": "function"
    },
    {
      "inputs": [
        {
          "internalType": "address",
          "name": "asset",
          "type": "address"
        },
        {
          "internalType": "uint256",
          "name": "amount",
          "type": "uint256"
        }
      ],
      "name": "supply",
      "outputs": [],
      "stateMutability": "nonpayable",
      "type": "function"
    },
    {
      "inputs": [
        {
          "internalType": "address",
          "name": "from",
          "type": "address"
        },
        {
          "internalType": "address",
          "name": "dst",
          "type": "address"
        },
        {
          "internalType": "address",
          "name": "asset",
          "type": "address"
        },
        {
          "internalType": "uint256",
          "name": "amount",
          "type": "uint256"
        }
      ],
      "name": "supplyFrom",
      "outputs": [],
      "stateMutability": "nonpayable",
      "type": "function"
    },
    {
      "inputs": [],
      "name": "supplyKink",
      "outputs": [
        {
          "internalType": "uint256",
          "name": "",
          "type": "uint256"
        }
      ],
      "stateMutability": "view",
      "type": "function"
    },
    {
      "inputs": [],
      "name": "supplyPerSecondInterestRateBase",
      "outputs": [
        {
          "internalType": "uint256",
          "name": "",
          "type": "uint256"
        }
      ],
      "stateMutability": "view",
      "type": "function"
    },
    {
      "inputs": [],
      "name": "supplyPerSecondInterestRateSlopeHigh",
      "outputs": [
        {
          "internalType": "uint256",
          "name": "",
          "type": "uint256"
        }
      ],
      "stateMutability": "view",
      "type": "function"
    },
    {
      "inputs": [],
      "name": "supplyPerSecondInterestRateSlopeLow",
      "outputs": [
        {
          "internalType": "uint256",
          "name": "",
          "type": "uint256"
        }
      ],
      "stateMutability": "view",
      "type": "function"
    },
    {
      "inputs": [
        {
          "internalType": "address",
          "name": "dst",
          "type": "address"
        },
        {
          "internalType": "address",
          "name": "asset",
          "type": "address"
        },
        {
          "internalType": "uint256",
          "name": "amount",
          "type": "uint256"
        }
      ],
      "name": "supplyTo",
      "outputs": [],
      "stateMutability": "nonpayable",
      "type": "function"
    },
    {
      "inputs": [],
      "name": "targetReserves",
      "outputs": [
        {
          "internalType": "uint256",
          "name": "",
          "type": "uint256"
        }
      ],
      "stateMutability": "view",
      "type": "function"
    },
    {
      "inputs": [],
      "name": "totalBorrow",
      "outputs": [
        {
          "internalType": "uint256",
          "name": "",
          "type": "uint256"
        }
      ],
      "stateMutability": "view",
      "type": "function"
    },
    {
      "inputs": [],
      "name": "totalSupply",
      "outputs": [
        {
          "internalType": "uint256",
          "name": "",
          "type": "uint256"
        }
      ],
      "stateMutability": "view",
      "type": "function"
    },
    {
      "inputs": [
        {
          "internalType": "address",
          "name": "",
          "type": "address"
        }
      ],
      "name": "totalsCollateral",
      "outputs": [
        {
          "internalType": "uint128",
          "name": "totalSupplyAsset",
          "type": "uint128"
        },
        {
          "internalType": "uint128",
          "name": "_reserved",
          "type": "uint128"
        }
      ],
      "stateMutability": "view",
      "type": "function"
    },
    {
      "inputs": [],
      "name": "trackingIndexScale",
      "outputs": [
        {
          "internalType": "uint256",
          "name": "",
          "type": "uint256"
        }
      ],
      "stateMutability": "view",
      "type": "function"
    },
    {
      "inputs": [
        {
          "internalType": "address",
          "name": "dst",
          "type": "address"
        },
        {
          "internalType": "uint256",
          "name": "amount",
          "type": "uint256"
        }
      ],
      "name": "transfer",
      "outputs": [
        {
          "internalType": "bool",
          "name": "",
          "type": "bool"
        }
      ],
      "stateMutability": "nonpayable",
      "type": "function"
    },
    {
      "inputs": [
        {
          "internalType": "address",
          "name": "dst",
          "type": "address"
        },
        {
          "internalType": "address",
          "name": "asset",
          "type": "address"
        },
        {
          "internalType": "uint256",
          "name": "amount",
          "type": "uint256"
        }
      ],
      "name": "transferAsset",
      "outputs": [],
      "stateMutability": "nonpayable",
      "type": "function"
    },
    {
      "inputs": [
        {
          "internalType": "address",
          "name": "src",
          "type": "address"
        },
        {
          "internalType": "address",
          "name": "dst",
          "type": "address"
        },
        {
          "internalType": "address",
          "name": "asset",
          "type": "address"
        },
        {
          "internalType": "uint256",
          "name": "amount",
          "type": "uint256"
        }
      ],
      "name": "transferAssetFrom",
      "outputs": [],
      "stateMutability": "nonpayable",
      "type": "function"
    },
    {
      "inputs": [
        {
          "internalType": "address",
          "name": "src",
          "type": "address"
        },
        {
          "internalType": "address",
          "name": "dst",
          "type": "address"
        },
        {
          "internalType": "uint256",
          "name": "amount",
          "type": "uint256"
        }
      ],
      "name": "transferFrom",
      "outputs": [
        {
          "internalType": "bool",
          "name": "",
          "type": "bool"
        }
      ],
      "stateMutability": "nonpayable",
      "type": "function"
    },
    {
      "inputs": [
        {
          "internalType": "address",
          "name": "",
          "type": "address"
        }
      ],
      "name": "userBasic",
      "outputs": [
        {
          "internalType": "int104",
          "name": "principal",
          "type": "int104"
        },
        {
          "internalType": "uint64",
          "name": "baseTrackingIndex",
          "type": "uint64"
        },
        {
          "internalType": "uint64",
          "name": "baseTrackingAccrued",
          "type": "uint64"
        },
        {
          "internalType": "uint16",
          "name": "assetsIn",
          "type": "uint16"
        },
        {
          "internalType": "uint8",
          "name": "_reserved",
          "type": "uint8"
        }
      ],
      "stateMutability": "view",
      "type": "function"
    },
    {
      "inputs": [
        {
          "internalType": "address",
          "name": "",
          "type": "address"
        },
        {
          "internalType": "address",
          "name": "",
          "type": "address"
        }
      ],
      "name": "userCollateral",
      "outputs": [
        {
          "internalType": "uint128",
          "name": "balance",
          "type": "uint128"
        },
        {
          "internalType": "uint128",
          "name": "_reserved",
          "type": "uint128"
        }
      ],
      "stateMutability": "view",
      "type": "function"
    },
    {
      "inputs": [
        {
          "internalType": "address",
          "name": "",
          "type": "address"
        }
      ],
      "name": "userNonce",
      "outputs": [
        {
          "internalType": "uint256",
          "name": "",
          "type": "uint256"
        }
      ],
      "stateMutability": "view",
      "type": "function"
    },
    {
      "inputs": [
        {
          "internalType": "address",
          "name": "asset",
          "type": "address"
        },
        {
          "internalType": "uint256",
          "name": "amount",
          "type": "uint256"
        }
      ],
      "name": "withdraw",
      "outputs": [],
      "stateMutability": "nonpayable",
      "type": "function"
    },
    {
      "inputs": [
        {
          "internalType": "address",
          "name": "src",
          "type": "address"
        },
        {
          "internalType": "address",
          "name": "to",
          "type": "address"
        },
        {
          "internalType": "address",
          "name": "asset",
          "type": "address"
        },
        {
          "internalType": "uint256",
          "name": "amount",
          "type": "uint256"
        }
      ],
      "name": "withdrawFrom",
      "outputs": [],
      "stateMutability": "nonpayable",
      "type": "function"
    },
    {
      "inputs": [
        {
          "internalType": "address",
          "name": "to",
          "type": "address"
        },
        {
          "internalType": "uint256",
          "name": "amount",
          "type": "uint256"
        }
      ],
      "name": "withdrawReserves",
      "outputs": [],
      "stateMutability": "nonpayable",
      "type": "function"
    },
    {
      "inputs": [
        {
          "internalType": "address",
          "name": "to",
          "type": "address"
        },
        {
          "internalType": "address",
          "name": "asset",
          "type": "address"
        },
        {
          "internalType": "uint256",
          "name": "amount",
          "type": "uint256"
        }
      ],
      "name": "withdrawTo",
      "outputs": [],
      "stateMutability": "nonpayable",
      "type": "function"
    }
  ],
  "bytecode": "0x6106806040523462000346576200001f6200001962000545565b62000785565b604051614d72908162001213823960805181818161061101528181610d680152818161143e01526117fa015260a0518181816108560152610e9e015260c0518181816107fc015281816113bf0152818161162f015281816118630152818161191b01528181612a6e015281816131f2015281816132f201528181613a2501528181613ef20152613ff6015260e051818181611a6001528181612bba015281816144f101526148f7015261010051818181610ede0152614a2f01526101205181818161136d015261258d015261014051818181610f7d015281816125c9015261263301526101605181818161108c01526126630152610180518181816111ec01526125f001526101a051818181611174015261269d01526101c0518181816109f8015281816126d9015261274301526101e05181818161090f0152612773015261020051818181611008015261270001526102205181818161078f01526148bb015261024051818181610cb401528181612be801528181612e82015281816146c5015261492f0152610260518181816113ff015261305e0152610280518181816106c5015261247901526102a05181818161122801526123fc01526102c0518181816111b0015261236301526102e051818181610a7201528181613cc1015261409c015261030051818181610aed0152611a1001526103205181610ab001526103405181818161133001528181611c810152818161219701528181612c1701528181612dc601526145210152610360518161308501526103805181611cd101526103a05181611cb001526103c05181611e1e01526103e05181611dfd01526104005181611e6e01526104205181611e4d01526104405181611ebe01526104605181611e9d01526104805181611f0e01526104a05181611eed01526104c05181611f5e01526104e05181611f3d01526105005181611fae01526105205181611f8d01526105405181611ffe01526105605181611fdd0152610580518161204e01526105a0518161202d01526105c0518161209e01526105e0518161207d015261060051816120ee015261062051816120cd0152610640518161213c0152610660518161211b0152f35b600080fd5b50634e487b7160e01b600052604160045260246000fd5b60e081019081106001600160401b038211176200037e57604052565b620003886200034b565b604052565b601f909101601f19168101906001600160401b038211908210176200037e57604052565b604051906102a082016001600160401b038111838210176200037e57604052565b51906001600160a01b03821682036200034657565b51906001600160401b03821682036200034657565b51906001600160681b03821682036200034657565b519060ff821682036200034657565b81601f8201121562000346578051906001600160401b03821162000535575b604080519360209162000458838660051b01876200038d565b848652828601918360e08097028601019481861162000346578401925b85841062000487575050505050505090565b868483031262000346578251906200049f8262000362565b620004aa85620003d2565b8252620004b9868601620003d2565b86830152620004ca84860162000411565b848301526060620004dd818701620003e7565b908301526080620004f0818701620003e7565b9083015260a062000503818701620003e7565b9083015260c085810151929091906001600160801b038416840362000346578993889382015281520193019262000475565b6200053f6200034b565b6200043f565b62005f8580380380604051926200055d82856200038d565b8339810190602081830312620003465780516001600160401b03918282116200034657016102a081840312620003465762000597620003b1565b92620005a382620003d2565b8452620005b360208301620003d2565b6020850152620005c660408301620003d2565b6040850152620005d960608301620003d2565b6060850152620005ec60808301620003d2565b6080850152620005ff60a08301620003e7565b60a08501526200061260c08301620003e7565b60c08501526200062560e08301620003e7565b60e08501526101006200063a818401620003e7565b908501526101206200064e818401620003e7565b9085015261014062000662818401620003e7565b9085015261016062000676818401620003e7565b908501526101806200068a818401620003e7565b908501526101a06200069e818401620003e7565b908501526101c0620006b2818401620003e7565b908501526101e0620006c6818401620003e7565b90850152610200620006da818401620003e7565b90850152610220620006ee818401620003fc565b9085015261024062000702818401620003fc565b9085015261026062000716818401620003fc565b908501526102809283830151908111620003465762000736920162000420565b9082015290565b908160209103126200034657620007549062000411565b90565b506040513d6000823e3d90fd5b81156200076f570490565b634e487b7160e01b600052601260045260246000fd5b6040818101805190929190620007b290620007a6906001600160a01b031681565b6001600160a01b031690565b9181518093819363313ce56760e01b91828452602093849160049889915afa94851562000bf7575b60009562000bd3575b5060ff8516916012831162000bc3576101a08581018051919790946001600160401b0392909190670de0b6b3a76400009084161162000bb357610280968789019b600f8d51511162000ba3576102208a810180519097919391906001600160681b03161562000b935790600860ff8f9493838f9160608e93019762000876620007a6620007a68b5160018060a01b031690565b93518094819382525afa90811562000b83575b60009162000b4f575b50160362000b3f57620008ec9291620008cc620008dc928e620008bb815160018060a01b031690565b60805201516001600160a01b031690565b60a052516001600160a01b031690565b60c052516001600160a01b031690565b60e05260808901516001600160a01b0316610100908152965162000920906001600160401b03165b6001600160401b031690565b905261032052600a0a1690610240978289526101c093620f42406200095162000914878b015160018060401b031690565b946102609586521062000b325750508751620f4240900461036052516001600160681b039081166102c0526101e0868101516001600160401b039081169096526102008088015187166102a0529887015182166102e05291860151166103005260a0850151841661012090815260c08601516301e13380908616819004861661014090815260e0880151871682900487166101609081529588015187168290048716610180908152928801518716909852968601518516879004851690925291840151831685900483169091529091015181169190910416905280515160ff1661034052805162000a429062000c61565b6103a05261038052805162000a579062000f48565b6103e0526103c052805162000a6c9062000f76565b6104205261040052805162000a819062000fa4565b6104605261044052805162000a969062000fd2565b6104a05261048052805162000aab90620010cb565b6104e0526104c052805162000ac090620010f9565b6105205261050052805162000ad59062001127565b6105605261054052805162000aea9062001156565b6105a05261058052805162000aff9062001185565b6105e0526105c052805162000b1490620011b4565b61062052610600525162000b2890620011e3565b6106605261064052565b51630456c65960e51b8152fd5b8851630456c65960e51b81528e90fd5b62000b749150843d861162000b7b575b62000b6b81836200038d565b8101906200073d565b3862000892565b503d62000b5f565b62000b8d62000757565b62000889565b8851636e77247560e01b81528e90fd5b865163df8153c760e01b81528c90fd5b84516324dc918f60e11b81528a90fd5b8151630456c65960e51b81528790fd5b62000bef919550833d851162000b7b5762000b6b81836200038d565b9338620007e3565b62000c0162000757565b620007da565b6040519060e082016001600160401b0381118382101762000c51575b6040528160c06000918281528260208201528260408201528260608201528260808201528260a08201520152565b62000c5b6200034b565b62000c23565b62000c6b62000c07565b5080511562000f3f576020015180519091906001600160a01b03165b6020838101516001600160a01b03169060409462000ca88682015160ff1690565b936001600160a01b0390811693841562000f2f57169286519263313ce56760e01b808552600860ff600496848189818c5afa90811562000f1f575b60009162000efd575b50160362000eed579060ff91895190815281818781875afa91821562000edd575b60009262000ebb575b5050818716918291160362000eab576060830180519093906001600160401b03165b6080820180519095919062000d56906001600160401b031662000914565b6001600160401b03918216101562000e9b578551670de0b6b3a764000091166001600160401b03161162000e8b575162000dd29062000dbd9062000da79062000dc49083906001600160401b031683565b655af3107a40006001600160401b039091160490565b61ffff1690565b96516001600160401b031690565b60a082015190959062000df39062000dbd906001600160401b031662000da7565b9961ffff808816908716101562000e7e57505060c0015162000e2a916200091491600a9190910a906001600160801b031662000764565b60a092831b61ffff60a01b169190911760b09390931b61ffff60b01b169290921760c09690961b61ffff60c01b1695909517949290921b60ff60a01b161760a89190911b600160a81b600160e81b03161790565b5163327d763960e21b8152fd5b89516304d6b32560e41b81528690fd5b8a5163327d763960e21b81528790fd5b8751630456c65960e51b81528490fd5b62000ed59250803d1062000b7b5762000b6b81836200038d565b388062000d16565b62000ee762000757565b62000d0d565b8851630456c65960e51b81528590fd5b62000f189150853d871162000b7b5762000b6b81836200038d565b3862000cec565b62000f2962000757565b62000ce3565b5050505050509050600090600090565b50600090600090565b62000f5262000c07565b5080516001101562000f3f576040015180519091906001600160a01b031662000c87565b62000f8062000c07565b5080516002101562000f3f576060015180519091906001600160a01b031662000c87565b62000fae62000c07565b5080516003101562000f3f576080015180519091906001600160a01b031662000c87565b9062000fdd62000c07565b50815160049290831015620010c25760a0015180519092906001600160a01b0316602084810151919290916001600160a01b031694604095620010238783015160ff1690565b946001600160a01b03908116918215620010b15716938751600860ff63313ce56760e01b92838152848189818c5afa90811562000f1f5760009162000efd5750160362000eed579060ff91895190815281818781875afa91821562000edd5760009262000ebb575050818716918291160362000eab576060830180519093906001600160401b031662000d38565b505050505050509050600090600090565b50600091508190565b620010d562000c07565b5080516005101562000f3f5760c0015180519091906001600160a01b031662000c87565b6200110362000c07565b5080516006101562000f3f5760e0015180519091906001600160a01b031662000c87565b6200113162000c07565b5080516007101562000f3f57610100015180519091906001600160a01b031662000c87565b6200116062000c07565b5080516008101562000f3f57610120015180519091906001600160a01b031662000c87565b6200118f62000c07565b5080516009101562000f3f57610140015180519091906001600160a01b031662000c87565b620011be62000c07565b508051600a101562000f3f57610160015180519091906001600160a01b031662000c87565b620011ed62000c07565b508051600b101562000f3f57610180015180519091906001600160a01b031662000c8756fe60806040526004361015610018575b610016614a22565b005b60003560e01c8063042e02cf146105545780630902f1ac1461054b5780630bc47ad1146105425780630c340a241461053957806318160ddd14610530578063189bb2f1146105275780631c9f7fb91461051e5780631f5954bd1461051557806323b872dd1461050c57806324a3d6221461050357806326441318146104fa5780632a48cf12146104f15780632b92a07d146104e85780632d05670b146104df5780632e04b8e7146104d6578063300e6beb146104cd578063313ce567146104c457806332176c49146104bb578063374c49b4146104b257806338aa813f146104a95780633b3bec2e146104a057806341976e09146104975780634232cd631461048e578063439e2e451461048557806344c1e5eb1461047c57806344c35d071461047357806344ff241d1461046a57806359e017bd146104615780635a94b8d11461045857806367800b5f1461044f57806370a08231146104465780637914acc71461043d5780637ac88ed1146104345780637eb711311461042b578063804de71f146104225780638285ef40146104195780638d5d814c1461041057806390323177146104075780639241a561146103fe5780639364e18a146103f557806394920cca146103ec5780639ea99a5a146103e35780639fa83b5a146103da5780639ff567f8146103d1578063a1654379146103c8578063a1a1ef43146103bf578063a46fe83b146103b6578063a5b4ff79146103ad578063a9059cbb146103a4578063aba7f15e1461039b578063ad14777c14610392578063bfe69c8d14610389578063c1ee2c1814610380578063c3b35a7e14610377578063c3cecfd21461036e578063c55dae6314610365578063c5fa15cf1461035c578063c8c7fe6b14610353578063cde680411461034a578063d8e5f61114610341578063d955759d14610338578063dc4abafd1461032f578063e478795d14610326578063e4e6e7791461031d578063e7dad6bd14610314578063f2b9fdb81461030b5763f3fef3a30361000e57610306611ac4565b61000e565b50610306611a8f565b50610306611a49565b506103066118b9565b506103066117ce565b5061030661175a565b5061030661173b565b50610306611714565b506103066116fa565b506103066116cf565b5061030661165e565b50610306611618565b506103066115b3565b50610306611591565b5061030661156d565b506103066114cd565b50610306611422565b506103066113e6565b50610306611390565b50610306611354565b50610306611315565b506103066112ee565b506103066112a3565b5061030661127b565b5061030661124b565b5061030661120f565b506103066111d3565b50610306611197565b5061030661115b565b50610306611137565b50610306611110565b506103066110af565b50610306611073565b50610306611057565b5061030661102b565b50610306610fef565b50610306610fc7565b50610306610fa0565b50610306610f64565b50610306610f0d565b50610306610ec7565b50610306610d22565b50610306610c9b565b50610306610c79565b50610306610c57565b50610306610c2f565b50610306610bfa565b50610306610b38565b50610306610b10565b50610306610ad4565b50610306610a95565b50610306610a59565b50610306610a1b565b506103066109df565b50610306610974565b506103066108f6565b506103066108be565b5061030661083f565b506103066107de565b50610306610776565b506103066106e8565b506103066106ac565b50610306610640565b506103066105fa565b506103066105d4565b506103066105b0565b50610306610573565b6001600160a01b0381160361056e57565b600080fd5b503461056e57602036600319011261056e57602061059b6004356105968161055d565b612d66565b6040519015158152f35b600091031261056e57565b503461056e57600036600319011261056e5760206105cc612a19565b604051908152f35b503461056e57600036600319011261056e5760206001805460f81c161515604051908152f35b503461056e57600036600319011261056e576040517f00000000000000000000000000000000000000000000000000000000000000006001600160a01b03168152602090f35b503461056e57600036600319011261056e57602066038d7ea4c680006106a3610667612208565b6001600160681b036001600160401b0361069a6001549361069464ffffffffff91828760d01c169061227d565b166124e4565b50169116611c3e565b04604051908152f35b503461056e57600036600319011261056e5760206040517f00000000000000000000000000000000000000000000000000000000000000008152f35b503461056e576000806003193601126107735764ffffffffff60015460d01c166107625761073e610717612208565b6001805464ffffffffff60d01b191660d09290921b64ffffffffff60d01b16919091179055565b80546001600160801b0319166e038d7ea4c6800000038d7ea4c68000178155604051f35b60405162dc149f60e41b8152600490fd5b80fd5b503461056e57600036600319011261056e5760206040517f00000000000000000000000000000000000000000000000000000000000000008152f35b606090600319011261056e576004356107ca8161055d565b906024356107d78161055d565b9060443590565b503461056e576108226107f0366107b2565b91906107fa61324c565b7f000000000000000000000000000000000000000000000000000000000000000091336139ed565b6000600080516020614d1d83398151915255602060405160018152f35b503461056e57600036600319011261056e576040517f00000000000000000000000000000000000000000000000000000000000000006001600160a01b03168152602090f35b608090600319011261056e5760043561089d8161055d565b906024356108aa8161055d565b906044356108b78161055d565b9060643590565b503461056e576108e26108d036610885565b926108dc92919261324c565b33613ec3565b6000600080516020614d1d83398151915255005b503461056e57600036600319011261056e5760206040517f00000000000000000000000000000000000000000000000000000000000000008152f35b604090600319011261056e5760043561094a8161055d565b906024356109578161055d565b90565b6001600160a01b0316600090815260056020526040902090565b503461056e576109db6109b661098936610932565b9060018060a01b0316600052600660205260406000209060018060a01b0316600052602052604060002090565b54604080516001600160801b038316815260809290921c602083015290918291820190565b0390f35b503461056e57600036600319011261056e5760206040517f00000000000000000000000000000000000000000000000000000000000000008152f35b503461056e57602036600319011261056e57600435610a398161055d565b60018060a01b031660005260046020526020604060002054604051908152f35b503461056e57600036600319011261056e5760206040517f00000000000000000000000000000000000000000000000000000000000000008152f35b503461056e57600036600319011261056e57602060405160ff7f0000000000000000000000000000000000000000000000000000000000000000168152f35b503461056e57600036600319011261056e5760206040517f00000000000000000000000000000000000000000000000000000000000000008152f35b503461056e57602036600319011261056e5760206105cc600435610b338161055d565b6149da565b503461056e57602036600319011261056e57602061059b600435610b5b8161055d565b612b46565b610bf89092919260e08061010083019560ff815116845260018060a01b0380602083015116602086015260408201511660408501526001600160401b036060820151166060850152610bc2608082015160808601906001600160401b03169052565b60a0818101516001600160401b03169085015260c0818101516001600160401b03169085015201516001600160801b0316910152565b565b503461056e57602036600319011261056e576109db610c23600435610c1e8161055d565b612184565b60405191829182610b60565b503461056e57602036600319011261056e5760206105cc600435610c528161055d565b612858565b503461056e576108e2610c69366107b2565b91610c7261324c565b33336131c0565b503461056e576108e2610c8b366107b2565b91610c9461324c565b33336139ed565b503461056e57600036600319011261056e5760206040517f00000000000000000000000000000000000000000000000000000000000000008152f35b60043590811515820361056e57565b60243590811515820361056e57565b60443590811515820361056e57565b60643590811515820361056e57565b60843590811515820361056e57565b503461056e5760a036600319011261056e57610d3c610cd7565b610d44610ce6565b610d4c610cf5565b91610d55610d04565b92610d5e610d13565b60018060a01b03807f0000000000000000000000000000000000000000000000000000000000000000163314159081610e9a575b50610e89577f3be39979091ae7ca962aa1c44e645f2df3c221b79f324afa5f44aedc8d2f690d94610e8492610e4f610dd2610dcc87614cee565b60ff1690565b610de7610dde89614cee565b60011b60fe1690565b17610dfd610df484614cee565b60021b60fc1690565b17610e13610e0a85614cee565b60031b60f81690565b17610e29610e2086614cee565b60041b60f01690565b600180546001600160f81b03169290911760f81b6001600160f81b031916919091179055565b6040519586958693909594919260809360a0860197151586521515602086015215156040850152151560608401521515910152565b0390a1005b6040516282b42960e81b8152600490fd5b90507f00000000000000000000000000000000000000000000000000000000000000001633141538610d92565b503461056e57600036600319011261056e576040517f00000000000000000000000000000000000000000000000000000000000000006001600160a01b03168152602090f35b503461056e57602036600319011261056e57600435610f2b8161055d565b6001600160a01b03166000908152600260209081526040918290205482516001600160801b038216815260809190911c91810191909152f35b503461056e57600036600319011261056e5760206040517f00000000000000000000000000000000000000000000000000000000000000008152f35b503461056e57600036600319011261056e576020600460015460f81c161515604051908152f35b503461056e57602036600319011261056e5760206105cc600435610fea8161055d565b61497c565b503461056e57600036600319011261056e5760206040517f00000000000000000000000000000000000000000000000000000000000000008152f35b503461056e57604036600319011261056e5760206105cc60043561104e8161055d565b60243590614860565b503461056e57600036600319011261056e5760206105cc6127ba565b503461056e57600036600319011261056e5760206040517f00000000000000000000000000000000000000000000000000000000000000008152f35b503461056e57600036600319011261056e57602066038d7ea4c680006106a36110d6612208565b6001600160681b036001600160401b036111036001549361069464ffffffffff91828760d01c169061227d565b9050169160681c16611c3e565b503461056e57600036600319011261056e576020600860015460f81c161515604051908152f35b503461056e576108e261114936610885565b9261115592919261324c565b336131c0565b503461056e57600036600319011261056e5760206040517f00000000000000000000000000000000000000000000000000000000000000008152f35b503461056e57600036600319011261056e5760206040517f00000000000000000000000000000000000000000000000000000000000000008152f35b503461056e57600036600319011261056e5760206040517f00000000000000000000000000000000000000000000000000000000000000008152f35b503461056e57600036600319011261056e5760206040517f00000000000000000000000000000000000000000000000000000000000000008152f35b503461056e57602036600319011261056e57602061126a60043561269b565b6001600160401b0360405191168152f35b503461056e57602036600319011261056e5760206105cc60043561129e8161055d565b612912565b503461056e57602060ff6112e26112b936610932565b6001600160a01b0391821660009081526003865260408082209290931681526020919091522090565b54166040519015158152f35b503461056e57600036600319011261056e576020600260015460f81c161515604051908152f35b503461056e57600036600319011261056e57602060405160ff7f0000000000000000000000000000000000000000000000000000000000000000168152f35b503461056e57600036600319011261056e5760206040517f00000000000000000000000000000000000000000000000000000000000000008152f35b503461056e57604036600319011261056e576108226004356113b18161055d565b6113b961324c565b602435907f00000000000000000000000000000000000000000000000000000000000000009033336139ed565b503461056e57600036600319011261056e5760206040517f00000000000000000000000000000000000000000000000000000000000000008152f35b503461056e57611431366107b2565b91906001600160a01b03907f000000000000000000000000000000000000000000000000000000000000000082163303610e89571691823b1561056e5760405163095ea7b360e01b81526001600160a01b039290921660048301526024820152906000908290604490829084905af180156114c0575b6114ad57005b806114ba61001692611af9565b806105a5565b6114c861284b565b6114a7565b503461056e57602036600319011261056e576100166004356114ee8161055d565b6114f66122c7565b60018060a01b038116600052600560205260406000206115626040519161151c83611b22565b5480600c0b83526001600160401b03808260681c1660208501528160a81c16604084015261155861ffff8260e81c16606085019061ffff169052565b60f81c6080830152565b8051600c0b91612fdb565b503461056e576108e261157f36610885565b9261158b92919261324c565b336139ed565b503461056e576108e26115a3366107b2565b916115ac61324c565b3333613ec3565b503461056e57604036600319011261056e576004356115d18161055d565b602435906001600160401b039081831161056e573660238401121561056e57826004013591821161056e573660248360051b8501011161056e57602461001693019061431c565b503461056e57600036600319011261056e576040517f00000000000000000000000000000000000000000000000000000000000000006001600160a01b03168152602090f35b503461056e57602036600319011261056e5760043561167c8161055d565b60018060a01b0316600052600760205260806040600020546040519063ffffffff811682526001600160401b038160201c1660208301526001600160801b038160601c16604083015260e01c6060820152f35b503461056e57602036600319011261056e5760043560ff8116810361056e57610c236109db91611c70565b503461056e57602061059b61170e36610932565b90614a61565b503461056e57600036600319011261056e576020601060015460f81c161515604051908152f35b503461056e57602036600319011261056e57602061126a60043561258b565b503461056e57602036600319011261056e576004356117788161055d565b60018060a01b0316600052600560205260a06040600020546040519080600c0b82526001600160401b03808260681c1660208401528160a81c16604083015261ffff8160e81c16606083015260f81c6080820152f35b503461056e57604036600319011261056e576004356117ec8161055d565b602435906001600160a01b037f000000000000000000000000000000000000000000000000000000000000000081163303610e8957611829612a19565b600081129081156118a7575b506118955781611887847fec4431f2ba1a9382f6b0c4352b888cba6f7db91667d9f776abe5ad8ddc5401b6947f00000000000000000000000000000000000000000000000000000000000000006140d6565b6040519384521691602090a2005b60405163128bd24d60e31b8152600490fd5b6118b19150614ce3565b831138611835565b503461056e57608036600319011261056e576004356118d78161055d565b606435906118e48261055d565b6118ec61324c565b601060015460f81c16611a3757611901612a19565b60008112159081611a0c575b506119fa5761193f604435337f0000000000000000000000000000000000000000000000000000000000000000613531565b9061194a8282614860565b9260243584106119e85761195d82612912565b8411611895577ff891b2a411b0e66a5f0a6ff1368670fefa287a13f541eb633a386a1a9cc7046b916119ab6119ce926119a461199888614c3c565b6001600160801b031690565b90836140d6565b6040805194855260208501959095526001600160a01b0316933393918291820190565b0390a36100166000600080516020614d1d83398151915255565b60405163fa6ad35560e01b8152600490fd5b604051631d99ddbf60e01b8152600490fd5b90507f000000000000000000000000000000000000000000000000000000000000000011153861190d565b6040516313d0ff5960e31b8152600490fd5b503461056e57600036600319011261056e576040517f00000000000000000000000000000000000000000000000000000000000000006001600160a01b03168152602090f35b503461056e57604036600319011261056e576108e2600435611ab08161055d565b611ab861324c565b602435903333336131c0565b503461056e57604036600319011261056e576108e2600435611ae58161055d565b611aed61324c565b60243590333333613ec3565b6001600160401b038111611b0c57604052565b634e487b7160e01b600052604160045260246000fd5b60a081019081106001600160401b03821117611b0c57604052565b90601f801991011681019081106001600160401b03821117611b0c57604052565b6040519061010082018281106001600160401b03821117611b0c57604052565b6040519061010082018281106001600160401b03821117611b0c576040528160e06000918281528260208201528260408201528260608201528260808201528260a08201528260c08201520152565b50634e487b7160e01b600052601260045260246000fd5b50634e487b7160e01b600052601160045260246000fd5b66038d7ea4c68000908060001904821181151516611c17570290565b611c1f611be4565b0290565b655af3107a4000908060001904821181151516611c17570290565b8060001904821181151516611c17570290565b60ff16604d8111611c63575b600a0a90565b611c6b611be4565b611c5d565b611c78611b7e565b5060ff811660ff7f0000000000000000000000000000000000000000000000000000000000000000168110156121725780611df257507f00000000000000000000000000000000000000000000000000000000000000007f00000000000000000000000000000000000000000000000000000000000000005b61ffff808260a01c16611d0390611c23565b6001600160401b0316818360b01c16611d1b90611c23565b6001600160401b0316918360c01c16611d3390611c23565b6001600160401b0316928460a01c60ff16611d4d90611c51565b6001600160401b031690611d716001600160401b038084169060a889901c16611c3e565b6001600160801b031695611d83611b5e565b60ff90981688526001600160a01b039182166020890152166001600160a01b031660408701526001600160401b031660608601526001600160401b031660808501526001600160401b031660a08401526001600160401b031660c08301526001600160801b031660e082015290565b60018103611e4257507f00000000000000000000000000000000000000000000000000000000000000007f0000000000000000000000000000000000000000000000000000000000000000611cf1565b60028103611e9257507f00000000000000000000000000000000000000000000000000000000000000007f0000000000000000000000000000000000000000000000000000000000000000611cf1565b60038103611ee257507f00000000000000000000000000000000000000000000000000000000000000007f0000000000000000000000000000000000000000000000000000000000000000611cf1565b60048103611f3257507f00000000000000000000000000000000000000000000000000000000000000007f0000000000000000000000000000000000000000000000000000000000000000611cf1565b60058103611f8257507f00000000000000000000000000000000000000000000000000000000000000007f0000000000000000000000000000000000000000000000000000000000000000611cf1565b60068103611fd257507f00000000000000000000000000000000000000000000000000000000000000007f0000000000000000000000000000000000000000000000000000000000000000611cf1565b6007810361202257507f00000000000000000000000000000000000000000000000000000000000000007f0000000000000000000000000000000000000000000000000000000000000000611cf1565b6008810361207257507f00000000000000000000000000000000000000000000000000000000000000007f0000000000000000000000000000000000000000000000000000000000000000611cf1565b600981036120c257507f00000000000000000000000000000000000000000000000000000000000000007f0000000000000000000000000000000000000000000000000000000000000000611cf1565b600a810361211257507f00000000000000000000000000000000000000000000000000000000000000007f0000000000000000000000000000000000000000000000000000000000000000611cf1565b600b03612160577f00000000000000000000000000000000000000000000000000000000000000007f0000000000000000000000000000000000000000000000000000000000000000611cf1565b60405163971241a160e01b8152600490fd5b604051633640530560e01b8152600490fd5b9061218d611b7e565b5060009060ff92837f000000000000000000000000000000000000000000000000000000000000000016925b83858216106121d457604051633640530560e01b8152600490fd5b6121dd81611c70565b60208101516001600160a01b038481169116146121ff575060010184166121b9565b93505050915090565b650100000000004210156122215764ffffffffff421690565b604051633d32ffdb60e01b8152600490fd5b9060405161224081611b22565b608081935480600c0b83526001600160401b03808260681c1660208501528160a81c16604084015261ffff8160e81c16606084015260f81c910152565b64ffffffffff9182169116818110612293570390565b61229b611be4565b0390565b906001600160401b0380809316911680920381116122bb570190565b6122c3611be4565b0190565b6122cf612208565b6122f96122ef6122e960015464ffffffffff9060d01c1690565b8361227d565b64ffffffffff1690565b9081612303575050565b8161235e612342612316610bf8956124e4565b91909167ffffffffffffffff60401b6000549160401b169067ffffffffffffffff60401b191617600055565b6001600160401b03166001600160401b03196000541617600055565b6001547f000000000000000000000000000000000000000000000000000000000000000091906001600160681b031682811015612466575b506001546123b79060681c6001600160681b03165b6001600160681b031690565b918210156123e9575b50506001805464ffffffffff60d01b191660d09290921b64ffffffffff60d01b16919091179055565b61242a61242561245f9361242061243a947f0000000000000000000000000000000000000000000000000000000000000000611c3e565b612e7c565b614bf0565b60005460c01c61229f565b61229f565b600080546001600160c01b031660c09290921b6001600160c01b031916919091179055565b38806123c0565b6124b161249d6124256124de93612420867f0000000000000000000000000000000000000000000000000000000000000000611c3e565b60005460801c6001600160401b031661229f565b6000805467ffffffffffffffff60801b191660809290921b67ffffffffffffffff60801b16919091179055565b38612396565b906000546001600160401b0392838083169260401c169381612507575b50509190565b8161255a612554612534979461256661256c976125608761253b6125609961252d6127ba565b9e8f61258b565b169d61269b565b169b61255a612554670de0b6b3a7640000998a93611c3e565b84611c3e565b04614bf0565b9061229f565b98611c3e565b913880612501565b811981116122bb570190565b818110612293570390565b7f00000000000000000000000000000000000000000000000000000000000000008082116126145750612425670de0b6b3a76400006125ed610957937f0000000000000000000000000000000000000000000000000000000000000000611c3e565b047f0000000000000000000000000000000000000000000000000000000000000000612574565b6109579161242591612687670de0b6b3a764000091612657836125ed837f0000000000000000000000000000000000000000000000000000000000000000611c3e565b9381811061268e575b037f0000000000000000000000000000000000000000000000000000000000000000611c3e565b0490612574565b612696611be4565b612660565b7f00000000000000000000000000000000000000000000000000000000000000008082116127245750612425670de0b6b3a76400006126fd610957937f0000000000000000000000000000000000000000000000000000000000000000611c3e565b047f0000000000000000000000000000000000000000000000000000000000000000612574565b6109579161242591612687670de0b6b3a764000091612767836126fd837f0000000000000000000000000000000000000000000000000000000000000000611c3e565b93818110612797575b037f0000000000000000000000000000000000000000000000000000000000000000611c3e565b61279f611be4565b612770565b81156127ae570490565b6127b6611bcd565b0490565b6000546001546127fc66038d7ea4c68000916001600160401b036001600160681b0390846127ec828816848616611c3e565b049560401c169160681c16611c3e565b0481612809575050600090565b670de0b6b3a764000090806000190482118115151661282757020490565b61282f611be4565b020490565b519069ffffffffffffffffffff8216820361056e57565b506040513d6000823e3d90fd5b604051633fabe5a360e21b81529060a090829060049082906001600160a01b03165afa9081156128f6575b6000916128aa575b5060008113156128985790565b60405163fd1ee34960e01b8152600490fd5b9060a0823d82116128ee575b816128c360a09383611b3d565b8101031261077357506128d581612834565b506128e7608060208301519201612834565b503861288b565b3d91506128b6565b6128fe61284b565b612883565b9081602091031261056e575190565b6040516370a0823160e01b8152306004820152906001600160a01b0316602082602481845afa91821561299c575b60009261296c575b5060005260026020526001600160801b036040600020541690818110612293570390565b61298e91925060203d8111612995575b6129868183611b3d565b810190612903565b9038612948565b503d61297c565b6129a461284b565b612940565b600082128015600160ff1b84018312166129d3575b6001600160ff1b038301821316612293570390565b6129db611be4565b6129be565b6000811280156001600160ff1b03839003841316612a0c575b600160ff1b8290038312166122bb570190565b612a14611be4565b6129f9565b610957612a24612208565b612a47612a426122ef6001549364ffffffffff8560d01c169061227d565b6124e4565b6040516370a0823160e01b8152306004820152929091906020846024816001600160a01b037f0000000000000000000000000000000000000000000000000000000000000000165afa938415612b39575b600094612b01575b5091612af5612aef612aef93612ae8612afb9666038d7ea4c68000926001600160401b0384612adb826001600160681b039416848616611c3e565b0497169160681c16611c3e565b0495614c97565b91614c97565b906129a9565b906129e0565b612afb93919450612aef612aef93612ae8612b2c612af59460203d8111612995576129868183611b3d565b9794965050935050612aa0565b612b4161284b565b612a98565b90612b6d612b668360018060a01b03166000526005602052604060002090565b54600c0b90565b906000928383600c0b1215612d5d57612c0e612bb5612baf612ba48496959660018060a01b03166000526005602052604060002090565b5460e81c61ffff1690565b93614aa9565b612bde7f0000000000000000000000000000000000000000000000000000000000000000612858565b6001600160401b037f00000000000000000000000000000000000000000000000000000000000000001691612ec6565b90849360ff95867f000000000000000000000000000000000000000000000000000000000000000016955b8781169087821015612d4f5790889161ffff600180931b891616612c5f575b0116612c39565b9590915082811215612d435790612d3d8992612afb612d3888612d32612d266080612d17612cdd8f612cb2612c96612cd092611c70565b6001600160a01b03909816600090815260066020526040902090565b6020888101516001600160a01b031660009081529190526040902090565b546001600160801b031690565b6040860151612cf4906001600160a01b0316612858565b6001600160801b03612d1060608901516001600160401b031690565b9216612ea7565b9301516001600160401b031690565b6001600160401b031690565b90612e69565b614c97565b95612c58565b50955050945050505090565b505094509450509050121590565b50915050600190565b90612d86612b668360018060a01b03166000526005602052604060002090565b906000928383600c0b1215612e6457612dbd612bb5612baf612ba48496959660018060a01b03166000526005602052604060002090565b90849360ff95867f000000000000000000000000000000000000000000000000000000000000000016955b8781169087821015612e575790889161ffff600180931b891616612e0e575b0116612de8565b9590915082811215612e4b5790612e458992612afb612d3888612d32612d2660a0612d17612cdd8f612cb2612c96612cd092611c70565b95612e07565b50509450945050505090565b5050945094505090501290565b509050565b670de0b6b3a7640000916127b691611c3e565b6127a4907f000000000000000000000000000000000000000000000000000000000000000090611c3e565b6001600160401b0391612eb991611c3e565b91169081156127ae570490565b9190612ed96001600160401b0391614c97565b6000808513949082136001600160ff1b03868216848204841116612f8a575b600160ff1b96600085129185918316858a05831216612f7d575b60008512938416828a05861216612f70575b058312911616612f63575b029116918215612f56575b8114600019831416612f4a570590565b612f52611be4565b0590565b612f5e611bcd565b612f3a565b612f6b611be4565b612f2f565b612f78611be4565b612f24565b612f85611be4565b612f12565b612f92611be4565b612ef8565b6001600160401b039182169116818110612293570390565b600c0b6c7fffffffffffffffffffffffff198114612fce575b60000390565b612fd6611be4565b612fc8565b6130fa90610bf893612fee8451600c0b90565b600c82900b855260009182918683600c83900b81136131805761308361305c6130d0946001600160681b03613055612d266130aa9761304f60206130406124259a546001600160401b039060801c1690565b9201516001600160401b031690565b90612f97565b9116611c3e565b7f0000000000000000000000000000000000000000000000000000000000000000906127a4565b7f0000000000000000000000000000000000000000000000000000000000000000906127a4565b6130c3604089019161243583516001600160401b031690565b6001600160401b03169052565b600c0b12613173575461095a9060801c6001600160401b03165b6001600160401b03166020850152565b815160208301516040840151606085015160809095015160e89590951b61ffff60e81b1660a89190911b67ffffffffffffffff60a81b166001600160681b0390931660689290921b67ffffffffffffffff60681b169190911791909117176001600160f81b031960f89390931b92909216919091179055565b5461095a9060c01c6130ea565b61308361305c6131bb946131b66123ab6123ab6131b0612d266130aa9961304f60206130406124259c5460c01c90565b93612faf565b611c3e565b6130d0565b939290936001805460f81c16611a37576131dd6131e19186614a61565b1590565b610e89576001600160a01b038181167f0000000000000000000000000000000000000000000000000000000000000000909116036132385750610bf89260001983036132e7579150613232816149da565b916132e7565b90613246610bf89493614c3c565b9261373e565b600080516020614d1d833981519152600181541461326a5760019055565b60405163139b643560e21b8152600490fd5b906001600160681b0380809316911680920381116122bb570190565b6001600160681b039182169116818110612293570390565b600180546cffffffffffffffffffffffffff60681b191660689290921b6cffffffffffffffffffffffffff60681b16919091179055565b6133166133cd9293827f0000000000000000000000000000000000000000000000000000000000000000613531565b61331e6122c7565b6001600160a01b03841660009081526005602052604090206133d89061334890612233565b612233565b8051600c0b906133d261337861337161336c61336386614aa9565b612afb89614c97565b614b40565b80946134b7565b97906133b46133988a6133936001546001600160681b031690565b61327c565b6001600160681b03166001600160681b03196001541617600155565b60015460681c6001600160681b0316613298565b613298565b6132b0565b86612fdb565b6040519081526001600160a01b0393841693849216907fd1cf3d156d5f8f0d50f6c122ed609cec09d35c9b9fb3fff6ea0959134dae424e90602090a36001600160681b038116613426575050565b600080516020614cfd83398151915261346461345460009361344f85546001600160401b031690565b614b1b565b6040519081529081906020820190565b0390a3565b600c91820b910b6000821280156c7fffffffffffffffffffffffff1984018312166134aa575b826c7fffffffffffffffffffffffff01821316612293570390565b6134b2611be4565b61348f565b91909180600c0b83600c0b818112613524576000126134ea57506134db9192613469565b6001600160681b031690600090565b60001361350b576134fb9192613469565b6001600160681b03169060009190565b61351490612faf565b6001600160681b03908116921690565b5050509050600090600090565b6040516370a0823160e01b8082523060048301529390926020926001600160a01b031691908385602481865afa948515613691575b600095613672575b50823b1561056e576040516323b872dd60e01b81526001600160a01b03919091166004820152306024820152604481019190915260008160648183865af18015613665575b613652575b503d8015613649576020146135cc57600080fd5b816000803e6000515b156136375760405193845230600485015261095793908290829060249082905afa91821561362a575b60009261360d575b5050612580565b6136239250803d10612995576129868183611b3d565b3880613606565b61363261284b565b6135fe565b60405163073d1efd60e51b8152600490fd5b506000196135d5565b806114ba61365f92611af9565b386135b8565b61366d61284b565b6135b3565b61368a919550843d8611612995576129868183611b3d565b933861356e565b61369961284b565b613566565b90604051604081018181106001600160401b03821117611b0c5760405291546001600160801b038116835260801c6020830152565b906001600160801b0380809316911680920381116122bb570190565b906001600160801b03166001600160801b0319825416179055565b9060206001600160801b039161372383825116856136ef565b0151908254916001600160801b03199060801b169116179055565b91909261375e6137596001600160801b038093168585613531565b614c3c565b9161376881612184565b9061378d6137888260018060a01b03166000526002602052604060002090565b61369e565b926137b86137ab866137a687516001600160801b031690565b6136d3565b6001600160801b03168552565b83516001600160801b0316906137db61199860e08601516001600160801b031690565b9116116138d7576138a7613882856138d2946138a17ffa56f7b24f17183d81894d3ac2ee654e3c26388d17a28dbd9549b8114304e1f49761389c876138408e61385e613857612cd0856138408560018060a01b03166000526006602052604060002090565b9060018060a01b0316600052602052604060002090565b98896136d3565b98899561387d8560018060a01b03166000526002602052604060002090565b61370a565b6001600160a01b0316600090815260066020526040902090565b6136ef565b896138e9565b6040516001600160801b0390941684526001600160a01b039081169581169416929081906020820190565b0390a4565b604051637ac7b99d60e11b8152600490fd5b909290916001600160801b039081161580806139e2575b156139685750505061394061392460ff610bf8945116600160ff61ffff92161b1690565b6001600160a01b03909216600090815260056020526040902090565b805461ffff60e81b19811660e891821c61ffff16909317901b61ffff60e81b16919091179055565b1591826139d7575b505061397a575050565b61ffff6139b361399960ff610bf8955116600160ff61ffff92161b1690565b199260018060a01b03166000526005602052604060002090565b91825460e81c161681549061ffff60e81b9060e81b169061ffff60e81b1916179055565b161590503880613970565b508183161515613900565b93929093600260015460f81c16611a37576131dd613a0b9186614a61565b610e89576001600160a01b0384811683821614613a8357807f00000000000000000000000000000000000000000000000000000000000000001690821614600014613a6f5750610bf8926000198303613aa6579150613a698261497c565b91613aa6565b90613a7d610bf89493614c3c565b92613d84565b60405163e397a99b60e01b8152600490fd5b600160ff1b8114612fce5760000390565b919091613ab16122c7565b6001600160a01b0381166000908152600560205260409020613ad290612233565b6001600160a01b0384166000908152600560205260409020613af390612233565b928151613b0090600c0b90565b938051613b0d90600c0b90565b92613b1786614aa9565b613b2084614c97565b613b29916129a9565b92613b3385614aa9565b90613b3d90614c97565b613b46916129e0565b90613b5084614b40565b613b5a8193614b40565b978893613b6691613d1f565b98613b7191976134b7565b98878a600154613b87906001600160681b031690565b90613b919161327c565b90613b9b91613298565b613bbb906001600160681b03166001600160681b03196001541617600155565b60015460681c6001600160681b031690613bd49161327c565b90613bde91613298565b613be7906132b0565b613bf19187612fdb565b613bfb9187612fdb565b60008112613cb6575b506001600160681b0391828216613c67575b50508116613c22575050565b600080516020614cfd833981519152613464613c4b60009361344f85546001600160401b031690565b6040519081526001600160a01b03909416939081906020820190565b600080516020614cfd833981519152613cac613c9060009461344f86546001600160401b031690565b6040519081526001600160a01b03909316929081906020820190565b0390a33880613c16565b613cbf90613a95565b7f000000000000000000000000000000000000000000000000000000000000000011613d0d57613cf16131dd83612b46565b613cfb5738613c04565b604051630a62fbdb60e11b8152600490fd5b604051637139da2360e11b8152600490fd5b919082600c0b81600c0b81811361352457600013613d4257506134db9192613469565b600012613d53576134fb9192613469565b613d5c90612faf565b6001600160681b03928316921690565b6001600160801b039182169116818110612293570390565b6001600160a01b0381811660008181526006602081815260408084208987168086529083528185205489881686529383528185209085529091529091205494969591946001600160801b039492939291908516908516613de48882613d6c565b91613def89826136d3565b918387613e0e8760018060a01b03166000526006602052604060002090565b6001600160a01b0390911660009081526020919091526040902090613e32916136ef565b6001600160a01b038b81166000908152600660209081526040808320938b16835292905220613e629084906136ef565b613e6b87612184565b93613e779185876138e9565b613e81928a6138e9565b613e8a90612b46565b15613cfb57806020927f29db89d45e1a802b4d55e202984fce9faf1d30aedf86503ff1ea0ed9ebb64201946040519716875216951693a4565b93929093600460015460f81c16611a37576131dd613ee19186614a61565b610e89576001600160a01b038181167f000000000000000000000000000000000000000000000000000000000000000090911603613f385750610bf8926000198303613f4c579150613f328261497c565b91613f4c565b90613f46610bf89493614c3c565b92614187565b90916133cd92613f5a6122c7565b6001600160a01b0383166000908152600560205260409020613f7b90612233565b613fe5613f898251600c0b90565b613f9e613f9582614aa9565b612af587614c97565b926133d2613fb5613fae86614b40565b8094613d1f565b613fd1613398836133c860019e959e546001600160681b031690565b60015460681c6001600160681b031661327c565b60008112614091575b5061401a82827f00000000000000000000000000000000000000000000000000000000000000006140d6565b6040519182526001600160a01b0392831692169082907f9b1bfa7fa9ee420a16e124f794c35ac9f90472acc99140eb2f6447c714cad8eb90602090a36001600160681b038216614068575050565b600080516020614cfd83398151915261346461345460009461344f86546001600160401b031690565b61409a90613a95565b7f000000000000000000000000000000000000000000000000000000000000000011613d0d576140cc6131dd84612b46565b613cfb5738613fee565b9092916001600160a01b0390911690813b1561056e5760405163a9059cbb60e01b81526001600160a01b0394909416600485015260248401526000929083908290604490829084905af1801561417a575b61416b575b503d80156141605760201461413f575080fd5b90602081803e515b1561414e57565b60405163cefaffeb60e01b8152600490fd5b509050600019614147565b61417490611af9565b3861412c565b61418261284b565b614127565b909260018060a01b0391828116928360005260066020526142406001600160801b0392610b5b846141ce8960406000209060018060a01b0316600052602052604060002090565b54166141da8782613d6c565b9061420d6141fa8b60018060a01b03166000526002602052604060002090565b6142078a8a835416613d6c565b906136ef565b6142318261389c8c6138408860018060a01b03166000526006602052604060002090565b61423a8a612184565b846138e9565b15613cfb57806020927fd6d480d5b3068db003533b170d67561494d72e3bf9fa40a266471351ebba9e169416956142788789836140d6565b60405196875216951693a4565b91908110156142955760051b0190565b634e487b7160e01b600052603260045260246000fd5b356109578161055d565b90604051608081016001600160401b0382821081831117611b0c576060916040528294549063ffffffff821684528160201c1660208401526001600160801b0381831c16604084015260e01c910152565b60019063ffffffff8091169081146122bb570190565b9291909260016008815460f81c16611a37575a946143386122c7565b60005b84811061446f5750505061440f906143f56143cf613759614361610bf897985a90612580565b6143c86143af61438b6143868860018060a01b03166000526007602052604060002090565b6142b5565b986124256143a56143a08c5163ffffffff1690565b614306565b63ffffffff168b52565b6130c360208a019161243583516001600160401b031690565b4890611c3e565b6143e860408601916137a683516001600160801b031690565b6001600160801b03169052565b6001600160a01b0316600090815260076020526040902090565b815160208084015160408501516060958601516001600160e01b031960e09190911b166fffffffffffffffffffffffffffffffff60601b9190961b1663ffffffff9093166bffffffffffffffff000000009190921b161717919091179055565b8061448d61448761448286948987614285565b6142ab565b86614493565b0161433b565b916144a06131dd83612d66565b61484e57906144c46133438260018060a01b03166000526005602052604060002090565b906144d08251600c0b90565b936144da85614aa9565b926060906144ec8282015161ffff1690565b6145157f0000000000000000000000000000000000000000000000000000000000000000612858565b96600092839860ff9a8b7f0000000000000000000000000000000000000000000000000000000000000000169a5b8c8116908c8210156146a057908d91898c8c61ffff600180961b8c161661456f575b5050500116614543565b90919a61457b84611c70565b6020818101516001600160a01b0386811660009081526006845260408082209290931680825291845282812080546001600160801b03198116909155600290945291909120805493946001600160801b0393841694929390926145e091869116613d6c565b6145e9916136ef565b604084810151909f906001600160a01b031661460490612858565b908501516001600160401b0316614624916001600160801b038616612ea7565b60c0949094015161463e906001600160401b031685612e69565b61464791612574565b9d516001600160801b0392909216825260208201929092526001600160a01b0391821693821692909116907f9850ab1af75177e4a9201c65a2cf7976d5d28e40ef63494b44366f86b2f9412e90604090a4898c8c614565565b50509497969950945096915097506146f76146f1612d38856146ec6001600160401b037f000000000000000000000000000000000000000000000000000000000000000016809a611c3e565b6127a4565b826129e0565b9160008312614845575b61470a83614b40565b96876147169187612fdb565b6001600160a01b03851660009081526005602052604090208790805461ffff60e81b19169055614745916134b7565b6001546001600160681b03169061475b9161327c565b61477b906001600160681b03166001600160681b03196001541617600155565b60015460681c6001600160681b03169061479491613298565b61479d906132b0565b6147a6916129a9565b6147af90614ce3565b926147ba9184612ea7565b6040805193845260208401919091526001600160a01b039182169485939216917f1547a878dc89ad3c367b6338b4be6a65a5dd74fb77ae044da1e8747ef1f4f62f9190a380600c0b60001261480d575050565b600080516020614cfd83398151915261346461345460009361483f61483986546001600160401b031690565b91614cba565b90614b1b565b60009250614701565b604051636ef5bcdd60e11b8152600490fd5b9061492561487061095793612184565b6148f0606061491b61488d60018060a01b03604086015116612858565b6001600160401b039384918260c0880151166148df670de0b6b3a764000094828693841061496f575b8303167f0000000000000000000000000000000000000000000000000000000000000000611c3e565b04808410614962575b830390611c3e565b04956131b67f0000000000000000000000000000000000000000000000000000000000000000612858565b9201511690611c3e565b908015614955575b7f000000000000000000000000000000000000000000000000000000000000000091046127a4565b61495d611bcd565b61492d565b61496a611be4565b6148e8565b614977611be4565b6148b6565b61499f614987612208565b61069464ffffffffff918260015460d01c169061227d565b506001600160a01b03909116600090815260056020526040812054600c0b9190808313156149d4575061483f61095792614cba565b91505090565b6149e5614987612208565b6001600160a01b03909216600090815260056020526040812054600c0b929150808312156149d4575061483f614a1d61095793612faf565b614cba565b50600036818037808036817f00000000000000000000000000000000000000000000000000000000000000005af43d82803e15614a5d573d90f35b3d90fd5b6001600160a01b03808316911690811491908215614a7e57505090565b60009081526003602090815260408083206001600160a01b0390941683529290522060ff9150541690565b6000600c82900b12614ae55766038d7ea4c68000614adf610957926001600160401b0360005416906001600160681b0316611c3e565b04614c97565b614b16612d3861095792614b076001600160401b0360005460401c1691612faf565b6001600160681b031690614b1b565b613a95565b66038d7ea4c68000916001600160681b036001600160401b036127b693169116611c3e565b60008112614b8357614b7161095791614b646001600160401b036000541691611bfb565b8115614b76575b04614c16565b614c62565b614b7e611bcd565b614b6b565b614bd1614b71614bad614bb761095794614bb26001600160401b0360005460401c16938492613a95565b611bfb565b612574565b60018110614be3575b8115614bd6575b6000190104614c16565b612faf565b614bde611bcd565b614bc7565b614beb611be4565b614bc0565b6001600160401b0390818111614c04571690565b6040516372a1cb5160e11b8152600490fd5b6001600160681b0390818111614c2a571690565b604051630dc7925560e11b8152600490fd5b6001600160801b0390818111614c50571690565b60405163762ea71160e11b8152600490fd5b6001600160681b03166c7fffffffffffffffffffffffff8111614c8557600c0b90565b604051639369ae3560e01b8152600490fd5b6001600160ff1b038111614ca85790565b60405163e7e828ad60e01b8152600490fd5b600081600c0b12614cd1576001600160681b031690565b60405163363b64b760e11b8152600490fd5b60008112614cd15790565b60009015610957575060019056feddf252ad1be2c89b69c2b068fc378daa952ba7f163c4a11628f55a4df523b3efc98c7730ba19013824f711a9ab74801459b27e6ff7685cb924587c89aeda53aca26469706673582212208a5f39059aa35623d39392b1c5a8974900786005ca6abb451d2262217ffb408c64736f6c634300080f0033",
  "linkReferences": {},
  "deployedLinkReferences": {}
}