{
  "_format": "hh-sol-artifact-1",
  "contractName": "CometWithExtendedAssetList",
  "sourceName": "contracts/CometWithExtendedAssetList.sol",
  "abi": [
    {
      "inputs": [
        {
          "components": [
            {
              "internalType": "address",
              "name": "governor",
              "type": "address"
            },
            {
              "internalType": "address",
              "name": "pauseGuardian",
              "type": "address"
            },
            {
              "internalType": "address",
              "name": "baseToken",
              "type": "address"
            },
            {
              "internalType": "address",
              "name": "baseTokenPriceFeed",
              "type": "address"
            },
            {
              "internalType": "address",
              "name": "extensionDelegate",
              "type": "address"
            },
            {
              "internalType": "uint64",
              "name": "supplyKink",
              "type": "uint64"
            },
            {
              "internalType": "uint64",
              "name": "supplyPerYearInterestRateSlopeLow",
              "type": "uint64"
            },
            {
              "internalType": "uint64",
              "name": "supplyPerYearInterestRateSlopeHigh",
              "type": "uint64"
            },
            {
              "internalType": "uint64",
              "name": "supplyPerYearInterestRateBase",
              "type": "uint64"
            },
            {
              "internalType": "uint64",
              "name": "borrowKink",
              "type": "uint64"
            },
            {
              "internalType": "uint64",
              "name": "borrowPerYearInterestRateSlopeLow",
              "type": "uint64"
            },
            {
              "internalType": "uint64",
              "name": "borrowPerYearInterestRateSlopeHigh",
              "type": "uint64"
            },
            {
              "internalType": "uint64",
              "name": "borrowPerYearInterestRateBase",
              "type": "uint64"
            },
            {
              "internalType": "uint64",
              "name": "storeFrontPriceFactor",
              "type": "uint64"
            },
            {
              "internalType": "uint64",
              "name": "trackingIndexScale",
              "type": "uint64"
            },
            {
              "internalType": "uint64",
              "name": "baseTrackingSupplySpeed",
              "type": "uint64"
            },
            {
              "internalType": "uint64",
              "name": "baseTrackingBorrowSpeed",
              "type": "uint64"
            },
            {
              "internalType": "uint104",
              "name": "baseMinForRewards",
              "type": "uint104"
            },
            {
              "internalType": "uint104",
              "name": "baseBorrowMin",
              "type": "uint104"
            },
            {
              "internalType": "uint104",
              "name": "targetReserves",
              "type": "uint104"
            },
            {
              "components": [
                {
                  "internalType": "address",
                  "name": "asset",
                  "type": "address"
                },
                {
                  "internalType": "address",
                  "name": "priceFeed",
                  "type": "address"
                },
                {
                  "internalType": "uint8",
                  "name": "decimals",
                  "type": "uint8"
                },
                {
                  "internalType": "uint64",
                  "name": "borrowCollateralFactor",
                  "type": "uint64"
                },
                {
                  "internalType": "uint64",
                  "name": "liquidateCollateralFactor",
                  "type": "uint64"
                },
                {
                  "internalType": "uint64",
                  "name": "liquidationFactor",
                  "type": "uint64"
                },
                {
                  "internalType": "uint128",
                  "name": "supplyCap",
                  "type": "uint128"
                }
              ],
              "internalType": "struct CometConfiguration.AssetConfig[]",
              "name": "assetConfigs",
              "type": "tuple[]"
            }
          ],
          "internalType": "struct CometConfiguration.Configuration",
          "name": "config",
          "type": "tuple"
        }
      ],
      "stateMutability": "nonpayable",
      "type": "constructor"
    },
    {
      "inputs": [],
      "name": "Absurd",
      "type": "error"
    },
    {
      "inputs": [],
      "name": "AlreadyInitialized",
      "type": "error"
    },
    {
      "inputs": [],
      "name": "BadAsset",
      "type": "error"
    },
    {
      "inputs": [],
      "name": "BadDecimals",
      "type": "error"
    },
    {
      "inputs": [],
      "name": "BadDiscount",
      "type": "error"
    },
    {
      "inputs": [],
      "name": "BadMinimum",
      "type": "error"
    },
    {
      "inputs": [],
      "name": "BadPrice",
      "type": "error"
    },
    {
      "inputs": [],
      "name": "BorrowCFTooLarge",
      "type": "error"
    },
    {
      "inputs": [],
      "name": "BorrowTooSmall",
      "type": "error"
    },
    {
      "inputs": [],
      "name": "InsufficientReserves",
      "type": "error"
    },
    {
      "inputs": [],
      "name": "InvalidInt104",
      "type": "error"
    },
    {
      "inputs": [],
      "name": "InvalidInt256",
      "type": "error"
    },
    {
      "inputs": [],
      "name": "InvalidUInt104",
      "type": "error"
    },
    {
      "inputs": [],
      "name": "InvalidUInt128",
      "type": "error"
    },
    {
      "inputs": [],
      "name": "InvalidUInt64",
      "type": "error"
    },
    {
      "inputs": [],
      "name": "LiquidateCFTooLarge",
      "type": "error"
    },
    {
      "inputs": [],
      "name": "NegativeNumber",
      "type": "error"
    },
    {
      "inputs": [],
      "name": "NoSelfTransfer",
      "type": "error"
    },
    {
      "inputs": [],
      "name": "NotCollateralized",
      "type": "error"
    },
    {
      "inputs": [],
      "name": "NotForSale",
      "type": "error"
    },
    {
      "inputs": [],
      "name": "NotLiquidatable",
      "type": "error"
    },
    {
      "inputs": [],
      "name": "Paused",
      "type": "error"
    },
    {
      "inputs": [],
      "name": "ReentrantCallBlocked",
      "type": "error"
    },
    {
      "inputs": [],
      "name": "SupplyCapExceeded",
      "type": "error"
    },
    {
      "inputs": [],
      "name": "TimestampTooLarge",
      "type": "error"
    },
    {
      "inputs": [],
      "name": "TooManyAssets",
      "type": "error"
    },
    {
      "inputs": [],
      "name": "TooMuchSlippage",
      "type": "error"
    },
    {
      "inputs": [],
      "name": "TransferInFailed",
      "type": "error"
    },
    {
      "inputs": [],
      "name": "TransferOutFailed",
      "type": "error"
    },
    {
      "inputs": [],
      "name": "Unauthorized",
      "type": "error"
    },
    {
      "anonymous": false,
      "inputs": [
        {
          "indexed": true,
          "internalType": "address",
          "name": "absorber",
          "type": "address"
        },
        {
          "indexed": true,
          "internalType": "address",
          "name": "borrower",
          "type": "address"
        },
        {
          "indexed": true,
          "internalType": "address",
          "name": "asset",
          "type": "address"
        },
        {
          "indexed": false,
          "internalType": "uint256",
          "name": "collateralAbsorbed",
          "type": "uint256"
        },
        {
          "indexed": false,
          "internalType": "uint256",
          "name": "usdValue",
          "type": "uint256"
        }
      ],
      "name": "AbsorbCollateral",
      "type": "event"
    },
    {
      "anonymous": false,
      "inputs": [
        {
          "indexed": true,
          "internalType": "address",
          "name": "absorber",
          "type": "address"
        },
        {
          "indexed": true,
          "internalType": "address",
          "name": "borrower",
          "type": "address"
        },
        {
          "indexed": false,
          "internalType": "uint256",
          "name": "basePaidOut",
          "type": "uint256"
        },
        {
          "indexed": false,
          "internalType": "uint256",
          "name": "usdValue",
          "type": "uint256"
        }
      ],
      "name": "AbsorbDebt",
      "type": "event"
    },
    {
      "anonymous": false,
      "inputs": [
        {
          "indexed": true,
          "internalType": "address",
          "name": "buyer",
          "type": "address"
        },
        {
          "indexed": true,
          "internalType": "address",
          "name": "asset",
          "type": "address"
        },
        {
          "indexed": false,
          "internalType": "uint256",
          "name": "baseAmount",
          "type": "uint256"
        },
        {
          "indexed": false,
          "internalType": "uint256",
          "name": "collateralAmount",
          "type": "uint256"
        }
      ],
      "name": "BuyCollateral",
      "type": "event"
    },
    {
      "anonymous": false,
      "inputs": [
        {
          "indexed": false,
          "internalType": "bool",
          "name": "supplyPaused",
          "type": "bool"
        },
        {
          "indexed": false,
          "internalType": "bool",
          "name": "transferPaused",
          "type": "bool"
        },
        {
          "indexed": false,
          "internalType": "bool",
          "name": "withdrawPaused",
          "type": "bool"
        },
        {
          "indexed": false,
          "internalType": "bool",
          "name": "absorbPaused",
          "type": "bool"
        },
        {
          "indexed": false,
          "internalType": "bool",
          "name": "buyPaused",
          "type": "bool"
        }
      ],
      "name": "PauseAction",
      "type": "event"
    },
    {
      "anonymous": false,
      "inputs": [
        {
          "indexed": true,
          "internalType": "address",
          "name": "from",
          "type": "address"
        },
        {
          "indexed": true,
          "internalType": "address",
          "name": "dst",
          "type": "address"
        },
        {
          "indexed": false,
          "internalType": "uint256",
          "name": "amount",
          "type": "uint256"
        }
      ],
      "name": "Supply",
      "type": "event"
    },
    {
      "anonymous": false,
      "inputs": [
        {
          "indexed": true,
          "internalType": "address",
          "name": "from",
          "type": "address"
        },
        {
          "indexed": true,
          "internalType": "address",
          "name": "dst",
          "type": "address"
        },
        {
          "indexed": true,
          "internalType": "address",
          "name": "asset",
          "type": "address"
        },
        {
          "indexed": false,
          "internalType": "uint256",
          "name": "amount",
          "type": "uint256"
        }
      ],
      "name": "SupplyCollateral",
      "type": "event"
    },
    {
      "anonymous": false,
      "inputs": [
        {
          "indexed": true,
          "internalType": "address",
          "name": "from",
          "type": "address"
        },
        {
          "indexed": true,
          "internalType": "address",
          "name": "to",
          "type": "address"
        },
        {
          "indexed": false,
          "internalType": "uint256",
          "name": "amount",
          "type": "uint256"
        }
      ],
      "name": "Transfer",
      "type": "event"
    },
    {
      "anonymous": false,
      "inputs": [
        {
          "indexed": true,
          "internalType": "address",
          "name": "from",
          "type": "address"
        },
        {
          "indexed": true,
          "internalType": "address",
          "name": "to",
          "type": "address"
        },
        {
          "indexed": true,
          "internalType": "address",
          "name": "asset",
          "type": "address"
        },
        {
          "indexed": false,
          "internalType": "uint256",
          "name": "amount",
          "type": "uint256"
        }
      ],
      "name": "TransferCollateral",
      "type": "event"
    },
    {
      "anonymous": false,
      "inputs": [
        {
          "indexed": true,
          "internalType": "address",
          "name": "src",
          "type": "address"
        },
        {
          "indexed": true,
          "internalType": "address",
          "name": "to",
          "type": "address"
        },
        {
          "indexed": false,
          "internalType": "uint256",
          "name": "amount",
          "type": "uint256"
        }
      ],
      "name": "Withdraw",
      "type": "event"
    },
    {
      "anonymous": false,
      "inputs": [
        {
          "indexed": true,
          "internalType": "address",
          "name": "src",
          "type": "address"
        },
        {
          "indexed": true,
          "internalType": "address",
          "name": "to",
          "type": "address"
        },
        {
          "indexed": true,
          "internalType": "address",
          "name": "asset",
          "type": "address"
        },
        {
          "indexed": false,
          "internalType": "uint256",
          "name": "amount",
          "type": "uint256"
        }
      ],
      "name": "WithdrawCollateral",
      "type": "event"
    },
    {
      "anonymous": false,
      "inputs": [
        {
          "indexed": true,
          "internalType": "address",
          "name": "to",
          "type": "address"
        },
        {
          "indexed": false,
          "internalType": "uint256",
          "name": "amount",
          "type": "uint256"
        }
      ],
      "name": "WithdrawReserves",
      "type": "event"
    },
    {
      "stateMutability": "payable",
      "type": "fallback"
    },
    {
      "inputs": [
        {
          "internalType": "address",
          "name": "absorber",
          "type": "address"
        },
        {
          "internalType": "address[]",
          "name": "accounts",
          "type": "address[]"
        }
      ],
      "name": "absorb",
      "outputs": [],
      "stateMutability": "nonpayable",
      "type": "function"
    },
    {
      "inputs": [
        {
          "internalType": "address",
          "name": "account",
          "type": "address"
        }
      ],
      "name": "accrueAccount",
      "outputs": [],
      "stateMutability": "nonpayable",
      "type": "function"
    },
    {
      "inputs": [
        {
          "internalType": "address",
          "name": "manager",
          "type": "address"
        },
        {
          "internalType": "address",
          "name": "asset",
          "type": "address"
        },
        {
          "internalType": "uint256",
          "name": "amount",
          "type": "uint256"
        }
      ],
      "name": "approveThis",
      "outputs": [],
      "stateMutability": "nonpayable",
      "type": "function"
    },
    {
      "inputs": [],
      "name": "assetList",
      "outputs": [
        {
          "internalType": "address",
          "name": "",
          "type": "address"
        }
      ],
      "stateMutability": "view",
      "type": "function"
    },
    {
      "inputs": [
        {
          "internalType": "address",
          "name": "account",
          "type": "address"
        }
      ],
      "name": "balanceOf",
      "outputs": [
        {
          "internalType": "uint256",
          "name": "",
          "type": "uint256"
        }
      ],
      "stateMutability": "view",
      "type": "function"
    },
    {
      "inputs": [],
      "name": "baseBorrowMin",
      "outputs": [
        {
          "internalType": "uint256",
          "name": "",
          "type": "uint256"
        }
      ],
      "stateMutability": "view",
      "type": "function"
    },
    {
      "inputs": [],
      "name": "baseMinForRewards",
      "outputs": [
        {
          "internalType": "uint256",
          "name": "",
          "type": "uint256"
        }
      ],
      "stateMutability": "view",
      "type": "function"
    },
    {
      "inputs": [],
      "name": "baseScale",
      "outputs": [
        {
          "internalType": "uint256",
          "name": "",
          "type": "uint256"
        }
      ],
      "stateMutability": "view",
      "type": "function"
    },
    {
      "inputs": [],
      "name": "baseToken",
      "outputs": [
        {
          "internalType": "address",
          "name": "",
          "type": "address"
        }
      ],
      "stateMutability": "view",
      "type": "function"
    },
    {
      "inputs": [],
      "name": "baseTokenPriceFeed",
      "outputs": [
        {
          "internalType": "address",
          "name": "",
          "type": "address"
        }
      ],
      "stateMutability": "view",
      "type": "function"
    },
    {
      "inputs": [],
      "name": "baseTrackingBorrowSpeed",
      "outputs": [
        {
          "internalType": "uint256",
          "name": "",
          "type": "uint256"
        }
      ],
      "stateMutability": "view",
      "type": "function"
    },
    {
      "inputs": [],
      "name": "baseTrackingSupplySpeed",
      "outputs": [
        {
          "internalType": "uint256",
          "name": "",
          "type": "uint256"
        }
      ],
      "stateMutability": "view",
      "type": "function"
    },
    {
      "inputs": [
        {
          "internalType": "address",
          "name": "account",
          "type": "address"
        }
      ],
      "name": "borrowBalanceOf",
      "outputs": [
        {
          "internalType": "uint256",
          "name": "",
          "type": "uint256"
        }
      ],
      "stateMutability": "view",
      "type": "function"
    },
    {
      "inputs": [],
      "name": "borrowKink",
      "outputs": [
        {
          "internalType": "uint256",
          "name": "",
          "type": "uint256"
        }
      ],
      "stateMutability": "view",
      "type": "function"
    },
    {
      "inputs": [],
      "name": "borrowPerSecondInterestRateBase",
      "outputs": [
        {
          "internalType": "uint256",
          "name": "",
          "type": "uint256"
        }
      ],
      "stateMutability": "view",
      "type": "function"
    },
    {
      "inputs": [],
      "name": "borrowPerSecondInterestRateSlopeHigh",
      "outputs": [
        {
          "internalType": "uint256",
          "name": "",
          "type": "uint256"
        }
      ],
      "stateMutability": "view",
      "type": "function"
    },
    {
      "inputs": [],
      "name": "borrowPerSecondInterestRateSlopeLow",
      "outputs": [
        {
          "internalType": "uint256",
          "name": "",
          "type": "uint256"
        }
      ],
      "stateMutability": "view",
      "type": "function"
    },
    {
      "inputs": [
        {
          "internalType": "address",
          "name": "asset",
          "type": "address"
        },
        {
          "internalType": "uint256",
          "name": "minAmount",
          "type": "uint256"
        },
        {
          "internalType": "uint256",
          "name": "baseAmount",
          "type": "uint256"
        },
        {
          "internalType": "address",
          "name": "recipient",
          "type": "address"
        }
      ],
      "name": "buyCollateral",
      "outputs": [],
      "stateMutability": "nonpayable",
      "type": "function"
    },
    {
      "inputs": [],
      "name": "decimals",
      "outputs": [
        {
          "internalType": "uint8",
          "name": "",
          "type": "uint8"
        }
      ],
      "stateMutability": "view",
      "type": "function"
    },
    {
      "inputs": [],
      "name": "extensionDelegate",
      "outputs": [
        {
          "internalType": "address",
          "name": "",
          "type": "address"
        }
      ],
      "stateMutability": "view",
      "type": "function"
    },
    {
      "inputs": [
        {
          "internalType": "uint8",
          "name": "i",
          "type": "uint8"
        }
      ],
      "name": "getAssetInfo",
      "outputs": [
        {
          "components": [
            {
              "internalType": "uint8",
              "name": "offset",
              "type": "uint8"
            },
            {
              "internalType": "address",
              "name": "asset",
              "type": "address"
            },
            {
              "internalType": "address",
              "name": "priceFeed",
              "type": "address"
            },
            {
              "internalType": "uint64",
              "name": "scale",
              "type": "uint64"
            },
            {
              "internalType": "uint64",
              "name": "borrowCollateralFactor",
              "type": "uint64"
            },
            {
              "internalType": "uint64",
              "name": "liquidateCollateralFactor",
              "type": "uint64"
            },
            {
              "internalType": "uint64",
              "name": "liquidationFactor",
              "type": "uint64"
            },
            {
              "internalType": "uint128",
              "name": "supplyCap",
              "type": "uint128"
            }
          ],
          "internalType": "struct CometCore.AssetInfo",
          "name": "",
          "type": "tuple"
        }
      ],
      "stateMutability": "view",
      "type": "function"
    },
    {
      "inputs": [
        {
          "internalType": "address",
          "name": "asset",
          "type": "address"
        }
      ],
      "name": "getAssetInfoByAddress",
      "outputs": [
        {
          "components": [
            {
              "internalType": "uint8",
              "name": "offset",
              "type": "uint8"
            },
            {
              "internalType": "address",
              "name": "asset",
              "type": "address"
            },
            {
              "internalType": "address",
              "name": "priceFeed",
              "type": "address"
            },
            {
              "internalType": "uint64",
              "name": "scale",
              "type": "uint64"
            },
            {
              "internalType": "uint64",
              "name": "borrowCollateralFactor",
              "type": "uint64"
            },
            {
              "internalType": "uint64",
              "name": "liquidateCollateralFactor",
              "type": "uint64"
            },
            {
              "internalType": "uint64",
              "name": "liquidationFactor",
              "type": "uint64"
            },
            {
              "internalType": "uint128",
              "name": "supplyCap",
              "type": "uint128"
            }
          ],
          "internalType": "struct CometCore.AssetInfo",
          "name": "",
          "type": "tuple"
        }
      ],
      "stateMutability": "view",
      "type": "function"
    },
    {
      "inputs": [
        {
          "internalType": "uint256",
          "name": "utilization",
          "type": "uint256"
        }
      ],
      "name": "getBorrowRate",
      "outputs": [
        {
          "internalType": "uint64",
          "name": "",
          "type": "uint64"
        }
      ],
      "stateMutability": "view",
      "type": "function"
    },
    {
      "inputs": [
        {
          "internalType": "address",
          "name": "asset",
          "type": "address"
        }
      ],
      "name": "getCollateralReserves",
      "outputs": [
        {
          "internalType": "uint256",
          "name": "",
          "type": "uint256"
        }
      ],
      "stateMutability": "view",
      "type": "function"
    },
    {
      "inputs": [
        {
          "internalType": "address",
          "name": "priceFeed",
          "type": "address"
        }
      ],
      "name": "getPrice",
      "outputs": [
        {
          "internalType": "uint256",
          "name": "",
          "type": "uint256"
        }
      ],
      "stateMutability": "view",
      "type": "function"
    },
    {
      "inputs": [],
      "name": "getReserves",
      "outputs": [
        {
          "internalType": "int256",
          "name": "",
          "type": "int256"
        }
      ],
      "stateMutability": "view",
      "type": "function"
    },
    {
      "inputs": [
        {
          "internalType": "uint256",
          "name": "utilization",
          "type": "uint256"
        }
      ],
      "name": "getSupplyRate",
      "outputs": [
        {
          "internalType": "uint64",
          "name": "",
          "type": "uint64"
        }
      ],
      "stateMutability": "view",
      "type": "function"
    },
    {
      "inputs": [],
      "name": "getUtilization",
      "outputs": [
        {
          "internalType": "uint256",
          "name": "",
          "type": "uint256"
        }
      ],
      "stateMutability": "view",
      "type": "function"
    },
    {
      "inputs": [],
      "name": "governor",
      "outputs": [
        {
          "internalType": "address",
          "name": "",
          "type": "address"
        }
      ],
      "stateMutability": "view",
      "type": "function"
    },
    {
      "inputs": [
        {
          "internalType": "address",
          "name": "owner",
          "type": "address"
        },
        {
          "internalType": "address",
          "name": "manager",
          "type": "address"
        }
      ],
      "name": "hasPermission",
      "outputs": [
        {
          "internalType": "bool",
          "name": "",
          "type": "bool"
        }
      ],
      "stateMutability": "view",
      "type": "function"
    },
    {
      "inputs": [],
      "name": "initializeStorage",
      "outputs": [],
      "stateMutability": "nonpayable",
      "type": "function"
    },
    {
      "inputs": [],
      "name": "isAbsorbPaused",
      "outputs": [
        {
          "internalType": "bool",
          "name": "",
          "type": "bool"
        }
      ],
      "stateMutability": "view",
      "type": "function"
    },
    {
      "inputs": [
        {
          "internalType": "address",
          "name": "",
          "type": "address"
        },
        {
          "internalType": "address",
          "name": "",
          "type": "address"
        }
      ],
      "name": "isAllowed",
      "outputs": [
        {
          "internalType": "bool",
          "name": "",
          "type": "bool"
        }
      ],
      "stateMutability": "view",
      "type": "function"
    },
    {
      "inputs": [
        {
          "internalType": "address",
          "name": "account",
          "type": "address"
        }
      ],
      "name": "isBorrowCollateralized",
      "outputs": [
        {
          "internalType": "bool",
          "name": "",
          "type": "bool"
        }
      ],
      "stateMutability": "view",
      "type": "function"
    },
    {
      "inputs": [],
      "name": "isBuyPaused",
      "outputs": [
        {
          "internalType": "bool",
          "name": "",
          "type": "bool"
        }
      ],
      "stateMutability": "view",
      "type": "function"
    },
    {
      "inputs": [
        {
          "internalType": "address",
          "name": "account",
          "type": "address"
        }
      ],
      "name": "isLiquidatable",
      "outputs": [
        {
          "internalType": "bool",
          "name": "",
          "type": "bool"
        }
      ],
      "stateMutability": "view",
      "type": "function"
    },
    {
      "inputs": [],
      "name": "isSupplyPaused",
      "outputs": [
        {
          "internalType": "bool",
          "name": "",
          "type": "bool"
        }
      ],
      "stateMutability": "view",
      "type": "function"
    },
    {
      "inputs": [],
      "name": "isTransferPaused",
      "outputs": [
        {
          "internalType": "bool",
          "name": "",
          "type": "bool"
        }
      ],
      "stateMutability": "view",
      "type": "function"
    },
    {
      "inputs": [],
      "name": "isWithdrawPaused",
      "outputs": [
        {
          "internalType": "bool",
          "name": "",
          "type": "bool"
        }
      ],
      "stateMutability": "view",
      "type": "function"
    },
    {
      "inputs": [
        {
          "internalType": "address",
          "name": "",
          "type": "address"
        }
      ],
      "name": "liquidatorPoints",
      "outputs": [
        {
          "internalType": "uint32",
          "name": "numAbsorbs",
          "type": "uint32"
        },
        {
          "internalType": "uint64",
          "name": "numAbsorbed",
          "type": "uint64"
        },
        {
          "internalType": "uint128",
          "name": "approxSpend",
          "type": "uint128"
        },
        {
          "internalType": "uint32",
          "name": "_reserved",
          "type": "uint32"
        }
      ],
      "stateMutability": "view",
      "type": "function"
    },
    {
      "inputs": [],
      "name": "numAssets",
      "outputs": [
        {
          "internalType": "uint8",
          "name": "",
          "type": "uint8"
        }
      ],
      "stateMutability": "view",
      "type": "function"
    },
    {
      "inputs": [
        {
          "internalType": "bool",
          "name": "supplyPaused",
          "type": "bool"
        },
        {
          "internalType": "bool",
          "name": "transferPaused",
          "type": "bool"
        },
        {
          "internalType": "bool",
          "name": "withdrawPaused",
          "type": "bool"
        },
        {
          "internalType": "bool",
          "name": "absorbPaused",
          "type": "bool"
        },
        {
          "internalType": "bool",
          "name": "buyPaused",
          "type": "bool"
        }
      ],
      "name": "pause",
      "outputs": [],
      "stateMutability": "nonpayable",
      "type": "function"
    },
    {
      "inputs": [],
      "name": "pauseGuardian",
      "outputs": [
        {
          "internalType": "address",
          "name": "",
          "type": "address"
        }
      ],
      "stateMutability": "view",
      "type": "function"
    },
    {
      "inputs": [
        {
          "internalType": "address",
          "name": "asset",
          "type": "address"
        },
        {
          "internalType": "uint256",
          "name": "baseAmount",
          "type": "uint256"
        }
      ],
      "name": "quoteCollateral",
      "outputs": [
        {
          "internalType": "uint256",
          "name": "",
          "type": "uint256"
        }
      ],
      "stateMutability": "view",
      "type": "function"
    },
    {
      "inputs": [],
      "name": "storeFrontPriceFactor",
      "outputs": [
        {
          "internalType": "uint256",
          "name": "",
          "type": "uint256"
        }
      ],
      "stateMutability": "view",
      "type": "function"
    },
    {
      "inputs": [
        {
          "internalType": "address",
          "name": "asset",
          "type": "address"
        },
        {
          "internalType": "uint256",
          "name": "amount",
          "type": "uint256"
        }
      ],
      "name": "supply",
      "outputs": [],
      "stateMutability": "nonpayable",
      "type": "function"
    },
    {
      "inputs": [
        {
          "internalType": "address",
          "name": "from",
          "type": "address"
        },
        {
          "internalType": "address",
          "name": "dst",
          "type": "address"
        },
        {
          "internalType": "address",
          "name": "asset",
          "type": "address"
        },
        {
          "internalType": "uint256",
          "name": "amount",
          "type": "uint256"
        }
      ],
      "name": "supplyFrom",
      "outputs": [],
      "stateMutability": "nonpayable",
      "type": "function"
    },
    {
      "inputs": [],
      "name": "supplyKink",
      "outputs": [
        {
          "internalType": "uint256",
          "name": "",
          "type": "uint256"
        }
      ],
      "stateMutability": "view",
      "type": "function"
    },
    {
      "inputs": [],
      "name": "supplyPerSecondInterestRateBase",
      "outputs": [
        {
          "internalType": "uint256",
          "name": "",
          "type": "uint256"
        }
      ],
      "stateMutability": "view",
      "type": "function"
    },
    {
      "inputs": [],
      "name": "supplyPerSecondInterestRateSlopeHigh",
      "outputs": [
        {
          "internalType": "uint256",
          "name": "",
          "type": "uint256"
        }
      ],
      "stateMutability": "view",
      "type": "function"
    },
    {
      "inputs": [],
      "name": "supplyPerSecondInterestRateSlopeLow",
      "outputs": [
        {
          "internalType": "uint256",
          "name": "",
          "type": "uint256"
        }
      ],
      "stateMutability": "view",
      "type": "function"
    },
    {
      "inputs": [
        {
          "internalType": "address",
          "name": "dst",
          "type": "address"
        },
        {
          "internalType": "address",
          "name": "asset",
          "type": "address"
        },
        {
          "internalType": "uint256",
          "name": "amount",
          "type": "uint256"
        }
      ],
      "name": "supplyTo",
      "outputs": [],
      "stateMutability": "nonpayable",
      "type": "function"
    },
    {
      "inputs": [],
      "name": "targetReserves",
      "outputs": [
        {
          "internalType": "uint256",
          "name": "",
          "type": "uint256"
        }
      ],
      "stateMutability": "view",
      "type": "function"
    },
    {
      "inputs": [],
      "name": "totalBorrow",
      "outputs": [
        {
          "internalType": "uint256",
          "name": "",
          "type": "uint256"
        }
      ],
      "stateMutability": "view",
      "type": "function"
    },
    {
      "inputs": [],
      "name": "totalSupply",
      "outputs": [
        {
          "internalType": "uint256",
          "name": "",
          "type": "uint256"
        }
      ],
      "stateMutability": "view",
      "type": "function"
    },
    {
      "inputs": [
        {
          "internalType": "address",
          "name": "",
          "type": "address"
        }
      ],
      "name": "totalsCollateral",
      "outputs": [
        {
          "internalType": "uint128",
          "name": "totalSupplyAsset",
          "type": "uint128"
        },
        {
          "internalType": "uint128",
          "name": "_reserved",
          "type": "uint128"
        }
      ],
      "stateMutability": "view",
      "type": "function"
    },
    {
      "inputs": [],
      "name": "trackingIndexScale",
      "outputs": [
        {
          "internalType": "uint256",
          "name": "",
          "type": "uint256"
        }
      ],
      "stateMutability": "view",
      "type": "function"
    },
    {
      "inputs": [
        {
          "internalType": "address",
          "name": "dst",
          "type": "address"
        },
        {
          "internalType": "uint256",
          "name": "amount",
          "type": "uint256"
        }
      ],
      "name": "transfer",
      "outputs": [
        {
          "internalType": "bool",
          "name": "",
          "type": "bool"
        }
      ],
      "stateMutability": "nonpayable",
      "type": "function"
    },
    {
      "inputs": [
        {
          "internalType": "address",
          "name": "dst",
          "type": "address"
        },
        {
          "internalType": "address",
          "name": "asset",
          "type": "address"
        },
        {
          "internalType": "uint256",
          "name": "amount",
          "type": "uint256"
        }
      ],
      "name": "transferAsset",
      "outputs": [],
      "stateMutability": "nonpayable",
      "type": "function"
    },
    {
      "inputs": [
        {
          "internalType": "address",
          "name": "src",
          "type": "address"
        },
        {
          "internalType": "address",
          "name": "dst",
          "type": "address"
        },
        {
          "internalType": "address",
          "name": "asset",
          "type": "address"
        },
        {
          "internalType": "uint256",
          "name": "amount",
          "type": "uint256"
        }
      ],
      "name": "transferAssetFrom",
      "outputs": [],
      "stateMutability": "nonpayable",
      "type": "function"
    },
    {
      "inputs": [
        {
          "internalType": "address",
          "name": "src",
          "type": "address"
        },
        {
          "internalType": "address",
          "name": "dst",
          "type": "address"
        },
        {
          "internalType": "uint256",
          "name": "amount",
          "type": "uint256"
        }
      ],
      "name": "transferFrom",
      "outputs": [
        {
          "internalType": "bool",
          "name": "",
          "type": "bool"
        }
      ],
      "stateMutability": "nonpayable",
      "type": "function"
    },
    {
      "inputs": [
        {
          "internalType": "address",
          "name": "",
          "type": "address"
        }
      ],
      "name": "userBasic",
      "outputs": [
        {
          "internalType": "int104",
          "name": "principal",
          "type": "int104"
        },
        {
          "internalType": "uint64",
          "name": "baseTrackingIndex",
          "type": "uint64"
        },
        {
          "internalType": "uint64",
          "name": "baseTrackingAccrued",
          "type": "uint64"
        },
        {
          "internalType": "uint16",
          "name": "assetsIn",
          "type": "uint16"
        },
        {
          "internalType": "uint8",
          "name": "_reserved",
          "type": "uint8"
        }
      ],
      "stateMutability": "view",
      "type": "function"
    },
    {
      "inputs": [
        {
          "internalType": "address",
          "name": "",
          "type": "address"
        },
        {
          "internalType": "address",
          "name": "",
          "type": "address"
        }
      ],
      "name": "userCollateral",
      "outputs": [
        {
          "internalType": "uint128",
          "name": "balance",
          "type": "uint128"
        },
        {
          "internalType": "uint128",
          "name": "_reserved",
          "type": "uint128"
        }
      ],
      "stateMutability": "view",
      "type": "function"
    },
    {
      "inputs": [
        {
          "internalType": "address",
          "name": "",
          "type": "address"
        }
      ],
      "name": "userNonce",
      "outputs": [
        {
          "internalType": "uint256",
          "name": "",
          "type": "uint256"
        }
      ],
      "stateMutability": "view",
      "type": "function"
    },
    {
      "inputs": [
        {
          "internalType": "address",
          "name": "asset",
          "type": "address"
        },
        {
          "internalType": "uint256",
          "name": "amount",
          "type": "uint256"
        }
      ],
      "name": "withdraw",
      "outputs": [],
      "stateMutability": "nonpayable",
      "type": "function"
    },
    {
      "inputs": [
        {
          "internalType": "address",
          "name": "src",
          "type": "address"
        },
        {
          "internalType": "address",
          "name": "to",
          "type": "address"
        },
        {
          "internalType": "address",
          "name": "asset",
          "type": "address"
        },
        {
          "internalType": "uint256",
          "name": "amount",
          "type": "uint256"
        }
      ],
      "name": "withdrawFrom",
      "outputs": [],
      "stateMutability": "nonpayable",
      "type": "function"
    },
    {
      "inputs": [
        {
          "internalType": "address",
          "name": "to",
          "type": "address"
        },
        {
          "internalType": "uint256",
          "name": "amount",
          "type": "uint256"
        }
      ],
      "name": "withdrawReserves",
      "outputs": [],
      "stateMutability": "nonpayable",
      "type": "function"
    },
    {
      "inputs": [
        {
          "internalType": "address",
          "name": "to",
          "type": "address"
        },
        {
          "internalType": "address",
          "name": "asset",
          "type": "address"
        },
        {
          "internalType": "uint256",
          "name": "amount",
          "type": "uint256"
        }
      ],
      "name": "withdrawTo",
      "outputs": [],
      "stateMutability": "nonpayable",
      "type": "function"
    }
  ],
  "bytecode": "0x6103a0806040523462000a9657620056bf803803809162000021828562000ac6565b8339602082828101031262000a965781516001600160401b03811162000a96576102a0818401838501031262000a9657604051926102a084016001600160401b0381118582101762000ab0576040526200007d82820162000aea565b84526200008f60208383010162000aea565b6020850152620000a460408383010162000aea565b6040850152620000b960608383010162000aea565b6060850152620000ce60808383010162000aea565b6080850152620000e360a08383010162000aff565b60a0850152620000f860c08383010162000aff565b60c08501526200010d60e08383010162000aff565b60e0850152620001236101008383010162000aff565b6101008501526200013a6101208383010162000aff565b610120850152620001516101408383010162000aff565b610140850152620001686101608383010162000aff565b6101608501526200017f6101808383010162000aff565b610180850152620001966101a08383010162000aff565b6101a0850152620001ad6101c08383010162000aff565b6101c0850152620001c46101e08383010162000aff565b6101e0850152620001db6102008383010162000aff565b610200850152620001f26102208383010162000b14565b610220850152620002096102408383010162000b14565b610240850152620002206102608383010162000b14565b6102608501528082016102800151926001600160401b03841162000a9657808201601f858585010101121562000a9657818301840151916001600160401b03831162000ab057604051946200027c60208560051b018762000ac6565b8386526020860194838301602060e08702848487010101011162000a9657828101820160200195915b602060e08702828487010101018710620009cb5761028089018890526040808a0151905163313ce56760e01b81528a91602090829060049082906001600160a01b03165afa9081156200081c5760009162000989575b50601260ff821611620008fa576101a0820151670de0b6b3a76400006001600160401b039091161162000977576018610280830151511162000965576102208201516001600160681b0316156200095357606082015160405163313ce56760e01b815290602090829060049082906001600160a01b03165afa9081156200081c576000916200090c575b5060ff6008911603620008fa5781516001600160a01b0390811660809081526020840151821660a0526040840151821660c0526060840151821660e05283015116610100526101a08201516001600160401b039081166102205261032082905260ff909116600a0a81166102408190526101c083015190911661026052620f424011620008fa576102408051620f42409004610360526102208201516001600160681b039081166102c0526101e0808401516001600160401b039081166102809081526102008087015183166102a0529486015184166102e0526102608601519093166103005260a0850151811661012090815260c08601516301e13380908316819004831661014090815260e088015184168290048416610160908152610100808a015186168490048616610180908152948a015186166101a05291890151851683900485166101c0528801518416829004841690945290860151821604169092528201515160ff166103405251604051630e085c5b60e31b81529190602090839060049082906001600160a01b03165afa9182156200081c57600092620008b0575b50610280015190604051809263ba15b9d160e01b82526024820160206004840152815180915260206044840192019060005b8181106200082857506020949284900392849250600091506001600160a01b03165af19081156200081c57600091620007d7575b5061038052604051614b8662000b39823960805181818161062501528181610d7c01528181611452015261185d015260a05181818161086a0152610eb2015260c051818181610810015281816113d301528181611643015281816118c60152818161197e01528181612770015281816130440152818161316a01528181613a7201528181613f2e0152614032015260e051818181611ac3015281816128fe0152818161453c01526149a6015261010051818181610ef20152614ade0152610120518181816113810152612260015261014051818181610f910152818161229c01526123060152610160518181816110a0015261233601526101805181818161120001526122c301526101a051818181611188015261237001526101c051818181610a0c015281816123ac015261241601526101e051818181610923015261244601526102005181818161101c01526123d30152610220518181816107a3015261496a015261024051818181610cc80152818161292c01528181612c97015281816145ad01526149de0152610260518181816114130152612eb00152610280518181816106d9015261212601526102a05181818161123c01526120a901526102c0518181816111c4015261201001526102e051818181610a8601528181613cfd01526140d8015261030051818181610b010152611a7301526103205181610ac401526103405181818161134401528181611df20152818161295b01528181612bd4015261456a01526103605181612ed70152610380518181816118020152611cd90152614b8690f35b6020813d60201162000813575b81620007f36020938362000ac6565b810103126200080f5762000808915062000aea565b816200058f565b5080fd5b3d9150620007e4565b6040513d6000823e3d90fd5b825180516001600160a01b0390811686526020828101519091168187015260408083015160ff16908701526060808301516001600160401b039081169188019190915260808084015182169088015260a0808401519091169087015260c0918201516001600160801b03169186019190915287955060e090940193909201916001016200055b565b90916020823d602011620008f1575b81620008ce6020938362000ac6565b81010312620008ee5750620008e66102809162000aea565b919062000529565b80fd5b3d9150620008bf565b604051630456c65960e51b8152600490fd5b906020823d6020116200094a575b81620009296020938362000ac6565b81010312620008ee575060ff6200094260089262000b29565b915062000385565b3d91506200091a565b604051636e77247560e01b8152600490fd5b60405163df8153c760e01b8152600490fd5b6040516324dc918f60e11b8152600490fd5b906020823d602011620009c2575b81620009a66020938362000ac6565b81010312620008ee5750620009bb9062000b29565b82620002fb565b3d915062000997565b60e087868601031262000a96576040519260e084016001600160401b0381118582101762000a9b5760405262000a018862000aea565b845262000a116020890162000aea565b602085015262000a246040890162000b29565b604085015262000a376060890162000aff565b606085015262000a4a6080890162000aff565b608085015262000a5d60a0890162000aff565b60a085015260c0880151936001600160801b038516850362000a9657602060e09282829760c086950152815201980197935050620002a5565b600080fd5b60246000634e487b7160e01b81526041600452fd5b634e487b7160e01b600052604160045260246000fd5b601f909101601f19168101906001600160401b0382119082101762000ab057604052565b51906001600160a01b038216820362000a9657565b51906001600160401b038216820362000a9657565b51906001600160681b038216820362000a9657565b519060ff8216820362000a965756fe60806040526004361015610018575b610016614ad1565b005b60003560e01c8063042e02cf146105685780630902f1ac1461055f5780630bc47ad1146105565780630c340a241461054d57806318160ddd14610544578063189bb2f11461053b5780631c9f7fb9146105325780631f5954bd1461052957806323b872dd1461052057806324a3d62214610517578063264413181461050e5780632a48cf12146105055780632b92a07d146104fc5780632d05670b146104f35780632e04b8e7146104ea578063300e6beb146104e1578063313ce567146104d857806332176c49146104cf578063374c49b4146104c657806338aa813f146104bd5780633b3bec2e146104b457806341976e09146104ab5780634232cd63146104a2578063439e2e451461049957806344c1e5eb1461049057806344c35d071461048757806344ff241d1461047e57806359e017bd146104755780635a94b8d11461046c57806367800b5f1461046357806370a082311461045a5780637914acc7146104515780637ac88ed1146104485780637eb711311461043f578063804de71f146104365780638285ef401461042d5780638d5d814c14610424578063903231771461041b5780639241a561146104125780639364e18a1461040957806394920cca146104005780639ea99a5a146103f75780639fa83b5a146103ee5780639ff567f8146103e5578063a1654379146103dc578063a1a1ef43146103d3578063a46fe83b146103ca578063a5b4ff79146103c1578063a9059cbb146103b8578063aba7f15e146103af578063ad14777c146103a6578063bfe69c8d1461039d578063c1ee2c1814610394578063c3b35a7e1461038b578063c3cecfd214610382578063c55dae6314610379578063c5fa15cf14610370578063c8c7fe6b14610367578063cde680411461035e578063d8e5f61114610355578063d955759d1461034c578063dc4abafd14610343578063e372f03a1461033a578063e478795d14610331578063e4e6e77914610328578063e7dad6bd1461031f578063f2b9fdb8146103165763f3fef3a30361000e57610311611b27565b61000e565b50610311611af2565b50610311611aac565b5061031161191c565b50610311611831565b506103116117eb565b50610311611777565b50610311611758565b50610311611731565b50610311611717565b506103116116ee565b50610311611672565b5061031161162c565b506103116115c7565b506103116115a5565b50610311611581565b506103116114e1565b50610311611436565b506103116113fa565b506103116113a4565b50610311611368565b50610311611329565b50610311611302565b506103116112b7565b5061031161128f565b5061031161125f565b50610311611223565b506103116111e7565b506103116111ab565b5061031161116f565b5061031161114b565b50610311611124565b506103116110c3565b50610311611087565b5061031161106b565b5061031161103f565b50610311611003565b50610311610fdb565b50610311610fb4565b50610311610f78565b50610311610f21565b50610311610edb565b50610311610d36565b50610311610caf565b50610311610c8d565b50610311610c6b565b50610311610c43565b50610311610c0e565b50610311610b4c565b50610311610b24565b50610311610ae8565b50610311610aa9565b50610311610a6d565b50610311610a2f565b506103116109f3565b50610311610988565b5061031161090a565b506103116108d2565b50610311610853565b506103116107f2565b5061031161078a565b506103116106fc565b506103116106c0565b50610311610654565b5061031161060e565b506103116105e8565b506103116105c4565b50610311610587565b6001600160a01b0381160361058257565b600080fd5b50346105825760203660031901126105825760206105af6004356105aa81610571565b612b54565b6040519015158152f35b600091031261058257565b50346105825760003660031901126105825760206105e061271b565b604051908152f35b50346105825760003660031901126105825760206001805460f81c161515604051908152f35b5034610582576000366003190112610582576040517f00000000000000000000000000000000000000000000000000000000000000006001600160a01b03168152602090f35b503461058257600036600319011261058257602066038d7ea4c680006106b761067b611e63565b6001600160681b036001600160401b036106ae600154936106a864ffffffffff91828760d01c1690611eef565b166121b7565b50169116611f39565b04604051908152f35b50346105825760003660031901126105825760206040517f00000000000000000000000000000000000000000000000000000000000000008152f35b5034610582576000806003193601126107875764ffffffffff60015460d01c166107765761075261072b611e63565b6001805464ffffffffff60d01b191660d09290921b64ffffffffff60d01b16919091179055565b80546001600160801b0319166e038d7ea4c6800000038d7ea4c68000178155604051f35b60405162dc149f60e41b8152600490fd5b80fd5b50346105825760003660031901126105825760206040517f00000000000000000000000000000000000000000000000000000000000000008152f35b6060906003190112610582576004356107de81610571565b906024356107eb81610571565b9060443590565b503461058257610836610804366107c6565b919061080e6130c4565b7f00000000000000000000000000000000000000000000000000000000000000009133613a3a565b6000600080516020614b3183398151915255602060405160018152f35b5034610582576000366003190112610582576040517f00000000000000000000000000000000000000000000000000000000000000006001600160a01b03168152602090f35b6080906003190112610582576004356108b181610571565b906024356108be81610571565b906044356108cb81610571565b9060643590565b5034610582576108f66108e436610899565b926108f09291926130c4565b33613eff565b6000600080516020614b3183398151915255005b50346105825760003660031901126105825760206040517f00000000000000000000000000000000000000000000000000000000000000008152f35b60409060031901126105825760043561095e81610571565b9060243561096b81610571565b90565b6001600160a01b0316600090815260056020526040902090565b5034610582576109ef6109ca61099d36610946565b9060018060a01b0316600052600660205260406000209060018060a01b0316600052602052604060002090565b54604080516001600160801b038316815260809290921c602083015290918291820190565b0390f35b50346105825760003660031901126105825760206040517f00000000000000000000000000000000000000000000000000000000000000008152f35b503461058257602036600319011261058257600435610a4d81610571565b60018060a01b031660005260046020526020604060002054604051908152f35b50346105825760003660031901126105825760206040517f00000000000000000000000000000000000000000000000000000000000000008152f35b503461058257600036600319011261058257602060405160ff7f0000000000000000000000000000000000000000000000000000000000000000168152f35b50346105825760003660031901126105825760206040517f00000000000000000000000000000000000000000000000000000000000000008152f35b50346105825760203660031901126105825760206105e0600435610b4781610571565b614a89565b50346105825760203660031901126105825760206105af600435610b6f81610571565b61286b565b610c0c9092919260e08061010083019560ff815116845260018060a01b0380602083015116602086015260408201511660408501526001600160401b036060820151166060850152610bd6608082015160808601906001600160401b03169052565b60a0818101516001600160401b03169085015260c0818101516001600160401b03169085015201516001600160801b0316910152565b565b5034610582576020366003190112610582576109ef610c37600435610c3281610571565b611ddf565b60405191829182610b74565b50346105825760203660031901126105825760206105e0600435610c6681610571565b61255a565b5034610582576108f6610c7d366107c6565b91610c866130c4565b3333613012565b5034610582576108f6610c9f366107c6565b91610ca86130c4565b3333613a3a565b50346105825760003660031901126105825760206040517f00000000000000000000000000000000000000000000000000000000000000008152f35b60043590811515820361058257565b60243590811515820361058257565b60443590811515820361058257565b60643590811515820361058257565b60843590811515820361058257565b50346105825760a036600319011261058257610d50610ceb565b610d58610cfa565b610d60610d09565b91610d69610d18565b92610d72610d27565b60018060a01b03807f0000000000000000000000000000000000000000000000000000000000000000163314159081610eae575b50610e9d577f3be39979091ae7ca962aa1c44e645f2df3c221b79f324afa5f44aedc8d2f690d94610e9892610e63610de6610de087612c70565b60ff1690565b610dfb610df289612c70565b60011b60fe1690565b17610e11610e0884612c70565b60021b60fc1690565b17610e27610e1e85612c70565b60031b60f81690565b17610e3d610e3486612c70565b60041b60f01690565b600180546001600160f81b03169290911760f81b6001600160f81b031916919091179055565b6040519586958693909594919260809360a0860197151586521515602086015215156040850152151560608401521515910152565b0390a1005b6040516282b42960e81b8152600490fd5b90507f00000000000000000000000000000000000000000000000000000000000000001633141538610da6565b5034610582576000366003190112610582576040517f00000000000000000000000000000000000000000000000000000000000000006001600160a01b03168152602090f35b503461058257602036600319011261058257600435610f3f81610571565b6001600160a01b03166000908152600260209081526040918290205482516001600160801b038216815260809190911c91810191909152f35b50346105825760003660031901126105825760206040517f00000000000000000000000000000000000000000000000000000000000000008152f35b5034610582576000366003190112610582576020600460015460f81c161515604051908152f35b50346105825760203660031901126105825760206105e0600435610ffe81610571565b614a2b565b50346105825760003660031901126105825760206040517f00000000000000000000000000000000000000000000000000000000000000008152f35b50346105825760403660031901126105825760206105e060043561106281610571565b6024359061490f565b50346105825760003660031901126105825760206105e06124a4565b50346105825760003660031901126105825760206040517f00000000000000000000000000000000000000000000000000000000000000008152f35b503461058257600036600319011261058257602066038d7ea4c680006106b76110ea611e63565b6001600160681b036001600160401b03611117600154936106a864ffffffffff91828760d01c1690611eef565b9050169160681c16611f39565b5034610582576000366003190112610582576020600860015460f81c161515604051908152f35b5034610582576108f661115d36610899565b926111699291926130c4565b33613012565b50346105825760003660031901126105825760206040517f00000000000000000000000000000000000000000000000000000000000000008152f35b50346105825760003660031901126105825760206040517f00000000000000000000000000000000000000000000000000000000000000008152f35b50346105825760003660031901126105825760206040517f00000000000000000000000000000000000000000000000000000000000000008152f35b50346105825760003660031901126105825760206040517f00000000000000000000000000000000000000000000000000000000000000008152f35b503461058257602036600319011261058257602061127e60043561236e565b6001600160401b0360405191168152f35b50346105825760203660031901126105825760206105e06004356112b281610571565b612614565b503461058257602060ff6112f66112cd36610946565b6001600160a01b0391821660009081526003865260408082209290931681526020919091522090565b54166040519015158152f35b5034610582576000366003190112610582576020600260015460f81c161515604051908152f35b503461058257600036600319011261058257602060405160ff7f0000000000000000000000000000000000000000000000000000000000000000168152f35b50346105825760003660031901126105825760206040517f00000000000000000000000000000000000000000000000000000000000000008152f35b5034610582576040366003190112610582576108366004356113c581610571565b6113cd6130c4565b602435907f0000000000000000000000000000000000000000000000000000000000000000903333613a3a565b50346105825760003660031901126105825760206040517f00000000000000000000000000000000000000000000000000000000000000008152f35b503461058257611445366107c6565b91906001600160a01b03907f000000000000000000000000000000000000000000000000000000000000000082163303610e9d571691823b156105825760405163095ea7b360e01b81526001600160a01b039290921660048301526024820152906000908290604490829084905af180156114d4575b6114c157005b806114ce61001692611ba4565b806105b9565b6114dc611ca1565b6114bb565b50346105825760203660031901126105825761001660043561150281610571565b61150a611f74565b60018060a01b038116600052600560205260406000206115766040519161153083611bcd565b5480600c0b83526001600160401b03808260681c1660208501528160a81c16604084015261156c61ffff8260e81c16606085019061ffff169052565b60f81c6080830152565b8051600c0b91612e2d565b5034610582576108f661159336610899565b9261159f9291926130c4565b33613a3a565b5034610582576108f66115b7366107c6565b916115c06130c4565b3333613eff565b5034610582576040366003190112610582576004356115e581610571565b602435906001600160401b03908183116105825736602384011215610582578260040135918211610582573660248360051b85010111610582576024610016930190614358565b5034610582576000366003190112610582576040517f00000000000000000000000000000000000000000000000000000000000000006001600160a01b03168152602090f35b50346105825760203660031901126105825760043561169081610571565b60018060a01b0316600052600760205260806040600020546040519063ffffffff811682526001600160401b038160201c1660208301526001600160801b038160601c16604083015260e01c6060820152f35b60ff81160361058257565b5034610582576020366003190112610582576109ef610c37600435611712816116e3565b611cae565b50346105825760206105af61172b36610946565b90611b5c565b5034610582576000366003190112610582576020601060015460f81c161515604051908152f35b503461058257602036600319011261058257602061127e60043561225e565b50346105825760203660031901126105825760043561179581610571565b60018060a01b0316600052600560205260a06040600020546040519080600c0b82526001600160401b03808260681c1660208401528160a81c16604083015261ffff8160e81c16606083015260f81c6080820152f35b5034610582576000366003190112610582576040517f00000000000000000000000000000000000000000000000000000000000000006001600160a01b03168152602090f35b50346105825760403660031901126105825760043561184f81610571565b602435906001600160a01b037f000000000000000000000000000000000000000000000000000000000000000081163303610e9d5761188c61271b565b6000811290811561190a575b506118f857816118ea847fec4431f2ba1a9382f6b0c4352b888cba6f7db91667d9f776abe5ad8ddc5401b6947f0000000000000000000000000000000000000000000000000000000000000000614112565b6040519384521691602090a2005b60405163128bd24d60e31b8152600490fd5b6119149150614904565b831138611898565b50346105825760803660031901126105825760043561193a81610571565b6064359061194782610571565b61194f6130c4565b601060015460f81c16611a9a5761196461271b565b60008112159081611a6f575b50611a5d576119a2604435337f00000000000000000000000000000000000000000000000000000000000000006134af565b906119ad828261490f565b926024358410611a4b576119c082612614565b84116118f8577ff891b2a411b0e66a5f0a6ff1368670fefa287a13f541eb633a386a1a9cc7046b91611a0e611a3192611a076119fb8861309e565b6001600160801b031690565b9083614112565b6040805194855260208501959095526001600160a01b0316933393918291820190565b0390a36100166000600080516020614b3183398151915255565b60405163fa6ad35560e01b8152600490fd5b604051631d99ddbf60e01b8152600490fd5b90507f0000000000000000000000000000000000000000000000000000000000000000111538611970565b6040516313d0ff5960e31b8152600490fd5b5034610582576000366003190112610582576040517f00000000000000000000000000000000000000000000000000000000000000006001600160a01b03168152602090f35b5034610582576040366003190112610582576108f6600435611b1381610571565b611b1b6130c4565b60243590333333613012565b5034610582576040366003190112610582576108f6600435611b4881610571565b611b506130c4565b60243590333333613eff565b6001600160a01b03808316911690811491908215611b7957505090565b60009081526003602090815260408083206001600160a01b0390941683529290522060ff9150541690565b6001600160401b038111611bb757604052565b634e487b7160e01b600052604160045260246000fd5b60a081019081106001600160401b03821117611bb757604052565b61010081019081106001600160401b03821117611bb757604052565b90601f801991011681019081106001600160401b03821117611bb757604052565b60405190611c3282611be8565b8160e06000918281528260208201528260408201528260608201528260808201528260a08201528260c08201520152565b5190610c0c826116e3565b5190610c0c82610571565b51906001600160401b038216820361058257565b51906001600160801b038216820361058257565b506040513d6000823e3d90fd5b611cb6611c25565b5060405163c8c7fe6b60e01b815260ff91909116600482015261010080826024817f00000000000000000000000000000000000000000000000000000000000000006001600160a01b03165afa908115611dd2575b600091611d19575b50905090565b82813d8311611dcb575b611d2d8183611c04565b810103126107875750611dbf60e060405192611d4884611be8565b611d5181611c63565b8452611d5f60208201611c6e565b6020850152611d7060408201611c6e565b6040850152611d8160608201611c79565b6060850152611d9260808201611c79565b6080850152611da360a08201611c79565b60a0850152611db460c08201611c79565b60c085015201611c8d565b60e08201528038611d13565b503d611d23565b611dda611ca1565b611d0b565b90611de8611c25565b5060009060ff92837f000000000000000000000000000000000000000000000000000000000000000016925b8385821610611e2f57604051633640530560e01b8152600490fd5b611e3881611cae565b60208101516001600160a01b03848116911614611e5a57506001018416611e14565b93505050915090565b65010000000000421015611e7c5764ffffffffff421690565b604051633d32ffdb60e01b8152600490fd5b90604051611e9b81611bcd565b608081935480600c0b83526001600160401b03808260681c1660208501528160a81c16604084015261ffff8160e81c16606084015260f81c910152565b50634e487b7160e01b600052601160045260246000fd5b64ffffffffff9182169116818110611f05570390565b611f0d611ed8565b0390565b66038d7ea4c68000908060001904821181151516611f2d570290565b611f35611ed8565b0290565b8060001904821181151516611f2d570290565b906001600160401b038080931691168092038111611f68570190565b611f70611ed8565b0190565b611f7c611e63565b611fa6611f9c611f9660015464ffffffffff9060d01c1690565b83611eef565b64ffffffffff1690565b9081611fb0575050565b8161200b611fef611fc3610c0c956121b7565b91909167ffffffffffffffff60401b6000549160401b169067ffffffffffffffff60401b191617600055565b6001600160401b03166001600160401b03196000541617600055565b6001547f000000000000000000000000000000000000000000000000000000000000000091906001600160681b031682811015612113575b506001546120649060681c6001600160681b03165b6001600160681b031690565b91821015612096575b50506001805464ffffffffff60d01b191660d09290921b64ffffffffff60d01b16919091179055565b6120d76120d261210c936120cd6120e7947f0000000000000000000000000000000000000000000000000000000000000000611f39565b612c91565b612191565b60005460c01c611f4c565b611f4c565b600080546001600160c01b031660c09290921b6001600160c01b031916919091179055565b388061206d565b61215e61214a6120d261218b936120cd867f0000000000000000000000000000000000000000000000000000000000000000611f39565b60005460801c6001600160401b0316611f4c565b6000805467ffffffffffffffff60801b191660809290921b67ffffffffffffffff60801b16919091179055565b38612043565b6001600160401b03908181116121a5571690565b6040516372a1cb5160e11b8152600490fd5b906000546001600160401b0392838083169260401c1693816121da575b50509190565b8161222d612227612207979461223961223f976122338761220e612233996122006124a4565b9e8f61225e565b169d61236e565b169b61222d612227670de0b6b3a7640000998a93611f39565b84611f39565b04612191565b90611f4c565b98611f39565b9138806121d4565b81198111611f68570190565b818110611f05570390565b7f00000000000000000000000000000000000000000000000000000000000000008082116122e757506120d2670de0b6b3a76400006122c061096b937f0000000000000000000000000000000000000000000000000000000000000000611f39565b047f0000000000000000000000000000000000000000000000000000000000000000612247565b61096b916120d29161235a670de0b6b3a76400009161232a836122c0837f0000000000000000000000000000000000000000000000000000000000000000611f39565b93818110612361575b037f0000000000000000000000000000000000000000000000000000000000000000611f39565b0490612247565b612369611ed8565b612333565b7f00000000000000000000000000000000000000000000000000000000000000008082116123f757506120d2670de0b6b3a76400006123d061096b937f0000000000000000000000000000000000000000000000000000000000000000611f39565b047f0000000000000000000000000000000000000000000000000000000000000000612247565b61096b916120d29161235a670de0b6b3a76400009161243a836123d0837f0000000000000000000000000000000000000000000000000000000000000000611f39565b9381811061246a575b037f0000000000000000000000000000000000000000000000000000000000000000611f39565b612472611ed8565b612443565b50634e487b7160e01b600052601260045260246000fd5b8115612498570490565b6124a0612477565b0490565b6000546001546124e666038d7ea4c68000916001600160401b036001600160681b0390846124d6828816848616611f39565b049560401c169160681c16611f39565b04816124f3575050600090565b670de0b6b3a764000090806000190482118115151661251157020490565b612519611ed8565b020490565b66038d7ea4c68000916001600160681b036001600160401b036124a093169116611f39565b519069ffffffffffffffffffff8216820361058257565b604051633fabe5a360e21b81529060a090829060049082906001600160a01b03165afa9081156125f8575b6000916125ac575b50600081131561259a5790565b60405163fd1ee34960e01b8152600490fd5b9060a0823d82116125f0575b816125c560a09383611c04565b8101031261078757506125d781612543565b506125e9608060208301519201612543565b503861258d565b3d91506125b8565b612600611ca1565b612585565b90816020910312610582575190565b6040516370a0823160e01b8152306004820152906001600160a01b0316602082602481845afa91821561269e575b60009261266e575b5060005260026020526001600160801b036040600020541690818110611f05570390565b61269091925060203d8111612697575b6126888183611c04565b810190612605565b903861264a565b503d61267e565b6126a6611ca1565b612642565b600082128015600160ff1b84018312166126d5575b6001600160ff1b038301821316611f05570390565b6126dd611ed8565b6126c0565b6000811280156001600160ff1b0383900384131661270e575b600160ff1b829003831216611f68570190565b612716611ed8565b6126fb565b61096b612726611e63565b612749612744611f9c6001549364ffffffffff8560d01c1690611eef565b6121b7565b6040516370a0823160e01b8152306004820152929091906020846024816001600160a01b037f0000000000000000000000000000000000000000000000000000000000000000165afa93841561283b575b600094612803575b50916127f76127f16127f1936127ea6127fd9666038d7ea4c68000926001600160401b03846127dd826001600160681b039416848616611f39565b0497169160681c16611f39565b0495612848565b91612848565b906126ab565b906126e2565b6127fd939194506127f16127f1936127ea61282e6127f79460203d8111612697576126888183611c04565b97949650509350506127a2565b612843611ca1565b61279a565b6001600160ff1b0381116128595790565b60405163e7e828ad60e01b8152600490fd5b6001600160a01b038116600090815260056020526040902061288f905b54600c0b90565b906000918281600c0b1215612a9d576001600160a01b03821660009081526005602052604090206128c6905b5460e81c61ffff1690565b906129526128f96128f36128ec8660018060a01b03166000526005602052604060002090565b5460f81c90565b92612ae2565b6129227f000000000000000000000000000000000000000000000000000000000000000061255a565b6001600160401b037f00000000000000000000000000000000000000000000000000000000000000001691612cdb565b92849160ff93847f000000000000000000000000000000000000000000000000000000000000000016935b848682161061299157505050505050121590565b61299c838284612dcc565b6129ab575b600101851661297d565b9587811215612a90576001612a8787926127fd612a8288612a7c612a7060808f612a27612a1a6129fc6129e0612a6194611cae565b6001600160a01b03909816600090815260066020526040902090565b6020888101516001600160a01b031660009081529190526040902090565b546001600160801b031690565b6040860151612a3e906001600160a01b031661255a565b6001600160801b03612a5a60608901516001600160401b031690565b9216612cbc565b9301516001600160401b031690565b6001600160401b031690565b90612c7e565b612848565b979150506129a1565b5050505050505050600190565b505050600190565b600c0b6c7fffffffffffffffffffffffff198114612ac4575b60000390565b612acc611ed8565b612abe565b600160ff1b8114612ac45760000390565b6000600c82900b12612b1e5766038d7ea4c68000612b1861096b926001600160401b0360005416906001600160681b0316611f39565b04612848565b612b4f612a8261096b92612b406001600160401b0360005460401c1691612aa5565b6001600160681b03169061251e565b612ad1565b6001600160a01b0381166000908152600560205260409020612b7590612888565b906000918281600c0b1215612c6b576001600160a01b0382166000908152600560205260409020612ba5906128bb565b90612bcb6128f96128f36128ec8660018060a01b03166000526005602052604060002090565b92849160ff93847f000000000000000000000000000000000000000000000000000000000000000016935b8486821610612c09575050505050501290565b612c14838284612dcc565b612c23575b6001018516612bf6565b9587811215612c61576001612c5887926127fd612a8288612a7c612a7060a08f612a27612a1a6129fc6129e0612a6194611cae565b97915050612c19565b5050505050505090565b505090565b6000901561096b5750600190565b670de0b6b3a7640000916124a091611f39565b61248e907f000000000000000000000000000000000000000000000000000000000000000090611f39565b6001600160401b0391612cce91611f39565b9116908115612498570490565b9190612cee6001600160401b0391612848565b6000808513949082136001600160ff1b03868216848204841116612d9f575b600160ff1b96600085129185918316858a05831216612d92575b60008512938416828a05861216612d85575b058312911616612d78575b029116918215612d6b575b8114600019831416612d5f570590565b612d67611ed8565b0590565b612d73612477565b612d4f565b612d80611ed8565b612d44565b612d8d611ed8565b612d39565b612d9a611ed8565b612d27565b612da7611ed8565b612d0d565b60ff1660108110612dbf575b600f190190565b612dc7611ed8565b612db8565b9060ff81169260108410600014612ded575050600161ffff921b1616151590565b915091601811612dfe575050600090565b600160ff612e0c8194612dac565b161b1616151590565b6001600160401b039182169116818110611f05570390565b612f4c90610c0c93612e408451600c0b90565b600c82900b855260009182918683600c83900b8113612fd257612ed5612eae612f22946001600160681b03612ea7612a70612efc97612ea16020612e926120d29a546001600160401b039060801c1690565b9201516001600160401b031690565b90612e15565b9116611f39565b7f00000000000000000000000000000000000000000000000000000000000000009061248e565b7f00000000000000000000000000000000000000000000000000000000000000009061248e565b612f1560408901916120e283516001600160401b031690565b6001600160401b03169052565b600c0b12612fc5575461096e9060801c6001600160401b03165b6001600160401b03166020850152565b815160208301516040840151606085015160809095015160e89590951b61ffff60e81b1660a89190911b67ffffffffffffffff60a81b166001600160681b0390931660689290921b67ffffffffffffffff60681b169190911791909117176001600160f81b031960f89390931b92909216919091179055565b5461096e9060c01c612f3c565b612ed5612eae61300d94613008612058612058613002612a70612efc99612ea16020612e926120d29c5460c01c90565b93612aa5565b611f39565b612f22565b939290936001805460f81c16611a9a5761302f6130339186611b5c565b1590565b610e9d576001600160a01b038181167f00000000000000000000000000000000000000000000000000000000000000009091160361308a5750610c0c92600019830361315f57915061308481614a89565b9161315f565b90613098610c0c949361309e565b926136bc565b6001600160801b03908181116130b2571690565b60405163762ea71160e11b8152600490fd5b600080516020614b3183398151915260018154146130e25760019055565b60405163139b643560e21b8152600490fd5b906001600160681b038080931691168092038111611f68570190565b6001600160681b039182169116818110611f05570390565b600180546cffffffffffffffffffffffffff60681b191660689290921b6cffffffffffffffffffffffffff60681b16919091179055565b61318e6132409293827f00000000000000000000000000000000000000000000000000000000000000006134af565b613196611f74565b6001600160a01b038416600090815260056020526040902061324b906131bb90611e8e565b8051600c0b906132456131eb6131e46131df6131d686612ae2565b6127fd89612848565b6132dc565b8094613435565b979061322761320b8a6132066001546001600160681b031690565b6130f4565b6001600160681b03166001600160681b03196001541617600155565b60015460681c6001600160681b0316613110565b613110565b613128565b86612e2d565b6040519081526001600160a01b0393841693849216907fd1cf3d156d5f8f0d50f6c122ed609cec09d35c9b9fb3fff6ea0959134dae424e90602090a36001600160681b038116613299575050565b600080516020614b118339815191526132d76132c76000936132c285546001600160401b031690565b61251e565b6040519081529081906020820190565b0390a3565b6000811261331f5761330d61096b916133006001600160401b036000541691611f11565b8115613312575b0461338c565b6133b2565b61331a612477565b613307565b61336d61330d61334961335361096b9461334e6001600160401b0360005460401c16938492612ad1565b611f11565b612247565b6001811061337f575b8115613372575b600019010461338c565b612aa5565b61337a612477565b613363565b613387611ed8565b61335c565b6001600160681b03908181116133a0571690565b604051630dc7925560e11b8152600490fd5b6001600160681b03166c7fffffffffffffffffffffffff81116133d557600c0b90565b604051639369ae3560e01b8152600490fd5b600c91820b910b6000821280156c7fffffffffffffffffffffffff198401831216613428575b826c7fffffffffffffffffffffffff01821316611f05570390565b613430611ed8565b61340d565b91909180600c0b83600c0b8181126134a257600012613468575061345991926133e7565b6001600160681b031690600090565b6000136134895761347991926133e7565b6001600160681b03169060009190565b61349290612aa5565b6001600160681b03908116921690565b5050509050600090600090565b6040516370a0823160e01b8082523060048301529390926020926001600160a01b031691908385602481865afa94851561360f575b6000956135f0575b50823b15610582576040516323b872dd60e01b81526001600160a01b03919091166004820152306024820152604481019190915260008160648183865af180156135e3575b6135d0575b503d80156135c75760201461354a57600080fd5b816000803e6000515b156135b55760405193845230600485015261096b93908290829060249082905afa9182156135a8575b60009261358b575b5050612253565b6135a19250803d10612697576126888183611c04565b3880613584565b6135b0611ca1565b61357c565b60405163073d1efd60e51b8152600490fd5b50600019613553565b806114ce6135dd92611ba4565b38613536565b6135eb611ca1565b613531565b613608919550843d8611612697576126888183611c04565b93386134ec565b613617611ca1565b6134e4565b90604051604081018181106001600160401b03821117611bb75760405291546001600160801b038116835260801c6020830152565b906001600160801b038080931691168092038111611f68570190565b906001600160801b03166001600160801b0319825416179055565b9060206001600160801b03916136a1838251168561366d565b0151908254916001600160801b03199060801b169116179055565b9190926136dc6136d76001600160801b0380931685856134af565b61309e565b916136e681611ddf565b9061370b6137068260018060a01b03166000526002602052604060002090565b61361c565b926137366137298661372487516001600160801b031690565b613651565b6001600160801b03168552565b83516001600160801b0316906137596119fb60e08601516001600160801b031690565b91161161385557613825613800856138509461381f7ffa56f7b24f17183d81894d3ac2ee654e3c26388d17a28dbd9549b8114304e1f49761381a876137be8e6137dc6137d5612a1a856137be8560018060a01b03166000526006602052604060002090565b9060018060a01b0316600052602052604060002090565b9889613651565b9889956137fb8560018060a01b03166000526002602052604060002090565b613688565b6001600160a01b0316600090815260066020526040902090565b61366d565b89613867565b6040516001600160801b0390941684526001600160a01b039081169581169416929081906020820190565b0390a4565b604051637ac7b99d60e11b8152600490fd5b909290916001600160801b03908116158080613a2f575b1561396157505050613891825160ff1690565b60ff8116601081101561390a5750506138de6138c26138b4610c0c945160ff1690565b600160ff61ffff92161b1690565b6001600160a01b03909216600090815260056020526040902090565b906138ef825461ffff9060e81c1690565b825461ffff60e81b1916911760e81b61ffff60e81b16179055565b601891935010613918575050565b6139366138c261392a610c0c94612dac565b600160ff8092161b1690565b90613942825460f81c90565b82546001600160f81b0316911760f81b6001600160f81b031916179055565b159182613a24575b5050613973575050565b815160ff168060108110156139cf5750506139a36138c261399b6138b4610c0c955160ff1690565b1961ffff1690565b906139b4825461ffff9060e81c1690565b825461ffff60e81b1916911660e81b61ffff60e81b16179055565b6018919350106139dd575050565b6139f96138c26139f261392a610c0c95612dac565b1960ff1690565b90613a05825460f81c90565b82546001600160f81b0316911660f81b6001600160f81b031916179055565b161590503880613969565b50818316151561387e565b93929093600260015460f81c16611a9a5761302f613a589186611b5c565b610e9d576001600160a01b0384811683821614613ad057807f00000000000000000000000000000000000000000000000000000000000000001690821614600014613abc5750610c0c926000198303613ae2579150613ab682614a2b565b91613ae2565b90613aca610c0c949361309e565b92613dc0565b60405163e397a99b60e01b8152600490fd5b919091613aed611f74565b6001600160a01b0381166000908152600560205260409020613b0e90611e8e565b6001600160a01b0384166000908152600560205260409020613b2f90611e8e565b928151613b3c90600c0b90565b938051613b4990600c0b90565b92613b5386612ae2565b613b5c84612848565b613b65916126ab565b92613b6f85612ae2565b90613b7990612848565b613b82916126e2565b90613b8c846132dc565b613b9681936132dc565b978893613ba291613d5b565b98613bad9197613435565b98878a600154613bc3906001600160681b031690565b90613bcd916130f4565b90613bd791613110565b613bf7906001600160681b03166001600160681b03196001541617600155565b60015460681c6001600160681b031690613c10916130f4565b90613c1a91613110565b613c2390613128565b613c2d9187612e2d565b613c379187612e2d565b60008112613cf2575b506001600160681b0391828216613ca3575b50508116613c5e575050565b600080516020614b118339815191526132d7613c876000936132c285546001600160401b031690565b6040519081526001600160a01b03909416939081906020820190565b600080516020614b11833981519152613ce8613ccc6000946132c286546001600160401b031690565b6040519081526001600160a01b03909316929081906020820190565b0390a33880613c52565b613cfb90612ad1565b7f000000000000000000000000000000000000000000000000000000000000000011613d4957613d2d61302f8361286b565b613d375738613c40565b604051630a62fbdb60e11b8152600490fd5b604051637139da2360e11b8152600490fd5b919082600c0b81600c0b8181136134a257600013613d7e575061345991926133e7565b600012613d8f5761347991926133e7565b613d9890612aa5565b6001600160681b03928316921690565b6001600160801b039182169116818110611f05570390565b6001600160a01b0381811660008181526006602081815260408084208987168086529083528185205489881686529383528185209085529091529091205494969591946001600160801b039492939291908516908516613e208882613da8565b91613e2b8982613651565b918387613e4a8760018060a01b03166000526006602052604060002090565b6001600160a01b0390911660009081526020919091526040902090613e6e9161366d565b6001600160a01b038b81166000908152600660209081526040808320938b16835292905220613e9e90849061366d565b613ea787611ddf565b93613eb3918587613867565b613ebd928a613867565b613ec69061286b565b15613d3757806020927f29db89d45e1a802b4d55e202984fce9faf1d30aedf86503ff1ea0ed9ebb64201946040519716875216951693a4565b93929093600460015460f81c16611a9a5761302f613f1d9186611b5c565b610e9d576001600160a01b038181167f000000000000000000000000000000000000000000000000000000000000000090911603613f745750610c0c926000198303613f88579150613f6e82614a2b565b91613f88565b90613f82610c0c949361309e565b926141c3565b909161324092613f96611f74565b6001600160a01b0383166000908152600560205260409020613fb790611e8e565b614021613fc58251600c0b90565b613fda613fd182612ae2565b6127f787612848565b92613245613ff1613fea866132dc565b8094613d5b565b61400d61320b8361323b60019e959e546001600160681b031690565b60015460681c6001600160681b03166130f4565b600081126140cd575b5061405682827f0000000000000000000000000000000000000000000000000000000000000000614112565b6040519182526001600160a01b0392831692169082907f9b1bfa7fa9ee420a16e124f794c35ac9f90472acc99140eb2f6447c714cad8eb90602090a36001600160681b0382166140a4575050565b600080516020614b118339815191526132d76132c76000946132c286546001600160401b031690565b6140d690612ad1565b7f000000000000000000000000000000000000000000000000000000000000000011613d495761410861302f8461286b565b613d37573861402a565b9092916001600160a01b0390911690813b156105825760405163a9059cbb60e01b81526001600160a01b0394909416600485015260248401526000929083908290604490829084905af180156141b6575b6141a7575b503d801561419c5760201461417b575080fd5b90602081803e515b1561418a57565b60405163cefaffeb60e01b8152600490fd5b509050600019614183565b6141b090611ba4565b38614168565b6141be611ca1565b614163565b909260018060a01b03918281169283600052600660205261427c6001600160801b0392610b6f8461420a8960406000209060018060a01b0316600052602052604060002090565b54166142168782613da8565b906142496142368b60018060a01b03166000526002602052604060002090565b6142438a8a835416613da8565b9061366d565b61426d8261381a8c6137be8860018060a01b03166000526006602052604060002090565b6142768a611ddf565b84613867565b15613d3757806020927fd6d480d5b3068db003533b170d67561494d72e3bf9fa40a266471351ebba9e169416956142b4878983614112565b60405196875216951693a4565b91908110156142d15760051b0190565b634e487b7160e01b600052603260045260246000fd5b3561096b81610571565b90604051608081016001600160401b0382821081831117611bb7576060916040528294549063ffffffff821684528160201c1660208401526001600160801b0381831c16604084015260e01c910152565b60019063ffffffff809116908114611f68570190565b9291909260016008815460f81c16611a9a575a94614374611f74565b60005b8481106144ab5750505061444b9061443161440b6136d761439d610c0c97985a90612253565b6144046143eb6143c76143c28860018060a01b03166000526007602052604060002090565b6142f1565b986120d26143e16143dc8c5163ffffffff1690565b614342565b63ffffffff168b52565b612f1560208a01916120e283516001600160401b031690565b4890611f39565b614424604086019161372483516001600160801b031690565b6001600160801b03169052565b6001600160a01b0316600090815260076020526040902090565b815160208084015160408501516060958601516001600160e01b031960e09190911b166fffffffffffffffffffffffffffffffff60601b9190961b1663ffffffff9093166bffffffffffffffff000000009190921b161717919091179055565b806144c96144c36144be869489876142c1565b6142e7565b866144cf565b01614377565b906144dc61302f82612b54565b6148c9576001600160a01b038116600090815260056020526040902061450190611e8e565b9061450d8251600c0b90565b9061451782612ae2565b91614527606085015161ffff1690565b90614536608086015160ff1690565b936145607f000000000000000000000000000000000000000000000000000000000000000061255a565b92600095865b60ff7f00000000000000000000000000000000000000000000000000000000000000001660ff821610614737575050506145df6145d9612a82856145d46001600160401b037f000000000000000000000000000000000000000000000000000000000000000016809a611f39565b61248e565b826126e2565b916000831261472e575b6145f2836132dc565b96876145fe9187612e2d565b6001600160a01b038516600090815260056020526040902080546001600160e81b0316905561462e908790613435565b6001546001600160681b031690614644916130f4565b614664906001600160681b03166001600160681b03196001541617600155565b60015460681c6001600160681b03169061467d91613110565b61468690613128565b61468f916126ab565b61469890614904565b926146a39184612cbc565b6040805193845260208401919091526001600160a01b039182169485939216917f1547a878dc89ad3c367b6338b4be6a65a5dd74fb77ae044da1e8747ef1f4f62f9190a380600c0b6000126146f6575050565b600080516020614b118339815191526132d76132c760009361472861472286546001600160401b031690565b916148db565b9061251e565b600092506145e9565b89614743838386612dcc565b614754575b5060010160ff16614566565b81886001926148889b7f9850ab1af75177e4a9201c65a2cf7976d5d28e40ef63494b44366f86b2f9412e61478960ff97611cae565b60208101516001600160a01b03169e8f9361482b6148116147c3612a1a886137be8c60018060a01b03166000526006602052604060002090565b966147f76147e7826137be8d60018060a01b03166000526006602052604060002090565b80546001600160801b0319169055565b6001600160a01b0316600090815260026020526040902090565b6142438761482683546001600160801b031690565b613da8565b61488261487c612a7060c061486d61484f610c6660408a015160018060a01b031690565b60608901516001600160401b0316906001600160801b038c16612cbc565b9601516001600160401b031690565b84612c7e565b90612247565b9e6148bd6040519283928a8060a01b0380809216991697169583602090939291936001600160801b0360408201951681520152565b0390a491505089614748565b604051636ef5bcdd60e11b8152600490fd5b600081600c0b126148f2576001600160681b031690565b60405163363b64b760e11b8152600490fd5b600081126148f25790565b906149d461491f61096b93611ddf565b61499f60606149ca61493c60018060a01b0360408601511661255a565b6001600160401b039384918260c08801511661498e670de0b6b3a7640000948286938410614a1e575b8303167f0000000000000000000000000000000000000000000000000000000000000000611f39565b04808410614a11575b830390611f39565b04956130087f000000000000000000000000000000000000000000000000000000000000000061255a565b9201511690611f39565b908015614a04575b7f0000000000000000000000000000000000000000000000000000000000000000910461248e565b614a0c612477565b6149dc565b614a19611ed8565b614997565b614a26611ed8565b614965565b614a4e614a36611e63565b6106a864ffffffffff918260015460d01c1690611eef565b506001600160a01b03909116600090815260056020526040812054600c0b919080831315614a83575061472861096b926148db565b91505090565b614a94614a36611e63565b6001600160a01b03909216600090815260056020526040812054600c0b92915080831215614a835750614728614acc61096b93612aa5565b6148db565b50600036818037808036817f00000000000000000000000000000000000000000000000000000000000000005af43d82803e15614b0c573d90f35b3d90fdfeddf252ad1be2c89b69c2b068fc378daa952ba7f163c4a11628f55a4df523b3efc98c7730ba19013824f711a9ab74801459b27e6ff7685cb924587c89aeda53aca26469706673582212203844e6b43dcd1acb76ca8e4fbe2dcbe8f92de21a6f9d8497ad844eba1ac2545664736f6c634300080f0033",
  "linkReferences": {},
  "deployedLinkReferences": {}
}