{
  "_format": "hh-sol-artifact-1",
  "contractName": "MockFeedDec8",
  "sourceName": "contracts/MockFeedDec8.sol",
  "abi": [
    {
      "inputs": [],
      "name": "decimals",
      "outputs": [
        {
          "internalType": "uint8",
          "name": "",
          "type": "uint8"
        }
      ],
      "stateMutability": "pure",
      "type": "function"
    },
    {
      "inputs": [],
      "name": "latestAnswer",
      "outputs": [
        {
          "internalType": "int256",
          "name": "",
          "type": "int256"
        }
      ],
      "stateMutability": "view",
      "type": "function"
    },
    {
      "inputs": [],
      "name": "latestRoundData",
      "outputs": [
        {
          "internalType": "uint80",
          "name": "",
          "type": "uint80"
        },
        {
          "internalType": "int256",
          "name": "",
          "type": "int256"
        },
        {
          "internalType": "uint256",
          "name": "",
          "type": "uint256"
        },
        {
          "internalType": "uint256",
          "name": "",
          "type": "uint256"
        },
        {
          "internalType": "uint80",
          "name": "",
          "type": "uint80"
        }
      ],
      "stateMutability": "view",
      "type": "function"
    },
    {
      "inputs": [
        {
          "internalType": "int256",
          "name": "answer",
          "type": "int256"
        }
      ],
      "name": "setLatestAnswer",
      "outputs": [],
      "stateMutability": "nonpayable",
      "type": "function"
    }
  ],
  "bytecode": "0x608060405234801561001057600080fd5b50610102806100206000396000f3fe6080604052348015600f57600080fd5b506004361060465760003560e01c806304ea97b014604b578063313ce56714605d57806350d25bcd146071578063feaf968c146086575b600080fd5b605b605636600460b4565b600055565b005b604051600881526020015b60405180910390f35b607960005481565b6040519081526020016068565b60008054604080518381526020810192909252429082018190526060820152608081019190915260a0016068565b60006020828403121560c557600080fd5b503591905056fea264697066735822122011c21935a8e182a396bd94b9ee07b489de559744a18865d42454f8e811b5816e64736f6c63430008140033",
  "linkReferences": {},
  "deployedLinkReferences": {}
}