{
  "_format": "hh-sol-artifact-1",
  "contractName": "CometExt",
  "sourceName": "contracts/CometExt.sol",
  "abi": [
    {
      "inputs": [
        {
          "components": [
            {
              "internalType": "bytes32",
              "name": "name32",
              "type": "bytes32"
            },
            {
              "internalType": "bytes32",
              "name": "symbol32",
              "type": "bytes32"
            }
          ],
          "internalType": "struct CometConfiguration.ExtConfiguration",
          "name": "config",
          "type": "tuple"
        }
      ],
      "stateMutability": "nonpayable",
      "type": "constructor"
    },
    {
      "inputs": [],
      "name": "BadAmount",
      "type": "error"
    },
    {
      "inputs": [],
      "name": "BadNonce",
      "type": "error"
    },
    {
      "inputs": [],
      "name": "BadSignatory",
      "type": "error"
    },
    {
      "inputs": [],
      "name": "InvalidInt104",
      "type": "error"
    },
    {
      "inputs": [],
      "name": "InvalidInt256",
      "type": "error"
    },
    {
      "inputs": [],
      "name": "InvalidUInt104",
      "type": "error"
    },
    {
      "inputs": [],
      "name": "InvalidUInt128",
      "type": "error"
    },
    {
      "inputs": [],
      "name": "InvalidUInt64",
      "type": "error"
    },
    {
      "inputs": [],
      "name": "InvalidValueS",
      "type": "error"
    },
    {
      "inputs": [],
      "name": "InvalidValueV",
      "type": "error"
    },
    {
      "inputs": [],
      "name": "NegativeNumber",
      "type": "error"
    },
    {
      "inputs": [],
      "name": "SignatureExpired",
      "type": "error"
    },
    {
      "anonymous": false,
      "inputs": [
        {
          "indexed": true,
          "internalType": "address",
          "name": "owner",
          "type": "address"
        },
        {
          "indexed": true,
          "internalType": "address",
          "name": "spender",
          "type": "address"
        },
        {
          "indexed": false,
          "internalType": "uint256",
          "name": "amount",
          "type": "uint256"
        }
      ],
      "name": "Approval",
      "type": "event"
    },
    {
      "inputs": [
        {
          "internalType": "address",
          "name": "manager",
          "type": "address"
        },
        {
          "internalType": "bool",
          "name": "isAllowed_",
          "type": "bool"
        }
      ],
      "name": "allow",
      "outputs": [],
      "stateMutability": "nonpayable",
      "type": "function"
    },
    {
      "inputs": [
        {
          "internalType": "address",
          "name": "owner",
          "type": "address"
        },
        {
          "internalType": "address",
          "name": "manager",
          "type": "address"
        },
        {
          "internalType": "bool",
          "name": "isAllowed_",
          "type": "bool"
        },
        {
          "internalType": "uint256",
          "name": "nonce",
          "type": "uint256"
        },
        {
          "internalType": "uint256",
          "name": "expiry",
          "type": "uint256"
        },
        {
          "internalType": "uint8",
          "name": "v",
          "type": "uint8"
        },
        {
          "internalType": "bytes32",
          "name": "r",
          "type": "bytes32"
        },
        {
          "internalType": "bytes32",
          "name": "s",
          "type": "bytes32"
        }
      ],
      "name": "allowBySig",
      "outputs": [],
      "stateMutability": "nonpayable",
      "type": "function"
    },
    {
      "inputs": [
        {
          "internalType": "address",
          "name": "owner",
          "type": "address"
        },
        {
          "internalType": "address",
          "name": "spender",
          "type": "address"
        }
      ],
      "name": "allowance",
      "outputs": [
        {
          "internalType": "uint256",
          "name": "",
          "type": "uint256"
        }
      ],
      "stateMutability": "view",
      "type": "function"
    },
    {
      "inputs": [
        {
          "internalType": "address",
          "name": "spender",
          "type": "address"
        },
        {
          "internalType": "uint256",
          "name": "amount",
          "type": "uint256"
        }
      ],
      "name": "approve",
      "outputs": [
        {
          "internalType": "bool",
          "name": "",
          "type": "bool"
        }
      ],
      "stateMutability": "nonpayable",
      "type": "function"
    },
    {
      "inputs": [],
      "name": "baseAccrualScale",
      "outputs": [
        {
          "internalType": "uint64",
          "name": "",
          "type": "uint64"
        }
      ],
      "stateMutability": "pure",
      "type": "function"
    },
    {
      "inputs": [],
      "name": "baseIndexScale",
      "outputs": [
        {
          "internalType": "uint64",
          "name": "",
          "type": "uint64"
        }
      ],
      "stateMutability": "pure",
      "type": "function"
    },
    {
      "inputs": [
        {
          "internalType": "address",
          "name": "account",
          "type": "address"
        }
      ],
      "name": "baseTrackingAccrued",
      "outputs": [
        {
          "internalType": "uint64",
          "name": "",
          "type": "uint64"
        }
      ],
      "stateMutability": "view",
      "type": "function"
    },
    {
      "inputs": [
        {
          "internalType": "address",
          "name": "account",
          "type": "address"
        },
        {
          "internalType": "address",
          "name": "asset",
          "type": "address"
        }
      ],
      "name": "collateralBalanceOf",
      "outputs": [
        {
          "internalType": "uint128",
          "name": "",
          "type": "uint128"
        }
      ],
      "stateMutability": "view",
      "type": "function"
    },
    {
      "inputs": [],
      "name": "factorScale",
      "outputs": [
        {
          "internalType": "uint64",
          "name": "",
          "type": "uint64"
        }
      ],
      "stateMutability": "pure",
      "type": "function"
    },
    {
      "inputs": [
        {
          "internalType": "address",
          "name": "owner",
          "type": "address"
        },
        {
          "internalType": "address",
          "name": "manager",
          "type": "address"
        }
      ],
      "name": "hasPermission",
      "outputs": [
        {
          "internalType": "bool",
          "name": "",
          "type": "bool"
        }
      ],
      "stateMutability": "view",
      "type": "function"
    },
    {
      "inputs": [
        {
          "internalType": "address",
          "name": "",
          "type": "address"
        },
        {
          "internalType": "address",
          "name": "",
          "type": "address"
        }
      ],
      "name": "isAllowed",
      "outputs": [
        {
          "internalType": "bool",
          "name": "",
          "type": "bool"
        }
      ],
      "stateMutability": "view",
      "type": "function"
    },
    {
      "inputs": [
        {
          "internalType": "address",
          "name": "",
          "type": "address"
        }
      ],
      "name": "liquidatorPoints",
      "outputs": [
        {
          "internalType": "uint32",
          "name": "numAbsorbs",
          "type": "uint32"
        },
        {
          "internalType": "uint64",
          "name": "numAbsorbed",
          "type": "uint64"
        },
        {
          "internalType": "uint128",
          "name": "approxSpend",
          "type": "uint128"
        },
        {
          "internalType": "uint32",
          "name": "_reserved",
          "type": "uint32"
        }
      ],
      "stateMutability": "view",
      "type": "function"
    },
    {
      "inputs": [],
      "name": "maxAssets",
      "outputs": [
        {
          "internalType": "uint8",
          "name": "",
          "type": "uint8"
        }
      ],
      "stateMutability": "pure",
      "type": "function"
    },
    {
      "inputs": [],
      "name": "name",
      "outputs": [
        {
          "internalType": "string",
          "name": "",
          "type": "string"
        }
      ],
      "stateMutability": "view",
      "type": "function"
    },
    {
      "inputs": [],
      "name": "priceScale",
      "outputs": [
        {
          "internalType": "uint64",
          "name": "",
          "type": "uint64"
        }
      ],
      "stateMutability": "pure",
      "type": "function"
    },
    {
      "inputs": [],
      "name": "symbol",
      "outputs": [
        {
          "internalType": "string",
          "name": "",
          "type": "string"
        }
      ],
      "stateMutability": "view",
      "type": "function"
    },
    {
      "inputs": [],
      "name": "totalsBasic",
      "outputs": [
        {
          "components": [
            {
              "internalType": "uint64",
              "name": "baseSupplyIndex",
              "type": "uint64"
            },
            {
              "internalType": "uint64",
              "name": "baseBorrowIndex",
              "type": "uint64"
            },
            {
              "internalType": "uint64",
              "name": "trackingSupplyIndex",
              "type": "uint64"
            },
            {
              "internalType": "uint64",
              "name": "trackingBorrowIndex",
              "type": "uint64"
            },
            {
              "internalType": "uint104",
              "name": "totalSupplyBase",
              "type": "uint104"
            },
            {
              "internalType": "uint104",
              "name": "totalBorrowBase",
              "type": "uint104"
            },
            {
              "internalType": "uint40",
              "name": "lastAccrualTime",
              "type": "uint40"
            },
            {
              "internalType": "uint8",
              "name": "pauseFlags",
              "type": "uint8"
            }
          ],
          "internalType": "struct CometStorage.TotalsBasic",
          "name": "",
          "type": "tuple"
        }
      ],
      "stateMutability": "view",
      "type": "function"
    },
    {
      "inputs": [
        {
          "internalType": "address",
          "name": "",
          "type": "address"
        }
      ],
      "name": "totalsCollateral",
      "outputs": [
        {
          "internalType": "uint128",
          "name": "totalSupplyAsset",
          "type": "uint128"
        },
        {
          "internalType": "uint128",
          "name": "_reserved",
          "type": "uint128"
        }
      ],
      "stateMutability": "view",
      "type": "function"
    },
    {
      "inputs": [
        {
          "internalType": "address",
          "name": "",
          "type": "address"
        }
      ],
      "name": "userBasic",
      "outputs": [
        {
          "internalType": "int104",
          "name": "principal",
          "type": "int104"
        },
        {
          "internalType": "uint64",
          "name": "baseTrackingIndex",
          "type": "uint64"
        },
        {
          "internalType": "uint64",
          "name": "baseTrackingAccrued",
          "type": "uint64"
        },
        {
          "internalType": "uint16",
          "name": "assetsIn",
          "type": "uint16"
        },
        {
          "internalType": "uint8",
          "name": "_reserved",
          "type": "uint8"
        }
      ],
      "stateMutability": "view",
      "type": "function"
    },
    {
      "inputs": [
        {
          "internalType": "address",
          "name": "",
          "type": "address"
        },
        {
          "internalType": "address",
          "name": "",
          "type": "address"
        }
      ],
      "name": "userCollateral",
      "outputs": [
        {
          "internalType": "uint128",
          "name": "balance",
          "type": "uint128"
        },
        {
          "internalType": "uint128",
          "name": "_reserved",
          "type": "uint128"
        }
      ],
      "stateMutability": "view",
      "type": "function"
    },
    {
      "inputs": [
        {
          "internalType": "address",
          "name": "",
          "type": "address"
        }
      ],
      "name": "userNonce",
      "outputs": [
        {
          "internalType": "uint256",
          "name": "",
          "type": "uint256"
        }
      ],
      "stateMutability": "view",
      "type": "function"
    },
    {
      "inputs": [],
      "name": "version",
      "outputs": [
        {
          "internalType": "string",
          "name": "",
          "type": "string"
        }
      ],
      "stateMutability": "view",
      "type": "function"
    }
  ],
  "bytecode": "0x60c0346100a157610ee3906001600160401b0390601f38849003908101601f19168201908382118383101761008b57808391604096879485528339810103126100a1578251918284019081118382101761008b578352602080825192838552015192019182526080525160a05251610e3c90816100a7823960805181610cc9015260a051816107730152f35b634e487b7160e01b600052604160045260246000fd5b600080fdfe6040608081526004908136101561001557600080fd5b600091823560e01c90816306fdde0314610af8578163095ea7b314610a215781630f21d96b146109fe578163110496e5146109ca5781632b92a07d1461095e5781632e04b8e71461092857816354fd4d50146108ff57816359e017bd146108a65781635c2549ee1461085457816394b2294b1461083857816395d89b411461075d57816396e7a9c11461073b578163a0fbddaf1461071c578163a1654379146106ce578163a20ed596146106b0578163ab9ba7f41461066a578163b9f0baf714610554578163bb24d9941461025d57508063c5fa15cf146101f2578063cde68041146101ca578063dc4abafd1461015c5763dd62ed3e1461011557600080fd5b34610158578060031936011261015857602091610141610133610b6d565b61013b610b88565b90610c1b565b156101525750600019905b51908152f35b9061014c565b5080fd5b50346101585760203660031901126101585760a09181906001600160a01b03610183610b6d565b1681526005602052205481519181600c0b835267ffffffffffffffff808360681c1660208501528260a81c169083015261ffff8160e81c16606083015260f81c6080820152f35b50346101585780600319360112610158576020906101e9610133610b6d565b90519015158152f35b50346101585760203660031901126101585760809181906001600160a01b03610219610b6d565b1681526007602052205481519163ffffffff8216835267ffffffffffffffff8260201c1660208401526001600160801b038260601c169083015260e01c6060820152f35b8383346101585761010092836003193601126105505761027b610b6d565b90610284610b88565b90604435928315159687850361054c57606435906084359260a4359960ff8b16809b036105485760e435907f7fffffffffffffffffffffffffffffff5d576e7357a4501ddfe92f46681b20a0821161053857601b8c14158061052d575b61051d576102ed610cc7565b805190602001209b6102fd610bed565b80519060200120918b5192602084019e8f7f8b73c3c69bb8fe3d512ecc4cf759cc79239f7b179b0ffacaa9a75d522b39400f90528d85015260608401524660808401523060a084015260a0835260c0830167ffffffffffffffff958482108783111761050a578d9e9f828d9e9f52855190209260e08601917fab8e80cad03d9def1f2f6f14831e15fd29eb88f59ac40032be3f8047b5ee33ed835260018060a01b039d8e809216809b89015216610120870152610140860152886101608601528961018086015260c082526101a0850191808310888411176104f5578f8390525190206101c085019261190160f01b84526101c28601526101e285015260428152610220840195818710908711176104e257858e52519020845261024082015260c43561026082015261028001528980526020908a9060809060015afa156104d85788519485169081156104c85781036104b8578852826020528688209081549160001983146104a55760018301905503610496574210156104885750906104859291610d70565b51f35b8451630819bdcd60e01b8152fd5b5084516312f55d3b60e21b8152fd5b634e487b7160e01b8a526011855260248afd5b87516310188bcb60e21b81528490fd5b88516310188bcb60e21b81528590fd5b87513d8a823e3d90fd5b634e487b7160e01b8f5260418a5260248ffd5b5050634e487b7160e01b8f5260418a5260248ffd5b634e487b7160e01b8f5260418b5260248ffd5b8951639c5b7fcf60e01b81528790fd5b50601c8c14156102e1565b895163ed9a019560e01b81528790fd5b8980fd5b8680fd5b8280fd5b82843461066757806003193601126106675780825161057281610b9e565b81815281602082015281848201528160608201528160808201528160a08201528160c082015260e001525467ffffffffffffffff90818116906001549283928551926105bd84610b9e565b81845260208401968382821c1688528381860192818160801c168452606087019060c01c815260808701926cffffffffffffffffffffffffff968795868b16865260a08a0197878c60681c16895260c08b019a64ffffffffff809d60d01c168c5260e0019c60f81c8d528284519e8f928352511690602001525116908b01525116606089015251166080870152511660a0850152511660c08301525160ff1660e082015261010090f35b80fd5b5050346101585760203660031901126101585760209167ffffffffffffffff9082906001600160a01b0361069c610b6d565b16815260058552205460a81c169051908152f35b50503461015857816003193601126101585760209051620f42408152f35b50503461015857806003193601126101585760ff816020936106ee610b6d565b6106f6610b88565b6001600160a01b0391821683526003875283832091168252855220549151911615158152f35b505034610158578160031936011261015857602090516305f5e1008152f35b5050346101585781600319360112610158576020905166038d7ea4c680008152f35b90503461055057826003193601126105505782917f0000000000000000000000000000000000000000000000000000000000000000935b60ff90818116602081101561082c5786901a60f81b6001600160f81b031916156107c15760010116610794565b9391929490505b60ff809416906107d782610c5a565b92805b8681168481101561081b57602081101561080857879181610800866001941a9189610ca0565b5301166107da565b634e487b7160e01b835260328952602483fd5b8651806108288882610b16565b0390f35b509391929490506107c8565b50503461015857816003193601126101585760209051600f8152f35b5050346101585780600319360112610158576001600160801b038160209361087a610b6d565b610882610b88565b6001600160a01b039182168352600687528383209116825285522054915191168152f35b505034610158576020366003190112610158576108289181906001600160a01b036108cf610b6d565b168152600260209081529190205491516001600160801b038316815260809290921c908201529081906040820190565b5050346101585781600319360112610158576108289061091d610bed565b905191829182610b16565b9050346105505760203660031901126105505760209282916001600160a01b03610950610b6d565b168252845220549051908152f35b505034610158578060031936011261015857806108289261097d610b6d565b610985610b88565b6001600160a01b0391821683526006602090815284842091909216835281529190205491516001600160801b038316815260809290921c908201529081906040820190565b5050346101585780600319360112610158576109e4610b6d565b60243580151581036109fa576104859133610d70565b8380fd5b50503461015857816003193601126101585760209051670de0b6b3a76400008152f35b828434610667578160031936011261066757610a3b610b6d565b60001993909190602435858103610a985750509282602094338152600386528181209360018060a01b031693848252865220600160ff198254161790558251908152600080516020610de7833981519152843392a35b5160018152f35b909450610ae95733808252600360209081528483206001600160a01b03909416808452938152848320805460ff191690558451928352945090600080516020610de7833981519152908590a3610a91565b50505163749b593960e01b8152fd5b5050346101585781600319360112610158576108289061091d610cc7565b919091602080825283519081818401526000945b828610610b57575050806040939411610b4a575b601f01601f1916010190565b6000838284010152610b3e565b8581018201518487016040015294810194610b2a565b600435906001600160a01b0382168203610b8357565b600080fd5b602435906001600160a01b0382168203610b8357565b610100810190811067ffffffffffffffff821117610bbb57604052565b634e487b7160e01b600052604160045260246000fd5b67ffffffffffffffff8111610bbb57601f01601f191660200190565b604051906040820182811067ffffffffffffffff821117610bbb5760405260018252600360fc1b6020830152565b6001600160a01b039081169116818114918215610c3757505090565b909150600052600360205260406000209060005260205260ff6040600020541690565b90610c6482610bd1565b60405190601f1990601f018116820167ffffffffffffffff811183821017610bbb57604052838252610c968294610bd1565b0190602036910137565b908151811015610cb1570160200190565b634e487b7160e01b600052603260045260246000fd5b7f000000000000000000000000000000000000000000000000000000000000000060005b60ff908181166020811015610d675783901a60f81b6001600160f81b03191615610d185760010116610ceb565b9290505b60ff80931691610d2b83610c5a565b9060005b85811685811015610d5d576020811015610cb157869181610d55856001941a9187610ca0565b530116610d2f565b5050509150915090565b50929050610d1c565b91909160018060a01b03809116916000918383526003602052604083209416938483526020526040822060ff1981541660ff83151516179055600014610dcf5750600080516020610de783398151915260206000195b604051908152a3565b6020600080516020610de783398151915291610dc656fe8c5be1e5ebec7d5bd14f71427d1e84f3dd0314c0f7b2291e5b200ac8c7c3b925a2646970667358221220e82a8e449da250c78b77964fc4a7b539f0e4d734cb228f53674530e8a274dcaf64736f6c634300080f0033",
  "linkReferences": {},
  "deployedLinkReferences": {}
}