{
  "_format": "hh-sol-artifact-1",
  "contractName": "CometExtAssetList",
  "sourceName": "contracts/CometExtAssetList.sol",
  "abi": [
    {
      "inputs": [
        {
          "components": [
            {
              "internalType": "bytes32",
              "name": "name32",
              "type": "bytes32"
            },
            {
              "internalType": "bytes32",
              "name": "symbol32",
              "type": "bytes32"
            }
          ],
          "internalType": "struct CometConfiguration.ExtConfiguration",
          "name": "config",
          "type": "tuple"
        },
        {
          "internalType": "address",
          "name": "assetListFactoryAddress",
          "type": "address"
        }
      ],
      "stateMutability": "nonpayable",
      "type": "constructor"
    },
    {
      "inputs": [],
      "name": "BadAmount",
      "type": "error"
    },
    {
      "inputs": [],
      "name": "BadNonce",
      "type": "error"
    },
    {
      "inputs": [],
      "name": "BadSignatory",
      "type": "error"
    },
    {
      "inputs": [],
      "name": "InvalidInt104",
      "type": "error"
    },
    {
      "inputs": [],
      "name": "InvalidInt256",
      "type": "error"
    },
    {
      "inputs": [],
      "name": "InvalidUInt104",
      "type": "error"
    },
    {
      "inputs": [],
      "name": "InvalidUInt128",
      "type": "error"
    },
    {
      "inputs": [],
      "name": "InvalidUInt64",
      "type": "error"
    },
    {
      "inputs": [],
      "name": "InvalidValueS",
      "type": "error"
    },
    {
      "inputs": [],
      "name": "InvalidValueV",
      "type": "error"
    },
    {
      "inputs": [],
      "name": "NegativeNumber",
      "type": "error"
    },
    {
      "inputs": [],
      "name": "SignatureExpired",
      "type": "error"
    },
    {
      "anonymous": false,
      "inputs": [
        {
          "indexed": true,
          "internalType": "address",
          "name": "owner",
          "type": "address"
        },
        {
          "indexed": true,
          "internalType": "address",
          "name": "spender",
          "type": "address"
        },
        {
          "indexed": false,
          "internalType": "uint256",
          "name": "amount",
          "type": "uint256"
        }
      ],
      "name": "Approval",
      "type": "event"
    },
    {
      "inputs": [
        {
          "internalType": "address",
          "name": "manager",
          "type": "address"
        },
        {
          "internalType": "bool",
          "name": "isAllowed_",
          "type": "bool"
        }
      ],
      "name": "allow",
      "outputs": [],
      "stateMutability": "nonpayable",
      "type": "function"
    },
    {
      "inputs": [
        {
          "internalType": "address",
          "name": "owner",
          "type": "address"
        },
        {
          "internalType": "address",
          "name": "manager",
          "type": "address"
        },
        {
          "internalType": "bool",
          "name": "isAllowed_",
          "type": "bool"
        },
        {
          "internalType": "uint256",
          "name": "nonce",
          "type": "uint256"
        },
        {
          "internalType": "uint256",
          "name": "expiry",
          "type": "uint256"
        },
        {
          "internalType": "uint8",
          "name": "v",
          "type": "uint8"
        },
        {
          "internalType": "bytes32",
          "name": "r",
          "type": "bytes32"
        },
        {
          "internalType": "bytes32",
          "name": "s",
          "type": "bytes32"
        }
      ],
      "name": "allowBySig",
      "outputs": [],
      "stateMutability": "nonpayable",
      "type": "function"
    },
    {
      "inputs": [
        {
          "internalType": "address",
          "name": "owner",
          "type": "address"
        },
        {
          "internalType": "address",
          "name": "spender",
          "type": "address"
        }
      ],
      "name": "allowance",
      "outputs": [
        {
          "internalType": "uint256",
          "name": "",
          "type": "uint256"
        }
      ],
      "stateMutability": "view",
      "type": "function"
    },
    {
      "inputs": [
        {
          "internalType": "address",
          "name": "spender",
          "type": "address"
        },
        {
          "internalType": "uint256",
          "name": "amount",
          "type": "uint256"
        }
      ],
      "name": "approve",
      "outputs": [
        {
          "internalType": "bool",
          "name": "",
          "type": "bool"
        }
      ],
      "stateMutability": "nonpayable",
      "type": "function"
    },
    {
      "inputs": [],
      "name": "assetListFactory",
      "outputs": [
        {
          "internalType": "address",
          "name": "",
          "type": "address"
        }
      ],
      "stateMutability": "view",
      "type": "function"
    },
    {
      "inputs": [],
      "name": "baseAccrualScale",
      "outputs": [
        {
          "internalType": "uint64",
          "name": "",
          "type": "uint64"
        }
      ],
      "stateMutability": "pure",
      "type": "function"
    },
    {
      "inputs": [],
      "name": "baseIndexScale",
      "outputs": [
        {
          "internalType": "uint64",
          "name": "",
          "type": "uint64"
        }
      ],
      "stateMutability": "pure",
      "type": "function"
    },
    {
      "inputs": [
        {
          "internalType": "address",
          "name": "account",
          "type": "address"
        }
      ],
      "name": "baseTrackingAccrued",
      "outputs": [
        {
          "internalType": "uint64",
          "name": "",
          "type": "uint64"
        }
      ],
      "stateMutability": "view",
      "type": "function"
    },
    {
      "inputs": [
        {
          "internalType": "address",
          "name": "account",
          "type": "address"
        },
        {
          "internalType": "address",
          "name": "asset",
          "type": "address"
        }
      ],
      "name": "collateralBalanceOf",
      "outputs": [
        {
          "internalType": "uint128",
          "name": "",
          "type": "uint128"
        }
      ],
      "stateMutability": "view",
      "type": "function"
    },
    {
      "inputs": [],
      "name": "factorScale",
      "outputs": [
        {
          "internalType": "uint64",
          "name": "",
          "type": "uint64"
        }
      ],
      "stateMutability": "pure",
      "type": "function"
    },
    {
      "inputs": [
        {
          "internalType": "address",
          "name": "owner",
          "type": "address"
        },
        {
          "internalType": "address",
          "name": "manager",
          "type": "address"
        }
      ],
      "name": "hasPermission",
      "outputs": [
        {
          "internalType": "bool",
          "name": "",
          "type": "bool"
        }
      ],
      "stateMutability": "view",
      "type": "function"
    },
    {
      "inputs": [
        {
          "internalType": "address",
          "name": "",
          "type": "address"
        },
        {
          "internalType": "address",
          "name": "",
          "type": "address"
        }
      ],
      "name": "isAllowed",
      "outputs": [
        {
          "internalType": "bool",
          "name": "",
          "type": "bool"
        }
      ],
      "stateMutability": "view",
      "type": "function"
    },
    {
      "inputs": [
        {
          "internalType": "address",
          "name": "",
          "type": "address"
        }
      ],
      "name": "liquidatorPoints",
      "outputs": [
        {
          "internalType": "uint32",
          "name": "numAbsorbs",
          "type": "uint32"
        },
        {
          "internalType": "uint64",
          "name": "numAbsorbed",
          "type": "uint64"
        },
        {
          "internalType": "uint128",
          "name": "approxSpend",
          "type": "uint128"
        },
        {
          "internalType": "uint32",
          "name": "_reserved",
          "type": "uint32"
        }
      ],
      "stateMutability": "view",
      "type": "function"
    },
    {
      "inputs": [],
      "name": "maxAssets",
      "outputs": [
        {
          "internalType": "uint8",
          "name": "",
          "type": "uint8"
        }
      ],
      "stateMutability": "pure",
      "type": "function"
    },
    {
      "inputs": [],
      "name": "name",
      "outputs": [
        {
          "internalType": "string",
          "name": "",
          "type": "string"
        }
      ],
      "stateMutability": "view",
      "type": "function"
    },
    {
      "inputs": [],
      "name": "priceScale",
      "outputs": [
        {
          "internalType": "uint64",
          "name": "",
          "type": "uint64"
        }
      ],
      "stateMutability": "pure",
      "type": "function"
    },
    {
      "inputs": [],
      "name": "symbol",
      "outputs": [
        {
          "internalType": "string",
          "name": "",
          "type": "string"
        }
      ],
      "stateMutability": "view",
      "type": "function"
    },
    {
      "inputs": [],
      "name": "totalsBasic",
      "outputs": [
        {
          "components": [
            {
              "internalType": "uint64",
              "name": "baseSupplyIndex",
              "type": "uint64"
            },
            {
              "internalType": "uint64",
              "name": "baseBorrowIndex",
              "type": "uint64"
            },
            {
              "internalType": "uint64",
              "name": "trackingSupplyIndex",
              "type": "uint64"
            },
            {
              "internalType": "uint64",
              "name": "trackingBorrowIndex",
              "type": "uint64"
            },
            {
              "internalType": "uint104",
              "name": "totalSupplyBase",
              "type": "uint104"
            },
            {
              "internalType": "uint104",
              "name": "totalBorrowBase",
              "type": "uint104"
            },
            {
              "internalType": "uint40",
              "name": "lastAccrualTime",
              "type": "uint40"
            },
            {
              "internalType": "uint8",
              "name": "pauseFlags",
              "type": "uint8"
            }
          ],
          "internalType": "struct CometStorage.TotalsBasic",
          "name": "",
          "type": "tuple"
        }
      ],
      "stateMutability": "view",
      "type": "function"
    },
    {
      "inputs": [
        {
          "internalType": "address",
          "name": "",
          "type": "address"
        }
      ],
      "name": "totalsCollateral",
      "outputs": [
        {
          "internalType": "uint128",
          "name": "totalSupplyAsset",
          "type": "uint128"
        },
        {
          "internalType": "uint128",
          "name": "_reserved",
          "type": "uint128"
        }
      ],
      "stateMutability": "view",
      "type": "function"
    },
    {
      "inputs": [
        {
          "internalType": "address",
          "name": "",
          "type": "address"
        }
      ],
      "name": "userBasic",
      "outputs": [
        {
          "internalType": "int104",
          "name": "principal",
          "type": "int104"
        },
        {
          "internalType": "uint64",
          "name": "baseTrackingIndex",
          "type": "uint64"
        },
        {
          "internalType": "uint64",
          "name": "baseTrackingAccrued",
          "type": "uint64"
        },
        {
          "internalType": "uint16",
          "name": "assetsIn",
          "type": "uint16"
        },
        {
          "internalType": "uint8",
          "name": "_reserved",
          "type": "uint8"
        }
      ],
      "stateMutability": "view",
      "type": "function"
    },
    {
      "inputs": [
        {
          "internalType": "address",
          "name": "",
          "type": "address"
        },
        {
          "internalType": "address",
          "name": "",
          "type": "address"
        }
      ],
      "name": "userCollateral",
      "outputs": [
        {
          "internalType": "uint128",
          "name": "balance",
          "type": "uint128"
        },
        {
          "internalType": "uint128",
          "name": "_reserved",
          "type": "uint128"
        }
      ],
      "stateMutability": "view",
      "type": "function"
    },
    {
      "inputs": [
        {
          "internalType": "address",
          "name": "",
          "type": "address"
        }
      ],
      "name": "userNonce",
      "outputs": [
        {
          "internalType": "uint256",
          "name": "",
          "type": "uint256"
        }
      ],
      "stateMutability": "view",
      "type": "function"
    },
    {
      "inputs": [],
      "name": "version",
      "outputs": [
        {
          "internalType": "string",
          "name": "",
          "type": "string"
        }
      ],
      "stateMutability": "view",
      "type": "function"
    }
  ],
  "bytecode": "0x60e0346100b457601f610f5b38819003918201601f1916830192916001600160401b039190828511848610176100b95780849260409687528339810103606081126100b45783136100b457825190818401908111828210176100b95783528151808252602080840151920191825291830151916001600160a01b03831683036100b4576080525160a05260c05251610e8b90816100d0823960805181610d18015260a0518161077e015260c051816108740152f35b600080fd5b634e487b7160e01b600052604160045260246000fdfe6040608081526004908136101561001557600080fd5b600091823560e01c90816306fdde0314610b47578163095ea7b314610a705781630f21d96b14610a4d578163110496e514610a195781632b92a07d146109ad5781632e04b8e71461097757816354fd4d501461094e57816359e017bd146108f55781635c2549ee146108a35781637042e2d81461085f57816394b2294b1461084357816395d89b411461076857816396e7a9c114610746578163a0fbddaf14610727578163a1654379146106d9578163a20ed596146106bb578163ab9ba7f414610675578163b9f0baf71461055f578163bb24d9941461026857508063c5fa15cf146101fd578063cde68041146101d5578063dc4abafd146101675763dd62ed3e1461012057600080fd5b3461016357806003193601126101635760209161014c61013e610bbc565b610146610bd7565b90610c6a565b1561015d5750600019905b51908152f35b90610157565b5080fd5b50346101635760203660031901126101635760a09181906001600160a01b0361018e610bbc565b1681526005602052205481519181600c0b835267ffffffffffffffff808360681c1660208501528260a81c169083015261ffff8160e81c16606083015260f81c6080820152f35b50346101635780600319360112610163576020906101f461013e610bbc565b90519015158152f35b50346101635760203660031901126101635760809181906001600160a01b03610224610bbc565b1681526007602052205481519163ffffffff8216835267ffffffffffffffff8260201c1660208401526001600160801b038260601c169083015260e01c6060820152f35b83833461016357610100928360031936011261055b57610286610bbc565b9061028f610bd7565b90604435928315159687850361055757606435906084359260a4359960ff8b16809b036105535760e435907f7fffffffffffffffffffffffffffffff5d576e7357a4501ddfe92f46681b20a0821161054357601b8c141580610538575b610528576102f8610d16565b805190602001209b610308610c3c565b80519060200120918b5192602084019e8f7f8b73c3c69bb8fe3d512ecc4cf759cc79239f7b179b0ffacaa9a75d522b39400f90528d85015260608401524660808401523060a084015260a0835260c0830167ffffffffffffffff9584821087831117610515578d9e9f828d9e9f52855190209260e08601917fab8e80cad03d9def1f2f6f14831e15fd29eb88f59ac40032be3f8047b5ee33ed835260018060a01b039d8e809216809b89015216610120870152610140860152886101608601528961018086015260c082526101a085019180831088841117610500578f8390525190206101c085019261190160f01b84526101c28601526101e285015260428152610220840195818710908711176104ed57858e52519020845261024082015260c43561026082015261028001528980526020908a9060809060015afa156104e35788519485169081156104d35781036104c3578852826020528688209081549160001983146104b057600183019055036104a1574210156104935750906104909291610dbf565b51f35b8451630819bdcd60e01b8152fd5b5084516312f55d3b60e21b8152fd5b634e487b7160e01b8a526011855260248afd5b87516310188bcb60e21b81528490fd5b88516310188bcb60e21b81528590fd5b87513d8a823e3d90fd5b634e487b7160e01b8f5260418a5260248ffd5b5050634e487b7160e01b8f5260418a5260248ffd5b634e487b7160e01b8f5260418b5260248ffd5b8951639c5b7fcf60e01b81528790fd5b50601c8c14156102ec565b895163ed9a019560e01b81528790fd5b8980fd5b8680fd5b8280fd5b82843461067257806003193601126106725780825161057d81610bed565b81815281602082015281848201528160608201528160808201528160a08201528160c082015260e001525467ffffffffffffffff90818116906001549283928551926105c884610bed565b81845260208401968382821c1688528381860192818160801c168452606087019060c01c815260808701926cffffffffffffffffffffffffff968795868b16865260a08a0197878c60681c16895260c08b019a64ffffffffff809d60d01c168c5260e0019c60f81c8d528284519e8f928352511690602001525116908b01525116606089015251166080870152511660a0850152511660c08301525160ff1660e082015261010090f35b80fd5b5050346101635760203660031901126101635760209167ffffffffffffffff9082906001600160a01b036106a7610bbc565b16815260058552205460a81c169051908152f35b50503461016357816003193601126101635760209051620f42408152f35b50503461016357806003193601126101635760ff816020936106f9610bbc565b610701610bd7565b6001600160a01b0391821683526003875283832091168252855220549151911615158152f35b505034610163578160031936011261016357602090516305f5e1008152f35b5050346101635781600319360112610163576020905166038d7ea4c680008152f35b90503461055b578260031936011261055b5782917f0000000000000000000000000000000000000000000000000000000000000000935b60ff9081811660208110156108375786901a60f81b6001600160f81b031916156107cc576001011661079f565b9391929490505b60ff809416906107e282610ca9565b92805b868116848110156108265760208110156108135787918161080b866001941a9189610cef565b5301166107e5565b634e487b7160e01b835260328952602483fd5b8651806108338882610b65565b0390f35b509391929490506107d3565b5050346101635781600319360112610163576020905160188152f35b505034610163578160031936011261016357517f00000000000000000000000000000000000000000000000000000000000000006001600160a01b03168152602090f35b5050346101635780600319360112610163576001600160801b03816020936108c9610bbc565b6108d1610bd7565b6001600160a01b039182168352600687528383209116825285522054915191168152f35b505034610163576020366003190112610163576108339181906001600160a01b0361091e610bbc565b168152600260209081529190205491516001600160801b038316815260809290921c908201529081906040820190565b5050346101635781600319360112610163576108339061096c610c3c565b905191829182610b65565b90503461055b57602036600319011261055b5760209282916001600160a01b0361099f610bbc565b168252845220549051908152f35b50503461016357806003193601126101635780610833926109cc610bbc565b6109d4610bd7565b6001600160a01b0391821683526006602090815284842091909216835281529190205491516001600160801b038316815260809290921c908201529081906040820190565b505034610163578060031936011261016357610a33610bbc565b6024358015158103610a49576104909133610dbf565b8380fd5b50503461016357816003193601126101635760209051670de0b6b3a76400008152f35b828434610672578160031936011261067257610a8a610bbc565b60001993909190602435858103610ae75750509282602094338152600386528181209360018060a01b031693848252865220600160ff198254161790558251908152600080516020610e36833981519152843392a35b5160018152f35b909450610b385733808252600360209081528483206001600160a01b03909416808452938152848320805460ff191690558451928352945090600080516020610e36833981519152908590a3610ae0565b50505163749b593960e01b8152fd5b5050346101635781600319360112610163576108339061096c610d16565b919091602080825283519081818401526000945b828610610ba6575050806040939411610b99575b601f01601f1916010190565b6000838284010152610b8d565b8581018201518487016040015294810194610b79565b600435906001600160a01b0382168203610bd257565b600080fd5b602435906001600160a01b0382168203610bd257565b610100810190811067ffffffffffffffff821117610c0a57604052565b634e487b7160e01b600052604160045260246000fd5b67ffffffffffffffff8111610c0a57601f01601f191660200190565b604051906040820182811067ffffffffffffffff821117610c0a5760405260018252600360fc1b6020830152565b6001600160a01b039081169116818114918215610c8657505090565b909150600052600360205260406000209060005260205260ff6040600020541690565b90610cb382610c20565b60405190601f1990601f018116820167ffffffffffffffff811183821017610c0a57604052838252610ce58294610c20565b0190602036910137565b908151811015610d00570160200190565b634e487b7160e01b600052603260045260246000fd5b7f000000000000000000000000000000000000000000000000000000000000000060005b60ff908181166020811015610db65783901a60f81b6001600160f81b03191615610d675760010116610d3a565b9290505b60ff80931691610d7a83610ca9565b9060005b85811685811015610dac576020811015610d0057869181610da4856001941a9187610cef565b530116610d7e565b5050509150915090565b50929050610d6b565b91909160018060a01b03809116916000918383526003602052604083209416938483526020526040822060ff1981541660ff83151516179055600014610e1e5750600080516020610e3683398151915260206000195b604051908152a3565b6020600080516020610e3683398151915291610e1556fe8c5be1e5ebec7d5bd14f71427d1e84f3dd0314c0f7b2291e5b200ac8c7c3b925a26469706673582212207c8d537b00f392c1b3a7023e0a8cf0ffc2fd24b72521245e14fea91a665a2e7764736f6c634300080f0033",
  "linkReferences": {},
  "deployedLinkReferences": {}
}