{
  "_format": "hh-sol-artifact-1",
  "contractName": "CometStorage",
  "sourceName": "contracts/CometStorage.sol",
  "abi": [
    {
      "inputs": [
        {
          "internalType": "address",
          "name": "",
          "type": "address"
        },
        {
          "internalType": "address",
          "name": "",
          "type": "address"
        }
      ],
      "name": "isAllowed",
      "outputs": [
        {
          "internalType": "bool",
          "name": "",
          "type": "bool"
        }
      ],
      "stateMutability": "view",
      "type": "function"
    },
    {
      "inputs": [
        {
          "internalType": "address",
          "name": "",
          "type": "address"
        }
      ],
      "name": "liquidatorPoints",
      "outputs": [
        {
          "internalType": "uint32",
          "name": "numAbsorbs",
          "type": "uint32"
        },
        {
          "internalType": "uint64",
          "name": "numAbsorbed",
          "type": "uint64"
        },
        {
          "internalType": "uint128",
          "name": "approxSpend",
          "type": "uint128"
        },
        {
          "internalType": "uint32",
          "name": "_reserved",
          "type": "uint32"
        }
      ],
      "stateMutability": "view",
      "type": "function"
    },
    {
      "inputs": [
        {
          "internalType": "address",
          "name": "",
          "type": "address"
        }
      ],
      "name": "totalsCollateral",
      "outputs": [
        {
          "internalType": "uint128",
          "name": "totalSupplyAsset",
          "type": "uint128"
        },
        {
          "internalType": "uint128",
          "name": "_reserved",
          "type": "uint128"
        }
      ],
      "stateMutability": "view",
      "type": "function"
    },
    {
      "inputs": [
        {
          "internalType": "address",
          "name": "",
          "type": "address"
        }
      ],
      "name": "userBasic",
      "outputs": [
        {
          "internalType": "int104",
          "name": "principal",
          "type": "int104"
        },
        {
          "internalType": "uint64",
          "name": "baseTrackingIndex",
          "type": "uint64"
        },
        {
          "internalType": "uint64",
          "name": "baseTrackingAccrued",
          "type": "uint64"
        },
        {
          "internalType": "uint16",
          "name": "assetsIn",
          "type": "uint16"
        },
        {
          "internalType": "uint8",
          "name": "_reserved",
          "type": "uint8"
        }
      ],
      "stateMutability": "view",
      "type": "function"
    },
    {
      "inputs": [
        {
          "internalType": "address",
          "name": "",
          "type": "address"
        },
        {
          "internalType": "address",
          "name": "",
          "type": "address"
        }
      ],
      "name": "userCollateral",
      "outputs": [
        {
          "internalType": "uint128",
          "name": "balance",
          "type": "uint128"
        },
        {
          "internalType": "uint128",
          "name": "_reserved",
          "type": "uint128"
        }
      ],
      "stateMutability": "view",
      "type": "function"
    },
    {
      "inputs": [
        {
          "internalType": "address",
          "name": "",
          "type": "address"
        }
      ],
      "name": "userNonce",
      "outputs": [
        {
          "internalType": "uint256",
          "name": "",
          "type": "uint256"
        }
      ],
      "stateMutability": "view",
      "type": "function"
    }
  ],
  "bytecode": "0x60808060405234610016576102f1908161001c8239f35b600080fdfe60806040818152600436101561001457600080fd5b600091823560e01c9081632b92a07d14610220575080632e04b8e7146101e957806359e017bd1461018d578063a165437914610140578063c5fa15cf146100d55763dc4abafd1461006457600080fd5b346100d15760203660031901126100d15760a09181906001600160a01b0361008a61028a565b1681526005602052205481519181600c0b835267ffffffffffffffff808360681c1660208501528260a81c169083015261ffff8160e81c16606083015260f81c6080820152f35b5080fd5b50346100d15760203660031901126100d15760809181906001600160a01b036100fc61028a565b1681526007602052205481519163ffffffff8216835267ffffffffffffffff8260201c1660208401526001600160801b038260601c169083015260e01c6060820152f35b50346100d157806003193601126100d15760ff8160209361015f61028a565b6101676102a5565b6001600160a01b0391821683526003875283832091168252855220549151911615158152f35b50346100d15760203660031901126100d1576101e59181906001600160a01b036101b561028a565b168152600260209081529190205491516001600160801b038316815260809290921c908201529081906040820190565b0390f35b50346100d15760203660031901126100d15760209181906001600160a01b0361021061028a565b1681526004845220549051908152f35b919050346102865780600319360112610286576101e590829361024161028a565b6102496102a5565b6001600160a01b039182168352600660209081528484209190921683528152919020546001600160801b038116845260801c908301526040820190565b8280fd5b600435906001600160a01b03821682036102a057565b600080fd5b602435906001600160a01b03821682036102a05756fea26469706673582212205f89f253f0cefcd6a4dfa49f091a144e473f86106f2cfb1decb3d489edc46eac64736f6c634300080f0033",
  "linkReferences": {},
  "deployedLinkReferences": {}
}